:020000040800F2
:10000000800E0020810300085D2D00085F2D000890
:10001000632D0008672D00086B2D0008000000000C
:100020000000000000000000000000006F2D00082C
:10003000712D000800000000732D0008752D0008C8
:100040009B0300089B0300089B0300089B03000818
:100050009B0300089B0300089B0300089B03000808
:100060009B0300089B0300089B0300081F6E000809
:100070009B0300089B0300089B0300089B030008E8
:100080009B0300089B0300089B0300089B030008D8
:100090009B0300089B0300089B030008772D0008C2
:1000A0009B0300089B0300089B0300089B030008B8
:1000B00031670008156800081B6700089B030008EB
:1000C0009B0300089B0300089B0300089B03000898
:1000D0009B030008792D00089B0300089B03000880
:1000E0009B0300089B0300089B03000800F002F834
:1000F00000F05AF80AA090E8000C82448344AAF168
:100100000107DA4501D100F04FF8AFF2090EBAE865
:100110000F0013F0010F18BFFB1A43F0010318473B
:10012000588C0000788C00000A444FF0000C10F846
:10013000013B13F0070408BF10F8014B1D1108BF65
:1001400010F8015B641E05D010F8016B641E01F805
:10015000016BF9D113F0080F1EBF10F8014BAD1C55
:100160000C1B09D16D1E58BF01F801CBFAD505E073
:1001700014F8016B01F8016B6D1EF9D59142D6D3CD
:10018000704700000023002400250026103A28BFF5
:1001900078C1FBD8520728BF30C148BF0B607047F9
:1001A0001FB51FBD10B510BD08F07FFD1146FFF74C
:1001B000F7FF06F00DFC08F09DFD03B4FFF7F2FF1A
:1001C00003BC08F0A1FD00000CB5002001900090D8
:1001D0006348006840F480306149086000BF6048AF
:1001E000006800F4003000900198401C01900098D5
:1001F00018B90198B0F5A06FF1D15948006800F422
:10020000003010B10120009001E000200090009823
:10021000012831D152484068514948600846406839
:1002200048600846406848600846406820F47C10F2
:1002300048600846406840F49810486008460068E6
:1002400040F08070086000BF4548006800F0007012
:100250000028F9D04248406820F003004049486037
:100260000846406840F00200486000BF3C484068D3
:1002700000F00C000828F9D10CBD10B5FFF7A4FF61
:1002800010BD10B53648006840F0010034490860E0
:1002900008464068334908403149486008460068CC
:1002A000314908402E4908600846006820F4802043
:1002B00008600846406820F4FE0048604FF41F00C4
:1002C00088600020C862FFF7D8FF4FF00060274920
:1002D000086010BD30B50021002000220023204C12
:1002E000646804F00C0121B1042906D0082925D145
:1002F00007E01F4C1F4D2C6024E01D4C1D4D2C6051
:1003000020E0174C646804F47010154C646804F421
:100310008032022404EB904022B9174C4443154D1F
:100320002C600AE00E4CE46A04F00F04631C104CCD
:10033000B4FBF3F444430F4D2C6003E00C4C0D4D23
:100340002C6000BF00BF064C6468C4F303140B4D5F
:10035000295D084C2468CC40064D2C6030BD00005F
:10036000001002400000FFF8FFFFF6FE08ED00E07D
:1003700000127A000000002000093D000400002067
:100380000948804709480047FEE7FEE7FEE7FEE729
:10039000FEE7FEE7FEE7FEE7FEE7FEE70448054965
:1003A000054A064B7047000083020008ED00000874
:1003B00080080020800E0020800A0020800A002093
:1003C000E648006840F00100E449086008464068DB
:1003D000E3490840E149486008460068E1490840AF
:1003E000DE4908600846006820F48020086008465E
:1003F000406820F4FE0048604FF41F008860002031
:10040000C8627047D549096821F48031D34A116028
:100410001146096821F480211160B0F5803F03D0B6
:10042000B0F5802F0ED106E0CC49096841F4803147
:10043000CA4A116007E0C949096841F4A021C74AC6
:10044000116000E000BF00BF704710B501460022F8
:10045000002300204A11012A02D1C04C236806E083
:10046000022A02D1BD4C236A01E0BC4C636A01F050
:100470001F02012494401C400CB1012000E0002028
:1004800010BD38B5002000900024002500BF3120A9
:10049000FFF7DBFF05460098401C00900098B0F580
:1004A000A06F01D0002DF2D03120FFF7CEFF08B1B0
:1004B000012400E00024204638BD01460020A74A60
:1004C000106820F0F80040EAC10010607047A649AB
:1004D0000860704702460020A04B586820F4741052
:1004E00042EA010318439D4B586070479E490866D5
:1004F000704702460020994BD86A9C4B184042EA4C
:1005000001031843954BD862704701460020934A77
:10051000506820F003000843506070478F484068DF
:1005200000F00C007047014600208C4A506820F013
:10053000F00008435060704701460020874A506829
:1005400020F4E06008435060704701460020834A71
:10055000506820F4605040EAC1005060704729B1F3
:100560007E4A527A02437D4B5A7204E07B4A527AA9
:1005700082437A4B5A7270477B49D8310860704782
:1005800001460020754A506820F4404008435060FE
:1005900070470021714A20321170704A82F8201091
:1005A000012802D004280AD104E001216B4A20323C
:1005B000117005E00521694A2032117000E000BF8A
:1005C00000BF70476A49086070476449096A01437F
:1005D000624A11627047664944390860704770B5D5
:1005E000002100230024002200255C4E766806F0DE
:1005F0000C0121B1042905D0082921D105E05D4E67
:10060000066020E05B4E06601DE0544E766806F4FE
:100610007013524E766806F48034022606EB93433C
:100620001CB9554E5E43066009E04C4EF66A06F072
:100630000F06751C4F4EB6FBF5F65E43066002E0F2
:100640004C4E066000BF00BF444E766806F0F001D5
:1006500009094A4E725C0668D64046603F4E76688D
:1006600006F4E061090A454E725C4668D640866031
:100670003A4E766806F46051C90A404E725C46688C
:10068000D640C660354E766806F44041890B3C4E34
:10069000725CC668B6FBF2F6066170BD29B12F4ADE
:1006A000526902432D4B5A6104E02C4A526982433D
:1006B0002A4B5A61704729B1284A92690243274B55
:1006C0009A6104E0254A92698243244B9A617047FB
:1006D00029B1224AD2690243204BDA6104E01F4A61
:1006E000D26982431D4BDA61704729B11B4AD26837
:1006F00002431A4BDA6004E0184AD2688243174B6F
:10070000DA60704729B1154A12690243134B1A6126
:1007100004E0124A12698243104B1A61704714496F
:100720004039086070471049C86470470B49C87168
:1007300070470A48406A40F0807008494862704734
:1007400001460020054A92680A400AB1012000E0F3
:100750000020704701498872704700000010024075
:100760000000FFF8FFFFF6FE00004242F0FFFEFF30
:100770008004424200127A0000093D00140000206B
:100780002400002010B50446FB48844209D1012111
:100790008803FFF7AAFF00214FF48040FFF7A5FF71
:1007A00032E0F648844209D101214804FFF7AAFF4C
:1007B00000214FF40030FFF7A5FF25E0F048844208
:1007C00009D101218804FFF79DFF00214FF480200B
:1007D000FFF798FF18E0EB48844209D10121C804D3
:1007E000FFF790FF00214FF40020FFF78BFF0BE095
:1007F000E548844208D101210805FFF783FF002165
:100800004FF48010FFF77EFF10BD2DE9F04786B052
:1008100005460E460024A24600BFA1460027B08927
:1008200000B100BF2F462C8A4CF6FF700440F088C0
:1008300004432C82AC894EF6F3100440B088318911
:100840000843718908430443AC81AC8A4FF6FF40EA
:100850000440B0890443AC8201A8FFF7C0FEC6483B
:10086000874202D1DDF810A001E0DDF80CA0A889D4
:1008700000F4004040B10AEBCA0000EB0A103168F6
:100880004900B0FBF1F807E00AEBCA0000EB0A10E0
:1008900031688900B0FBF1F86420B8FBF0F0040186
:1008A0002009642101FB1089A88900F4004040B1AF
:1008B000322000EBC900B0FBF1F000F00700044368
:1008C00008E0322000EB09106421B0FBF1F000F0E9
:1008D0000F0004432C8106B0BDE8F0874FF4165199
:1008E000016000218180C18001810C2141810021B2
:1008F0008181704710B502460020108A4FF2FF0335
:1009000018400B884C8823438C882343CC8823438E
:100910001843108210BD0021018041808180C18078
:10092000704721B1828942F40052828104E08289B9
:100930004DF6FF731A4082817047F0B503460024DC
:1009400000260025002040F66A17B94200D100BFFA
:100950001846C1F3421401F01F06012707FA06F5F5
:10096000012C01D10C3004E0022C01D1103000E048
:1009700014301AB107682F43076002E00768AF43DD
:100980000760F0BD1AB1838A0B43838202E0838A39
:100990008B4383827047028A4FF6F0731A400282BB
:1009A000028A0A430282704782894FF2FF731A401B
:1009B000828182890A438281704721B1828942F013
:1009C0000202828104E082894FF6FD731A4082811F
:1009D0007047028A4FF6DF731A400282028A0A4386
:1009E0000282704721B1028A42F48042028204E00E
:1009F000028A4BF6FF731A4002827047C1F3080265
:100A00008280704701468888C0F30800704781895A
:100A100041F0010181817047028BD2B20283028BC7
:100A200042EA012202837047028B02F47F42028372
:100A3000028B0A430283704721B1828A42F020026E
:100A4000828204E0828A4FF6DF731A408282704706
:100A500021B1828A42F01002828204E0828A4FF63B
:100A6000EF731A408282704721B1828A42F00802F5
:100A7000828204E0828A4FF6F7731A4082827047BE
:100A800021B1828942F40042828103E08289C2F36B
:100A90000E028281704721B1828A42F40062828212
:100AA00004E0828A4FF2FF731A4082827047828A82
:100AB0004FF6FB731A408282828A0A438282704711
:100AC00021B1828A42F00202828204E0828A4FF6D9
:100AD000FD731A408282704702460020B1F5007F04
:100AE00000D100BF13880B400BB1012000E00020B3
:100AF000704701F40072B2F5007F00D100BFCA4315
:100B00000280704770B502460024002300250020B3
:100B100040F66A16B14200D100BFC1F3421501F0A0
:100B20001F03012606FA03F3012D02D196893340F3
:100B300006E0022D02D1168A334001E0968A334046
:100B40000C12012606FA04F41688344013B10CB1D5
:100B5000012000E0002070BD10B50022002340F607
:100B60006A14A14200D100BF0A1201249440A3B22A
:100B7000DC43048010BD0000003801400044004008
:100B800000480040004C00400050004010B50446B2
:100B9000CC48844208D101210420FFF7A6FD0021A2
:100BA0000420FFF7A2FD46E0C748844208D1012196
:100BB0000820FFF79AFD00210820FFF796FD3AE094
:100BC000C248844208D101211020FFF78EFD002188
:100BD0001020FFF78AFD2EE0BD48844208D1012194
:100BE0002020FFF782FD00212020FFF77EFD22E07C
:100BF000B848844208D101214020FFF776FD00214A
:100C00004020FFF772FD16E0B348844208D101216D
:100C10008020FFF76AFD00218020FFF766FD0AE0D3
:100C2000AE48844207D101218015FFF75EFD002107
:100C3000A015FFF75AFD10BD10B501210846FFF7BA
:100C400054FD00210120FFF750FD10BD2DE9F041BA
:100C5000024600250026002000230024002791F8EA
:100C600003C00CF00F0591F803C00CF0100CBCF1A0
:100C7000000F03D091F802C04CEA050591F800C0BE
:100C8000BCF1000F31D0146800202BE04FF0010CB4
:100C90000CFA00F3B1F800C00CEA03069E4220D122
:100CA00083004FF00F0C0CFA03F7BC4305FA03FC6A
:100CB0004CEA040491F803C0BCF1280F06D14FF0B0
:100CC000010C0CFA00FCC2F814C00AE091F803C051
:100CD000BCF1480F05D14FF0010C0CFA00FCC2F832
:100CE00010C0401C0828D1D31460B1F800C0BCF17A
:100CF000FF0F34DD546800202EE000F1080C4FF0A7
:100D0000010808FA0CF3B1F800C00CEA03069E4291
:100D100021D183004FF00F0C0CFA03F7BC4305FA06
:100D200003FC4CEA040491F803C0BCF1280F05D180
:100D300000F1080C08FA0CF8C2F8148091F803C00E
:100D4000BCF1480F07D100F1080C4FF0010808FA78
:100D50000CF8C2F81080401C0828CED35460BDE8BF
:100D6000F0814FF6FF710180022181700421C17072
:100D700070470246002093680B400BB1012000E051
:100D8000002070470146886880B270470246002004
:100D9000D3680B400BB1012000E0002070470146F2
:100DA000C86880B2704701617047416170470AB1FD
:100DB000016100E041617047C16070474FF48032CB
:100DC0000A43826181618261826982697047024659
:100DD0000020434B18684FF68073184040EA021019
:100DE00008433F4B186070473E49C8617047F0B5F3
:100DF0000A46002300240021002500F00046B6F139
:100E0000004F02D1364EF16901E0354E7168C0F3F2
:100E1000034583B200F44016B6F5401F08D121F017
:100E200070612F4E766826F070662D4F7E6012E05E
:100E300000F48016B6F5801F06D1032606FA05F4E5
:100E4000A14341F0706106E0460D360103FA06F653
:100E5000B14341F0706122B1460D360103FA06F646
:100E6000314300F00046B6F1004F02D11C4EF16153
:100E700001E01B4E7160F0BD30B500228B071C0FE6
:100E80000F2303FA04F2164B08338C1053F8243066
:100E90009343134C08348D1044F8253023468C10AE
:100EA00053F824308C07240F00FA04F423430C4C2D
:100EB00008348D1044F8253030BD0A49DC31086013
:100EC0007047000000080140000C01400010014084
:100ED0000014014000180140001C014000200140A6
:100EE000000001400000204231490143314A1160B5
:100EF000704770B5002100230F22C47804B32D4C35
:100F0000246804F4E064C4F5E064210AC1F1040338
:100F1000CA40447804FA03F184781440214309015B
:100F2000254C0678A155047804F01F050124AC4037
:100F300005786D11AD0005F1E025C5F8004109E027
:100F4000047804F01F050124AC401C4D067876118E
:100F500045F8264070BD1A4A0A400243154B1B1F34
:100F60001A60704739B1134A121D12680243114BBF
:100F70001B1D1A6006E00F4A121D126882430D4BBA
:100F80001B1D1A607047042808D14FF0E021096941
:100F900041F004014FF0E022116107E04FF0E02141
:100FA000096921F004014FF0E0221161704700004F
:100FB0000000FA050CED00E000E400E080E100E054
:100FC00080FFFF1F01460020FE4A106800F0380035
:100FD000084310607047FB49096821F00801F94A8D
:100FE000116011460968014311607047F5490968AD
:100FF00021F01001F34A11601146096801431160A4
:101000007047F148EF494860F04848607047EE4843
:10101000EC494860ED4848607047EA48006940F094
:101020008000E84908617047E648006940F08000A8
:10103000E449086170470420E249C96801F00101F0
:1010400009B101200EE0DF49C96801F0040109B1CE
:10105000022007E0DB49C96801F0100109B1032053
:1010600000E00420704700B502460423FFF7E3FFC9
:10107000034603E0FFF7DFFF0346521E012B01D1B9
:10108000002AF7D102B90523184600BD30B5044641
:1010900004254FF43020FFF7E6FF0546042D17D155
:1010A000C848006940F00200C6490861084644612A
:1010B000006940F0400008614FF43020FFF7D3FF93
:1010C0000546C048006941F6FD710840BD49086108
:1010D000284630BD10B504244FF43020FFF7C3FF7D
:1010E0000446042C16D1B748006940F00400B54905
:1010F00008610846006940F0400008614FF4302064
:10110000FFF7B1FF0446AF48006941F6FB710840A4
:10111000AC490861204610BD00B502460423FFF724
:101120008AFF034603E0FFF786FF0346521E012BAA
:1011300001D1002AF7D102B90523184600BD10B528
:1011400004244FF43020FFF7E7FF0446042C16D1A7
:101150009C48006940F004009A490861084600690B
:1011600040F0400008614FF43020FFF7D5FF0446FF
:101170009448006941F6FB71084092490861204695
:1011800010BD00208F49C96901F0020109B1012099
:1011900000E00020704730B5A5250424FFF7F1FFDB
:1011A00000B100254FF43020FFF75DFF0446042C0A
:1011B0003AD1854883498860844888600846006938
:1011C00040F0200008610846006940F040000861D6
:1011D0004FF43020FFF747FF0446042C1BD1794819
:1011E000006941F6DF7108407649086108460069E8
:1011F00040F01000086176480580E002FFF733FFF9
:101200000446052C10D06F48006941F6EF71084084
:101210006C49086108E0052C06D06A48006941F66F
:10122000EF71084067490861204630BD78B5064631
:101230000C46042500200090E802FFF714FF054645
:10124000042D24D15F48006940F001005D49086128
:101250003480E802FFF707FF0546042D10D1B01CCB
:101260000090200C00990880E802FFF7FCFE05467C
:101270005448006941F6FE7108405249086106E091
:101280005048006941F6FE7108404E490861284601
:1012900078BD70B504460D460426F002FFF7E3FE64
:1012A0000646042E11D14748006940F00100454927
:1012B00008612580F002FFF7D6FE06464148006926
:1012C00041F6FE7108403F490861304670BD70B577
:1012D00005460E460424E002FFF7C5FE0446042C32
:1012E00017D139483749886038488860084600690E
:1012F00040F0100008612E80E002FFF7B4FE0446C3
:10130000052C06D02F48006941F6EF7108402D49A1
:101310000861204670BD2DE9F04304464FF6FF7684
:101320003746B046B1460425E443E6B2C4F3072786
:10133000C4F307484FEA1469E802FFF794FE054634
:10134000042D49D120481F498860204888600846FC
:10135000006940F010000861FF2E06D01C480830DC
:101360000680E802FFF77FFE0546042D08D1FF2F17
:1013700006D017480A300780E802FFF774FE0546DA
:10138000042D0AD1B8F1FF0F07D011480C30A0F896
:101390000080E802FFF767FE0546042D0AD1B9F187
:1013A000FF0F07D00A480E30A0F80090E802FFF7C0
:1013B0005AFE0546052D0FD00248006941F6EF712F
:1013C000084007E00020024023016745AB89EFCDCC
:1013D00000F8FF1F664908612846BDE8F08330B574
:1013E000054604244FF43020FFF73DFE0446042C4C
:1013F00041D160485E4988605F488860084600695E
:1014000040F0200008610846006940F04000086193
:101410004FF43020FFF727FE0446042C22D1544815
:10142000006941F6DF7108405149086108460069CA
:1014300040F0100008611DB100205049088002E012
:10144000A5204E4908804FF43020FFF70CFE0446DB
:10145000052C10D04648006941F6EF710840444918
:10146000086108E0052C06D04148006941F6DF71AB
:1014700008403F490861204630BDF0B505460E469C
:10148000174604243B483A4988603B488860E0029C
:10149000FFF7E9FD0446042C19D13548006940F0F6
:1014A00010003349086147F0F800304328433349BE
:1014B000891C0880E002FFF7D6FD0446052C06D003
:1014C0002B48006941F6EF71084029490861204620
:1014D000F0BD2748C069800870472548006A7047FA
:1014E00000202349096801F0200109B1012000E032
:1014F0000020704729B11E4A126902431C4B1A6131
:1015000004E01B4A12698243194B1A617047014675
:101510000020012908D1164AD26902F001020AB15D
:10152000012008E0002006E0114AD2680A400AB112
:10153000012000E0002070470D49C860704704207A
:101540000B49C96801F0010109B101200EE0084909
:10155000C96801F0040109B1022007E00449C96823
:1015600001F0100109B1032000E0042070470000E1
:101570000020024023016745AB89EFCD00F8FF1F33
:1015800010B50446FE48844208D10121C014FFF77B
:10159000ACF80021E014FFF7A8F8C4E0B4F1804FE4
:1015A00008D101210846FFF7ADF800210120FFF71F
:1015B000A9F8B8E0F348844208D101210220FFF7DE
:1015C000A1F800210220FFF79DF8ACE0EE4884422C
:1015D00008D101210420FFF795F800210420FFF72E
:1015E00091F8A0E0E948844208D101210820FFF7E2
:1015F00089F800210820FFF785F894E0E448844248
:1016000008D101211020FFF77DF800211020FFF7FD
:1016100079F888E0DF48844208D101212020FFF7D3
:1016200071F800212020FFF76DF87CE0DA48844251
:1016300008D101214014FFF758F800216014FFF78A
:1016400054F870E0D548844209D10121C804FFF75D
:101650004CF800214FF40020FFF747F863E0D04832
:10166000844209D101210805FFF73FF800214FF41A
:101670008010FFF73AF856E0CA48844209D10121A8
:101680004805FFF732F800214FF40010FFF72DF85E
:1016900049E0C548844208D101214020FFF732F8D3
:1016A00000214020FFF72EF83DE0C048844208D1D9
:1016B00001218020FFF726F800218020FFF722F883
:1016C00031E0BB48844208D101218015FFF71AF8A8
:1016D0000021A015FFF716F825E0B648844209D18D
:1016E00001210804FFF701F800214FF48030FEF7D4
:1016F000FCFF18E0B048844209D101214804FEF7FC
:10170000F4FF00214FF40030FEF7EFFF0BE0AB4891
:10171000844208D101218804FEF7E7FF00214FF43D
:101720008020FEF7E2FF10BD00220288944B984211
:101730000ED0994B98420BD0B0F1804F08D0914B0E
:10174000984205D0904B984202D0904B984204D1D9
:101750004FF68F731A404B881A438D4B984207D02F
:101760008C4B984204D04FF6FF431A40CB881A4363
:1017700002808B8883850B880385814B98420BD030
:10178000854B984208D08B4B984205D08A4B9842A3
:1017900002D08A4B984201D10B7A038601238382BF
:1017A000704770B5002400220023058C4FF6FE76AA
:1017B00035400584028C8388048B4FF68F752C404E
:1017C000B51E2C400D882C43751E2A400D892A43D6
:1017D0004D882A436A4DA8420BD06F4DA84208D0CD
:1017E000744DA84205D0744DA84202D0734DA84252
:1017F00013D14FF6F7752A404D892A434FF6FB75F2
:101800002A408D882A434FF6FF652B404FF6FF553F
:101810002B408D892B43CD892B4383800483CD8836
:101820008586028470BD70B5002400220023058CDB
:101830004FF6EF7635400584028C8388048B48F69A
:10184000FF752C404FF6FF452C400D884FF6FF7674
:1018500006EA05252C434FF6DF752A400D8906EA76
:1018600005152A434D8806EA05152A43444DA8422A
:1018700002D0494DA8421DD14FF67F752A404D89AF
:101880004FF6FF7606EA05152A434FF6BF752A4044
:101890008D8806EA05152A434FF6FF352B404FF297
:1018A000FF752B408D8906EA85052B43CD8906EA15
:1018B00085052B4383800483CD880587028470BD12
:1018C00070B5002400220023058C4FF6FF663540DA
:1018D0000584028C8388848B4FF68F752C404FF6DD
:1018E000FC752C400D882C434FF6FF552A400D897E
:1018F0004FF6FF7606EA05252A434D8806EA0525B8
:101900002A431F4DA84202D0234DA8421DD14FF2B9
:10191000FF752A404D894FF6FF7606EA05252A43D2
:101920004FF6FF352A408D8806EA05252A434EF6F4
:10193000FF752B404DF6FF752B408D8906EA051586
:101940002B43CD8906EA05152B4383808483CD88FC
:101950008587028470BD70B5002200230024058CA9
:101960004EF6FF7635400584038C8488828B48F6DA
:10197000FF752A404FF6FF452A400D8820E0000001
:10198000002C01400004004000080040000C004012
:10199000001000400014004000340140004C0140A1
:1019A000005001400054014000180040001C00405D
:1019B0000020004000400140004401400048014038
:1019C0004FF6FF7606EA05252A434DF6FF752B40B4
:1019D0000D8906EA05352B434D8806EA05352B436C
:1019E000FA4DA84202D0FA4DA84208D14BF6FF7535
:1019F0002C408D894FF6FF7606EA85152C438480AE
:101A00008283CD88A0F84050038470BD828B4FF252
:101A1000FF331A408283828B4FF6FF7303EA012360
:101A20001A4382837047F0B50C4615460022002108
:101A30000026078C4EF6FF7C07EA0C070784828B92
:101A4000018C4FF6FF7707EA043640F6FF473A402D
:101A50004FF6FF7707EA05273A434FF6FF7707EA85
:101A600003373A43D94FB8420ED0D94FB8420BD0C2
:101A7000B0F1804F08D0D74FB84205D0D64FB8420A
:101A800002D0D64FB84206D14DF6FF77394046F422
:101A90008057394305E047F6FF57394044F48057F3
:101AA000394382830184F0BD828B4FF6F3731A4071
:101AB0008283828B0A4382837047F0B50C461546B9
:101AC000002200210026078C4FF6FF6C07EA0C0766
:101AD0000784828B018C4FF6FF7707EA04264FF6C6
:101AE0000C773A404FF6FF7707EA03172F433A4344
:101AF000B64FB8420ED0B64FB8420BD0B0F1804FBF
:101B000008D0B44FB84205D0B34FB84202D0B34F5B
:101B1000B84206D14FF6FF57394046F48077394333
:101B200005E04FF2FF57394044F480773943828310
:101B30000184F0BD028B4FF2FF331A400283028B07
:101B40004FF6FF7303EA01231A4302837047F0B58F
:101B50000C461546002200210026078C4FF6EF7C2C
:101B600007EA0C070784028B018C4FF6FF7707EA20
:101B7000041640F6FF473A404FF6FF7707EA03376F
:101B80003A434FF6FF7707EA05273A438F4FB842AB
:101B90000ED08F4FB8420BD0B0F1804F08D08D4F90
:101BA000B84205D08C4FB84202D08C4FB84206D113
:101BB0004FF6DF77394046F01007394305E04FF61E
:101BC0005F77394044F01007394302830184F0BD48
:101BD000028B4FF6F3731A400283028B0A4302838F
:101BE0007047F0B50C46154600220021068C4FF6D2
:101BF000FE773E400684028B018C4FF60C76324015
:101C00007E1C06EA03162E433243704EB0420ED0BD
:101C10006F4EB0420BD0B0F1804F08D06D4EB04245
:101C200005D06D4EB04202D06C4EB04206D14FF698
:101C3000FD76314044F00106314305E04FF6F5767C
:101C4000314044F00106314302830184F0BD70B598
:101C500005460C465D4885420ED05D4885420BD056
:101C6000B5F1804F08D05B48854205D05A4885427F
:101C700002D05A48854200D100E000BF208850B908
:101C80002389A28861882846FFF7ABFFE1882846B0
:101C9000FFF79EFF25E0208804280AD12389A28827
:101CA00061882846FFF753FFE1882846FFF742FF87
:101CB00017E0208808280AD12389A288618828464D
:101CC000FFF7FBFEE1882846FFF7EEFE09E02389D7
:101CD000A28861882846FFF7A6FEE1882846FFF71C
:101CE00095FE70BD2DE9F04105460C460026012702
:101CF000608808B9022600E00026A088012801D1EA
:101D0000022700E001272088A0B92389A2886188E2
:101D10002846FFF766FFE1882846FFF759FF238929
:101D20003A4631462846FFF712FFE1882846FFF77A
:101D300001FF13E02389A28861882846FFF707FF87
:101D4000E1882846FFF7F6FE23893A4631462846C1
:101D5000FFF747FFE1882846FFF73AFFBDE8F0812B
:101D60000A884B881A438B881A43CB881A430B89FD
:101D70001A434B891A438B891A43A0F844207047B1
:101D80004FF6FF71818000210180C1804180017286
:101D900070470021018041808180C18001814181A3
:101DA0008181C181704700210180418001218180B2
:101DB0000021C18001817047002101804180818024
:101DC000C18001814181818170470000002C014068
:101DD000003401400004004000080040000C0040B6
:101DE00021B1028842F00102028004E002884FF62D
:101DF000FE731A400280704731B1B0F8442042F4BB
:101E00000042A0F8442005E0B0F84420C2F30E02DE
:101E1000A0F8442070471AB183890B43838102E004
:101E200083898B43838170478182704741EA020333
:101E3000A0F8483070471AB183890B43838102E0D0
:101E400083898B438381704701894FF6F872114073
:101E5000018170470A46002101894FF68F731940AE
:101E600011430181704730B504460D46294620468E
:101E7000FFF7F0FF208940F00700208130BD2DE9F9
:101E8000F04104460D4616461F46602D06D13B46DE
:101E9000012231462046FFF75AFE05E03B4601226B
:101EA00031462046FFF79DFE29462046FFF7D2FF28
:101EB000208940F007002081BDE8F08130B50C4654
:101EC00000210189C9B24FF6FF7505EA03251543C4
:101ED00025432943018130BD2DE9F04105460E46D9
:101EE00017469846002443463A4631462846FFF7AF
:101EF000E5FF2C894FF6F870044044F007044FF6D4
:101F00008F70044044F070042C81BDE8F081F0B57E
:101F100004460D4616461F463B4632462946204695
:101F2000FFF7CCFF208940F480402081F0BD01857F
:101F3000828270470A46002101884FF68F7319404C
:101F4000114301807047F0B50C4615461E4600212E
:101F5000002200230189028B038C4FF6F877394069
:101F600021434FF6FC473A4040F201173A434FF6FF
:101F7000DD773B404FF6FF7707EA06172F433B43D9
:101F8000018102830384F0BD0A460021018B4FF6D4
:101F90008F7319401143018370470A460021018B5A
:101FA00048F6FF7319404FF6FF7303EA0223194303
:101FB000018370470A460021818B4FF68F731940C9
:101FC0001143818370470A460021818B48F6FF73D5
:101FD00019404FF6FF7303EA0223194381837047C8
:101FE00021B1028842F08002028004E002884FF6AC
:101FF0007F731A400280704721B1828842F0040248
:10200000828004E082884FF6FB731A40828070471A
:1020100021B1828842F00802828004E082884FF673
:10202000F7731A408280704721B1828842F0010222
:10203000828004E082884FF6FE731A4082807047E7
:102040000A460021018B4FF6F773194011430183B3
:1020500070470A460021018B4FF2FF7319404FF67B
:10206000FF7303EA02231943018370470A460021E4
:10207000818B4FF6F77319401143818370470A46ED
:102080000021818B4FF2FF7319404FF6FF7303EA73
:1020900002231943818370470A460021018B4FF6C2
:1020A000FB7319401143018370470A460021018BDD
:1020B0004FF6FF3319404FF6FF7303EA022319432B
:1020C000018370470A460021818B4FF6FB7319404C
:1020D0001143818370470A460021818B4FF6FF33FD
:1020E00019404FF6FF7303EA0223194381837047B7
:1020F0000A460021018B4FF67F731940114301837B
:1021000070470A460021018BC1F30E014FF6FF73A1
:1021100003EA02231943018370470A460021818B99
:102120004FF67F7319401143818370470A4600219F
:10213000818BC1F30E014FF6FF7303EA02231943AB
:10214000818370470A460021018C4FF6FD731940C8
:102150001143018470470A460021018C4FF6F77342
:1021600019401143018470470A460021018C4FF643
:10217000DF7319404FF6FF7303EA0213194301841A
:1021800070470A460021018C4FF67F7319404FF6C5
:10219000FF7303EA02131943018470470A460021C2
:1021A000018C4FF6FF5319404FF6FF7303EA0223E9
:1021B0001943018470470A460021018C4FF2FF73D6
:1021C00019404FF6FF7303EA022319430184704755
:1021D0000A460021018C4DF6FF7319404FF6FF733C
:1021E00003EA023319430184704730B50023012408
:1021F0008C40A3B2048C9C430484048C02FA01F545
:10220000ADB22C43048430BD30B5002304248C408F
:10221000A3B2048C9C430484048C02FA01F5ADB291
:102220002C43048430BD70B50346002000241846BA
:10223000183001258D40ACB21D8CA5431D8409B119
:10224000082909D100EB6100056825F070050560DB
:102250000568154305600EE00D1FC5F34E052844C3
:10226000056825F4E045056005684FF6FF7606EA47
:1022700002263543056070BD21B1028842F002029A
:10228000028004E002884FF6FD731A400280704716
:1022900021B1028842F00402028004E002884FF675
:1022A000FB731A400280704721B1828842F080029D
:1022B000828004E082884FF67F731A4082807047E4
:1022C00002884FF6F7731A40028002880A430280A0
:1022D000704782884FF68F731A40828082880A4343
:1022E0008280704702894FF6F8731A400281028992
:1022F0000A430281704702894FF67F731A400281B8
:1023000002890A4302817047818470478185704742
:10231000818670470187704781877047A0F8401019
:10232000704702884FF6FF431A40028002880A4332
:10233000028070470146888E70470146088F7047BB
:102340000146888F70470146B1F84000704701464A
:10235000888C70470146088D704702460020138A1A
:102360000B400BB1012000E000207047CA430282FD
:10237000704730B50246002000230024158A05EA84
:102380000103958905EA010413B10CB1012000E0B5
:10239000002030BDCA4302827047000010B50446D9
:1023A000FA48844208D101214015FEF79EF9002128
:1023B0006015FEF79AF917E0F548844208D101212B
:1023C0000015FEF792F900212015FEF78EF90BE0BB
:1023D000F048844208D10121C803FEF786F90021A4
:1023E0004FF40040FEF781F910BD30B502460020E1
:1023F00000235068E84C20400D790C6844EA05241D
:10240000204350609068E54C2040D1E902542C43B1
:102410004D7944EA450420439060D06A20F470006E
:102420000C7C641EE4B2234340EA0350D06230BD0A
:1024300000210160017141718160C160012101745D
:10244000704721B1826842F00102826003E0826835
:1024500022F001028260704721B1826842F48072EA
:10246000826003E0826822F480728260704710B557
:102470000023CBB21AB144681C43446002E04468B4
:102480009C43446010BD816841F008018160704741
:10249000014600208A6802F008020AB1012000E02B
:1024A00000207047816841F0040181607047014657
:1024B00000208A6802F004020AB1012000E0002036
:1024C000704721B1826842F4A002826003E0826812
:1024D00022F4A00282607047014600208A6802F45C
:1024E00080020AB1012000E00020704710B50A46C2
:1024F00000210023416821F46041531E41EA433129
:10250000416010BD21B1426842F40062426003E0C4
:10251000426822F4006242607047F0B504460D46FE
:1025200000200021092D11DDE068A5F10A0606EB67
:102530004607072606FA07F18843A5F10A0606EBC7
:10254000460603FA06F10843E0600CE0206905EB5B
:102550004507072606FA07F1884305EB450603FA07
:1025600006F108432061072A0FDA606B561E06EB5E
:1025700086071F2606FA07F18843561E06EB8606D5
:1025800005FA06F10843606322E00D2A0FDA206B9A
:10259000D61F06EB86071F2606FA07F18843D61FCB
:1025A00006EB860605FA06F10843206310E0E06AB0
:1025B000A2F10D0606EB86071F2606FA07F18843EF
:1025C000A2F10D0606EB860605FA06F10843E06265
:1025D000F0BD21B1826842F48012826003E082681B
:1025E00022F48012826070470146C86C80B2704746
:1025F00066484C300068704721B1426842F48062FE
:10260000426003E0426822F480624260704721B178
:10261000426842F48052426003E0426822F48052F1
:10262000426070470A460021816821F4E04111436D
:102630008160704721B1826842F40042826003E009
:10264000826822F400428260704721B1826842F4BD
:102650000212826003E0826822F4021282607047F4
:10266000014600208A6802F400120AB1012000E04D
:1026700000207047F0B504461546002000220026D1
:10268000092911DDE068A1F10A0707EB470C0727CC
:1026900007FA0CF29043A1F10A0707EB470703FA88
:1026A00007F21043E0600CE0206901EB410C0727C2
:1026B00007FA0CF2904301EB410703FA07F21043CB
:1026C0002061A06BC0F30156EF1C06F1010CA7EBD3
:1026D0000C0707EB870C1F2707FA0CF29043EF1C3F
:1026E00006F1010CA7EB0C0707EB870701FA07F2CD
:1026F0001043A063F0BD10B50A4600210023816B92
:1027000021F44011531E41EA0351816310BD08B505
:10271000002300930090009B0B440093009B1A60E1
:1027200008BD08B5024600200090009201F1280083
:10273000009B184400900098006880B208BD0A46CB
:1027400000214168164B19401143416070474162B6
:10275000826270470A460021416821F01F0111433F
:102760004160704740B109490831096841F40001EE
:10277000064A0832116007E004490831096821F46B
:102780000001024A08321160704700000024014035
:1027900000280140003C0140FFFEF0FFFDF7F1FF83
:1027A000FFFD3FFF0246002013680B400BB10120E4
:1027B00000E000207047CA430260704770B50246CF
:1027C0000020002300240B125568CEB205EA06044F
:1027D00015681D4015B10CB1012000E0002070BD4E
:1027E00000220A12D34303607047000001684FF6CD
:1027F000FE72114001600021016041608160C16092
:102800008D49884208D18C490839496841F00F0147
:10281000894A083A51608AE087491431884208D1D0
:1028200085490839496841F0F001834A083A516006
:102830007DE081492831884208D17F4908394968BB
:1028400041F470617C4A083A516070E07A493C3149
:10285000884208D178490839496841F47041764A7C
:10286000083A516063E074495031884208D1724996
:102870000839496841F470216F4A083A516056E0BE
:102880006D496431884208D16B490839496841F47F
:102890007001694A083A516049E0674978318842D5
:1028A00008D165490839496841F07061624A083ABF
:1028B00051603CE06149884206D1011F096841F03E
:1028C0000F01021F116032E05C491431884208D1C7
:1028D0005A49091F096841F0F001584A121F116056
:1028E00025E056492831884208D15449091F096812
:1028F00041F47061514A121F116018E04F493C3198
:10290000884208D14D49091F096841F470414B4A7A
:10291000121F11600BE049495031884207D14749E5
:10292000091F096841F47021444A121F1160704761
:1029300010B50022026847F6F0739A430C6A8B6860
:1029400023430C6923434C6923438C692343CC699B
:1029500023434C6A23438C6A23431A430260CB68A7
:1029600043600B6883604B68C36010BD0021016049
:1029700041608160C160016141618161C161016249
:1029800041628162704721B1026842F00102026037
:1029900004E002684FF6FE731A40026070471AB1F5
:1029A00003680B43036002E003688B4303607047D6
:1029B000416070470146486880B270470146002078
:1029C000002201F080531BB11C4B083B1A6802E047
:1029D000194B083B1A6802EA01030BB1012000E021
:1029E0000020704700F0805119B11449091F086098
:1029F00002E0114908394860704701460020002272
:102A000001F080531BB10D4B083B1A6802E00A4BE2
:102A1000083B1A6802EA01030BB1012000E0002024
:102A2000704700F0805119B10449091F086002E0A5
:102A30000149083948607047080002400804024014
:102A400010B501214807FDF75DFE00214FF0005051
:102A5000FDF758FE10BD30B5002200237B4C2268E4
:102A600040F6FE748440A243D1E900452C438D68B2
:102A70002C43CD6844EA050303FA00F42243734C67
:102A8000226030BD0021016041608160C1607047FB
:102A900039B16E4A1268012383401A436B4B1A60A6
:102AA00006E06A4A1268012383409A43674B1A6022
:102AB000704710B53AB1654B1B6801FA00F4234327
:102AC000624C236006E0614B1B6801FA00F4A343EB
:102AD0005E4C236010BD41B15C4A12684FF48053D4
:102AE00083401A43594B1A6007E0584A12684FF462
:102AF000805383409A43554B1A60704710B551B1CB
:102B0000524A121D126804090123A3401A434F4B75
:102B10001B1D1A6009E04D4A121D126804090123A9
:102B2000A3409A43494B1B1D1A6010BD40B1474951
:102B3000091D096841F00301444A121D116007E0B4
:102B40004249091D096821F00301404A121D116024
:102B5000704710B53AB13D4B1B6801FA00F42343AE
:102B60003A4C236006E0394B1B6801FA00F4A3439A
:102B7000364C236010BD08B500220092334A009203
:102B800000F10802009B1A440092009A116008BDEF
:102B900008B5002200922D4A009200F11402009B19
:102BA0001A440092009A116008BD30B50024002339
:102BB000082802D142EA012401E042EA0144234B01
:102BC00000F120052B441C6030BD08B501460020F3
:102BD00000901E4800902C2000EB9100009A1044B9
:102BE00000900098006880B208BD10B50246002031
:102BF000164B34331B6801FA02F423400BB1012059
:102C000000E0002010BD01FA00F2104B34331A60CE
:102C1000704730B50246002000230C4C246801FAAE
:102C200002F504EA0503094C3434246801FA02F57C
:102C30002C4014B10BB1012000E0002030BD01FA9E
:102C400000F2024B34331A607047000000740040F9
:102C50000E49086070470D49486070470B4988600D
:102C600070474AF6AA200949086070474CF6CC40E4
:102C700006490860704701460020044AD2680A40AD
:102C80000AB1012000E00020704700000030004041
:102C900010B501210807FDF735FD00214FF08050E8
:102CA000FDF730FD10BD2A490862704728490861C8
:102CB000704701460020274A106820F0E0000843D2
:102CC000106070472249A0310860704710B5024675
:102CD0000020204B186820F00300104318601E4BA2
:102CE0001B6843F004031C4C2360012901D130BF51
:102CF00000E020BF184B1B6823F00403164C236030
:102D000010BD1448006840F00400124908600846ED
:102D1000006840F0020008600F48006840F00400BE
:102D20000D49086000BF00BF30BF7047014600205A
:102D3000084A52680A400AB1012000E000207047AA
:102D40000449096841EA8001024A116070470000A5
:102D500000000E420070004010ED00E0704700BF20
:102D6000FEE700BFFEE700BFFEE700BFFEE77047DB
:102D7000704770477047704770470000FE48807882
:102D8000FE490870FC4800794870FB4880798870DB
:102D9000F948007AC870F848807A0871F648007BD4
:102DA0004871F548807B8871F348007CC871704792
:102DB000012825D1F2490978332910D1EE49097E3D
:102DC000EE4A1170EC4991F822105170EA4991F8DD
:102DD0002E109170E84991F84E10D17037E0E64915
:102DE000097EE64A1170E44991F822105170E249D7
:102DF00091F82E109170E04991F82C10D17026E0D6
:102E0000022811D1DC4991F82A10DC4A1170DA4904
:102E100091F836105170D84991F824109170D64924
:102E200091F83610D17012E0032810D1D24991F8F0
:102E30002A10D24A1170D04991F828105170CE4909
:102E400091F838109170CC4991F82C10D170CA4982
:102E500091F82C10C94A1171C74991F82C10517181
:102E6000C54991F82C109171C34991F82C10D1717A
:102E70007047C14890F82C00C0490870BE4890F8CF
:102E80002C004870BC4890F82C008870BA4890F824
:102E90002C00C870B84890F82C000871B64890F81B
:102EA0002C004871B44890F82C008871B24890F812
:102EB0002C00C87170470146002004E00A22B1FBD3
:102EC000F2F1421CD0B20029F8D1704770B5044627
:102ED0000B461846FFF7EFFF05462046FFF7EBFFCE
:102EE00006460A2093FBF0F100FB1130A24911F8CD
:102EF0001000A2490870022D0DDB0A2093FBF0F0B0
:102F00000A2190FBF1F201FB12009B4911F810001D
:102F10009A49487004E0984890F82C009749487006
:102F2000032D0DDB642093FBF0F00A2190FBF1F2FE
:102F300001FB1200904911F810009049887004E0DC
:102F40008D4890F82C008D498870042D0EDB4FF4CD
:102F50007A7093FBF0F00A2190FBF1F201FB120072
:102F6000854911F810008549C87004E0824890F83E
:102F70002C008249C8700A2094FBF0F100FB11403C
:102F80007D4911F810007D490871022E0DDB0A20E1
:102F900094FBF0F00A2190FBF1F201FB120076495C
:102FA00011F810007549487104E0734890F82C003E
:102FB00072494871032E0DDB642094FBF0F00A2166
:102FC00090FBF1F201FB12006B4911F810006B4904
:102FD000887104E0684890F82C0068498871042ED4
:102FE0000EDB4FF47A7094FBF0F00A2190FBF1F2C3
:102FF00001FB1200604911F810006049C87104E03B
:103000005D4890F82C005D49C87170BDF0B5074669
:103010000B4614462046FFF74EFF05461846FFF7BD
:103020004AFF06460A2094FBF0F100FB114052498A
:1030300011F8100051490870022D0DDB0A2094FB95
:10304000F0F00A2190FBF1F201FB12004A4911F85D
:1030500010004A49487004E0474890F82C0047495E
:103060004870032D0DDB642094FBF0F00A2190FBE7
:10307000F1F201FB1200404911F810003F4988703D
:1030800004E03D4890F82C003C498870042D0EDB8C
:103090004FF47A7094FBF0F00A2190FBF1F201FBFF
:1030A0001200354911F810003449C87004E0324864
:1030B00090F82C003149C870002F4AD00A2093FBA9
:1030C000F0F100FB11302C4911F810002B49087168
:1030D000022E0DDB0A2093FBF0F00A2190FBF1F2A7
:1030E00001FB1200244911F810002449487104E042
:1030F000214890F82C0021494871032E0DDB6420F3
:1031000093FBF0F00A2190FBF1F201FB12001A4947
:1031100011F810001949887104E0174890F82C0044
:1031200016498871042E0EDB4FF47A7093FBF0F091
:103130000A2190FBF1F201FB12000F4911F8100077
:103140000E49C87116E00C4890F82C000B49C87164
:1031500010E0094890F82C0008490871064890F8DA
:1031600036004871044890F834008871024890F89D
:103170002C00C871F0BD0000288D0008DC01002083
:103180003C010020F0B507460B4614462046FFF7E9
:1031900092FE05461846FFF78EFE06460A2094FB6F
:1031A000F0F100FB1140FD4911F81000FC490870D6
:1031B000022D0DDB0A2094FBF0F00A2190FBF1F2C6
:1031C00001FB1200F54911F81000F549487004E0C0
:1031D000F24890F82C00F2494870032D0DDB642072
:1031E00094FBF0F00A2190FBF1F201FB1200EB4995
:1031F00011F81000EA49887004E0E84890F82C00C3
:10320000E7498870042D0EDB4FF47A7094FBF0F0E0
:103210000A2190FBF1F201FB1200E04911F81000C5
:10322000DF49C87004E0DD4890F82C00DC49C87024
:10323000002F4AD00A2093FBF0F100FB1130D74950
:1032400011F81000D6490871022E0DDB0A2093FBFD
:10325000F0F00A2190FBF1F201FB1200CF4911F8C6
:103260001000CF49487104E0CC4890F82C00CC49BC
:103270004871032E0DDB642093FBF0F00A2190FBD4
:10328000F1F201FB1200C54911F81000C449887120
:1032900004E0C24890F82C00C1498871042E0EDB6E
:1032A0004FF47A7093FBF0F00A2190FBF1F201FBEE
:1032B0001200BA4911F81000B949C87116E0B748B0
:1032C00090F82C00B649C87110E0B44890F82C0072
:1032D000B3490871B14890F822004871AF4890F89E
:1032E0002E008871AD4890F82C00C871F0BDAB4934
:1032F00091F82C10AA4A1170A84991F82C1051701D
:10330000A64991F82C109170A44991F82C10D17015
:1033100080B1A24991F824101171A04991F82210AE
:1033200051719E4991F8201091719C4991F82E108D
:10333000D1710FE0994991F82410994A1171974978
:1033400091F822105171954991F82010917193498B
:10335000897ED171704710B503461846FFF7ABFD63
:1033600004460A2093FBF0F100FB11308B4911F861
:1033700010008B490870022C0DDB0A2093FBF0F043
:103380000A2190FBF1F201FB1200844911F81000B0
:103390008349487004E0814890F82C0080494870C7
:1033A000032C0DDB642093FBF0F00A2190FBF1F27B
:1033B00001FB1200794911F810007949887004E086
:1033C000764890F82C0076498870042C0EDB4FF478
:1033D0007A7093FBF0F00A2190FBF1F201FB1200EE
:1033E0006E4911F810006E49C87004E06B4890F8FF
:1033F0002C006B49C870694890F82C006849087126
:10340000664890F826004871644890F8300088714A
:103410006248007EC87110BD6049097E604A117122
:103420005E4991F82A1051715C49097F91715B499D
:10343000897ED17168B15949097D11705749097F59
:103440005170564991F8381091705449097DD170E6
:103450000FE0524991F82C10514A11704F49897E62
:1034600051704E4991F82A1091704C4991F82810EA
:10347000D170704710B503461846FFF71CFD04468F
:103480000A20B3FBF0F100FB1130444911F81000A1
:1034900043490870022C0DDB0A20B3FBF0F00A212F
:1034A000B0FBF1F201FB12003C4911F810003C495D
:1034B000487004E0394890F82C0039494870032CD2
:1034C0000DDB6420B3FBF0F00A21B0FBF1F201FB4D
:1034D0001200324911F810003149887004E02F4879
:1034E00090F82C002E498870042C0EDB4FF47A7073
:1034F000B3FBF0F00A21B0FBF1F201FB1200274907
:1035000011F810002649C87004E0244890F82C00F7
:103510002349C870052C0EDB42F21070B3FBF0F0AB
:103520000A21B0FBF1F201FB12001C4911F8100056
:103530001B49087104E0194890F82C0018490871DB
:10354000164890F8260016494871144890F828004B
:103550008871124890F82C00C87110BD10B5034650
:103560001846FFF7A8FC04460A20B3FBF0F100FB65
:1035700011300A4911F8100009490870022C11DBBA
:103580000A20B3FBF0F00A21B0FBF1F201FB1200BC
:10359000024911F810000249487008E0288D00081F
:1035A000DC010020F94890F82C00F9494870032C00
:1035B0000DDB6420B3FBF0F00A21B0FBF1F201FB5C
:1035C0001200F24911F81000F149887004E0EF4848
:1035D00090F82C00EE498870042C0EDB4FF47A70C2
:1035E000B3FBF0F00A21B0FBF1F201FB1200E74956
:1035F00011F81000E649C87004E0E44890F82C0087
:10360000E349C870052C0EDB42F21070B3FBF0F0FA
:103610000A21B0FBF1F201FB1200DC4911F81000A5
:10362000DB49087104E0D94890F82C00D8490871AA
:10363000D64890F82600D6494871D44890F828001A
:103640008871D248807FC87110BDD04890F846007C
:10365000CF490870CD4890F846004870CB4890F8A4
:1036600046008870C94890F84600C870C94800787C
:1036700088B1C648807F0871C448807F4871C348BC
:1036800090F822008871C14890F82A00C871002083
:10369000C049087013E0BD4890F82C00BC4908717F
:1036A000BA4890F82C004871B84890F82C008871FE
:1036B000B64890F82C00C8710120B64908707047D0
:1036C000B24890F84600B2490870B04890F84600F9
:1036D0004870AE4890F846008870AC4890F84600B4
:1036E000C870AD48007880B1A848807E0871A748AE
:1036F000807F4871A548807F8871A44890F8220097
:10370000C8710020A449087013E0A04890F82C006C
:103710009F4908719D4890F82C0048719B4890F88B
:103720002C008871994890F82C00C87101209A49A2
:103730000870704730B503460D461846FFF7BBFBCF
:103740000446002D66D09548007800284DD00A2008
:1037500093FBF0F100FB11308C4911F810008C49FB
:103760000870022C0DDB0A2093FBF0F00A2190FB7D
:10377000F1F201FB1200854911F8100084494870EC
:1037800004E0824890F82C0081494870032C0DDB3E
:10379000642093FBF0F00A2190FBF1F201FB120090
:1037A0007A4911F810007A49887004E0774890F857
:1037B0002C0077498870042C0EDB4FF47A7093FB51
:1037C000F0F00A2190FBF1F201FB12006F4911F8B1
:1037D00010006F49C87004E06C4890F82C006C49E8
:1037E000C87000206D4908705EE0684890F82C00B1
:1037F00067490870654890F82C004870634890F855
:103800002C008870614890F82C00C8700120634932
:10381000087049E00A2093FBF0F100FB11305B498E
:1038200011F810005A490870022C0DDB0A2093FB96
:10383000F0F00A2190FBF1F201FB1200534911F85C
:1038400010005349487004E0504890F82C0050494B
:103850004870032C0DDB642093FBF0F00A2190FBF1
:10386000F1F201FB1200494911F810004849887033
:1038700004E0464890F82C0045498870042C0EDB83
:103880004FF47A7093FBF0F00A2190FBF1F201FB08
:1038900012003E4911F810003D49C87004E03B4851
:1038A00090F82C003A49C8703848807E3849087131
:1038B0003648807F48713548807F8871334890F85A
:1038C0002200C87130BD314890F846003049087078
:1038D0002E4890F8460048702C4890F846008870B2
:1038E0002A4890F84600C8702D48007890B12748C3
:1038F000807E0871254890F820004871234890F890
:1039000024008871214890F82200C87100202449C1
:10391000087013E01D4890F82C001D4908711B48E1
:1039200090F82C004871194890F82C0088711748BD
:1039300090F82C00C871012019490870704730B503
:1039400003460D461846FFF7B6FA0446002D75D01B
:103950001448007800285BD00A2093FBF0F100FBAC
:1039600011300A4911F8100009490870022C1BDBBC
:103970000A2093FBF0F00A2190FBF1F201FB120008
:10398000024911F810000249487012E0288D000821
:10399000DC01002038000020390000203A0000201F
:1039A0003B0000203C000020FE4890F82C00FE491F
:1039B0004870032C0DDB642093FBF0F00A2190FB90
:1039C000F1F201FB1200F74911F81000F649887076
:1039D00004E0F44890F82C00F3498870042C0EDBC6
:1039E0004FF47A7093FBF0F00A2190FBF1F201FBA7
:1039F0001200EC4911F81000EB49C87004E0E948E6
:103A000090F82C00E849C8700020E84908705FE091
:103A1000E44890F82C00E4490870E24890F82C0043
:103A20004870E04890F82C008870DE4890F82C0030
:103A3000C8700120DD4908704AE0FFE70A2093FBC7
:103A4000F0F100FB1130D74911F81000D649087089
:103A5000022C0DDB0A2093FBF0F00A2190FBF1F21F
:103A600001FB1200CF4911F81000CF49487004E063
:103A7000CC4890F82C00CC494870032C0DDB642016
:103A800093FBF0F00A2190FBF1F201FB1200C54913
:103A900011F81000C449887004E0C24890F82C0066
:103AA000C1498870042C0EDB4FF47A7093FBF0F060
:103AB0000A2190FBF1F201FB1200BA4911F8100043
:103AC000B949C87004E0B74890F82C00B649C870EE
:103AD000B448807EB4490871B24890F8200048711B
:103AE000B04890F824008871AE4890F82200C87160
:103AF00030BDAC4890F84600AB490870A94890F832
:103B000046004870A74890F846008870A54890F88D
:103B10004600C870A648007898B1A24890F82A00DC
:103B20000871A04890F8220048719E4890F834002F
:103B300088719C4890F82800C87100209C49087042
:103B400013E0984890F82C0097490871954890F830
:103B50002C004871934890F82C008871914890F897
:103B60002C00C871012092490870704730B5034697
:103B70000D461846FFF79FF90446002D66D08D4884
:103B8000007800284DD00A2093FBF0F100FB1130A3
:103B9000844911F8100084490870022C0DDB0A20BA
:103BA00093FBF0F00A2190FBF1F201FB12007D493A
:103BB00011F810007C49487004E07A4890F82C0015
:103BC00079494870032C0DDB642093FBF0F00A2147
:103BD00090FBF1F201FB1200724911F810007249DA
:103BE000887004E06F4890F82C006F498870042CAE
:103BF0000EDB4FF47A7093FBF0F00A2190FBF1F2A8
:103C000001FB1200674911F810006749C87004E011
:103C1000644890F82C006449C87000206549087019
:103C20005EE0604890F82C005F4908705D4890F8AD
:103C30002C0048705B4890F82C008870594890F828
:103C40002C00C87001205B49087049E00A2093FBF2
:103C5000F0F100FB1130534911F81000524908707F
:103C6000022C0DDB0A2093FBF0F00A2190FBF1F20D
:103C700001FB12004B4911F810004B49487004E059
:103C8000484890F82C0048494870032C0DDB64200C
:103C900093FBF0F00A2190FBF1F201FB1200414985
:103CA00011F810004049887004E03E4890F82C005C
:103CB0003D498870042C0EDB4FF47A7093FBF0F0D2
:103CC0000A2190FBF1F201FB1200364911F81000B5
:103CD0003549C87004E0334890F82C003249C87068
:103CE000304890F82A00304908712E4890F8220098
:103CF00048712C4890F8340088712A4890F82800C0
:103D0000C87130BD274890F84600274908702548FB
:103D100090F846004870234890F846008870214883
:103D200090F84600C8702448007888B11D4890F883
:103D30002C0008711B4890F82E0048711948007F2C
:103D400088711848807EC87100201B49087013E0F4
:103D5000144890F82C0014490871124890F82C006F
:103D60004871104890F82C0088710E4890F82C008B
:103D7000C871012010490870704730B503460D46E0
:103D80001846FFF798F80446002D77D00B480078C6
:103D900000285DD00A2093FBF0F100FB11300149AF
:103DA0000EE00000288D0008DC0100203C0000200F
:103DB0003D0000203E0000203F0000204000002089
:103DC00011F81000FE490870022C0DDB0A2093FB4D
:103DD000F0F00A2190FBF1F201FB1200F94911F811
:103DE0001000F749487004E0F64890F82C00F449B8
:103DF0004870032C0DDB642093FBF0F00A2190FB4C
:103E0000F1F201FB1200EF4911F81000EC49887043
:103E100004E0EC4890F82C00E9498870042C0EDB93
:103E20004FF47A7093FBF0F00A2190FBF1F201FB62
:103E30001200E44911F81000E149C87004E0E148BB
:103E400090F82C00DE49C8700020DF4908706EE051
:103E5000DC4890F82C00DA490870DA4890F82C0019
:103E60004870D84890F82C008870D64890F82C00FC
:103E7000C8700120D449087059E0FFE70A2093FB7D
:103E8000F0F100FB1130CF4911F81000CC49087057
:103E9000022C0DDB0A2093FBF0F00A2190FBF1F2DB
:103EA00001FB1200C74911F81000C549487004E031
:103EB000C44890F82C00C2494870032C0DDB6420E4
:103EC00093FBF0F00A2190FBF1F201FB1200BD49D7
:103ED00011F81000BA49887004E0BA4890F82C0034
:103EE000B7498870042C0EDB4FF47A7093FBF0F026
:103EF0000A2190FBF1F201FB1200B24911F8100007
:103F0000AF49C87004E0AF4890F82C00AC49C870C5
:103F1000AC4890F82C00AA490871AA4890F82E00E5
:103F20004871A848007F8871A648807EC87130BD5E
:103F300030B504460B461846FEF7BDFF0546012C7A
:103F40003AD1A04890F82C009D4908709D4890F8FF
:103F50002C0048709B4890F82C008870994890F885
:103F60002C00C8709948007888B19648807808710C
:103F7000944890F82A0048719248007F88719148CF
:103F800090F82800C8710020904908708FE08D4893
:103F900090F82C008A4908718A4890F82C004871E2
:103FA000884890F82C008871864890F82C00C871D9
:103FB0000120864908707AE0022C59D10A20B3FB0F
:103FC000F0F100FB11307F4911F810007C490870B6
:103FD000022D0DDB0A20B3FBF0F00A21B0FBF1F259
:103FE00001FB1200774911F810007549487004E090
:103FF000744890F82C0072494870032D0DDB642042
:10400000B3FBF0F00A21B0FBF1F201FB12006D49A5
:1040100011F810006A49887004E06A4890F82C0092
:1040200067498870042D0EDB4FF47A70B3FBF0F013
:104030000A21B0FBF1F201FB1200624911F81000F5
:104040005F49C87004E05F4890F82C005C49C87074
:104050005C4880785A4908715A4890F82A0048719B
:104060005848007F8871574890F82800C8711EE0B2
:10407000544890F82C0052490870524890F82C008F
:104080004870504890F82C0088704E4890F82C00EA
:10409000C8704C48807808714A4890F82A004871E6
:1040A0004848007F8871474890F82800C87130BDA3
:1040B00070B504460E4613461846FEF7FCFE05464C
:1040C000012C3AD13F4890F82C003D4908703D48FA
:1040D00090F82C0048703B4890F82C0088703948C4
:1040E00090F82C00C8703A48007888B135480079BB
:1040F0000871344890F82A0048713248007F88716E
:10410000304890F82800C8710020314908709AE0C2
:104110002C4890F82C002A4908712A4890F82C0065
:104120004871284890F82C008871264890F82C0097
:10413000C87101202649087085E0022C64D10A204C
:10414000B3FBF0F100FB11301E4911F810001C49BF
:104150000870022D0DDB0A20B3FBF0F00A21B0FB42
:10416000F1F201FB1200174911F8100014494870D0
:1041700004E0144890F82C0011494870032D0DDB21
:104180006420B3FBF0F00A21B0FBF1F201FB120056
:104190000C4911F810000A49887004E0094890F8A9
:1041A0002C0007498870042D19DB4FF47A70B3FB9B
:1041B000F0F00A21B0FBF1F201FB1200014909E025
:1041C000DC010020288D0008400000204100002074
:1041D0004200002011F81000FE49C87004E0FE48BB
:1041E00090F82C00FB49C870FB480079F949087128
:1041F000F94890F82A004871F748007F8871F6481E
:1042000090F82800C8711EE0F34890F82C00F1499E
:104210000870F14890F82C004870EF4890F82C0096
:104220008870ED4890F82C00C870EB480079087150
:10423000E94890F82A004871E748007F8871E6480D
:1042400090F82800C87170BD70B504460E4615463A
:104250004FF40071E148FCF78CFD04464FF4807187
:10426000DE48FCF786FD08B9012000E00020064684
:104270006CB9012E0BD1012D09D1D74890F83C0023
:10428000D54991F83E100843D249087261E0012CEB
:1042900008D13EB9012D05D1CF4890F84200CD4953
:1042A000087256E0012C08D1012E06D12DB9CA485A
:1042B00090F84400C74908724BE084B97CB9012DDD
:1042C0000DD1C54890F83C00C34991F83E10084311
:1042D000C14991F842100843BE49087239E0012CE7
:1042E0000BD154B94DB9BC4890F84200BA4991F885
:1042F00044100843B74908722BE084B9012C0ED151
:104300006DB9B54890F83C00B34991F83E100843A8
:10431000B14991F844100843AE49087219E09CB9BC
:1043200094B98DB9AC4890F83C00AB4991F83E1077
:104330000843A94991F842100843A74991F844104D
:104340000843A449087204E0A34890F82C00A1494E
:10435000087270BDA04890F82C009E4908709E48D5
:1043600090F82C0048709E48007800F0100088B14A
:104370009B48007820F01000994908709648807E8C
:1043800094498870944890F82400C8709248007F3F
:1043900008710AE09048807E8E4988708E4890F8B7
:1043A0002400C8708C48007F08718B4890F82C005E
:1043B00088494871884890F82C008871864890F8A0
:1043C0002C00C8717047844890F82A008149087011
:1043D000814890F8280048707F4890F84E00887017
:1043E0007D48807EC8707C4890F82C0008717A481F
:1043F00090F82C004871784890F82C008871764825
:1044000090F82C00C8717047734890F82A007149E1
:104410000870714890F8360048706F4890F8240092
:1044200088706D4890F83600C8706B4890F82C0082
:104430000871694890F82C004871674890F82C0082
:104440008871654890F82C00C871704770B50446B3
:104450000B461846FEF72FFD05460A20B3FBF0F188
:1044600000FB11305C4911F810005A490870022D08
:104470000DDB0A20B3FBF0F00A21B0FBF1F201FBE7
:104480001200554911F810005249487004E0524892
:1044900090F82C004F494870032D0DDB6420B3FBCE
:1044A000F0F00A21B0FBF1F201FB12004A4911F8C9
:1044B00010004849887004E0474890F82C004549AE
:1044C0008870042D0EDB4FF47A70B3FBF0F00A21F4
:1044D000B0FBF1F201FB12003F4911F810003D4919
:1044E000C87004E03C4890F82C003A49C870042D8C
:1044F0000EDB4FF47A70B3FBF0F00A21B0FBF1F25F
:1045000001FB1200344911F810003249C87004E070
:10451000314890F82C002F49C8702046FEF7CBFC9C
:1045200006460A2094FBF0F100FB11402A4911F8DD
:10453000100028490871022E0DDB0A2094FBF0F0D0
:104540000A2190FBF1F201FB1200234911F810003F
:104550002049487104E0204890F82C001D4948711A
:10456000032E0DDB642094FBF0F00A2190FBF1F2A6
:1045700001FB1200184911F810001649887104E077
:10458000154890F82C00134988711348007D114993
:10459000C87170BD10B503461846FEF78CFC044682
:1045A0000D4890F830000B4908700A2093FBF0F199
:1045B00000FB1130084911F8100006494870022C20
:1045C00016DB0A2093FBF0F00A2190FBF1F201FBCD
:1045D000120007E0DC010020288D000800080140DF
:1045E00049010020A84911F81000A849887004E08A
:1045F000A54890F82C00A5498870A34890F846007B
:10460000A249C870A04890F8380008719E48007F01
:1046100048719D4890F8300088719B4890F82C00B4
:10462000C87110BD984991F82C10984A117196499B
:10463000097E5171944991F8281091719249897EAF
:10464000D17180B1904991F82C1011708E4991F878
:10465000241051708C4991F8221091708A4991F878
:104660002C10D1700EE08849897F884A11708649E4
:10467000897F5170844991F822109170824991F894
:104680002C10D1707047704710B5044604F001003B
:1046900028B1002240217E48FCF789FB04E001227A
:1046A00040217B48FCF783FB04F0020030B100227C
:1046B0004FF480717648FCF77AFB04E00122110286
:1046C0007348FCF774FB04F0040028B100220821B1
:1046D0006F48FCF76CFB04E0012208216C48FCF7F2
:1046E00066FB04F0080030B100224FF40071684806
:1046F000FCF75DFB04E0012251026548FCF757FB23
:1047000004F0100028B1002280216148FCF74FFB23
:1047100004E0012280215E48FCF749FB04F0200000
:1047200028B1002220215A48FCF741FB04E0012275
:1047300020215748FCF73BFB04F0400028B1002241
:1047400010215348FCF733FB04E0012210215048AC
:10475000FCF72DFB10BD00F0010121B14FF4004129
:104760004C4A116004E04FF400414A4A121D1160A6
:1047700000F0020121B14FF48051464A116004E07B
:104780004FF48051434A121D116000F0040121B121
:104790004FF400613F4A116004E04FF400613D4A6C
:1047A000121D116000F0080121B14FF48061394AF7
:1047B000116004E04FF48061364A121D116000F070
:1047C000100121B14FF40051334A116103E04FF45D
:1047D0000051314A516100F0200121B14FF4804174
:1047E0002D4A116103E04FF480412B4A516100F0E2
:1047F000400121B14FF40041274A116103E04FF419
:104800000041254A516100F0800119B10221234A7B
:10481000116003E00221214A121D116000F4807131
:1048200019B101211D4A116003E001211B4A121D2B
:104830001160704710B5154819490978405C19494D
:10484000087019481649097830F811001549486070
:104850000020FFF719FF13494868FFF77CFF114953
:104860000878FFF711FF0F494868FFF774FF0C48FD
:1048700001780078401C0A4A1070082902DB0020E9
:104880001146087010BD0000288D0008DC010020D2
:10489000000C0140100801400010014010140140BC
:1048A0003200002028000020168D000808B5C048FE
:1048B000C0490860001588800D208871002048815B
:1048C0000861C871152008771F2008720C20486104
:1048D00078208861B648B8490860801488800D2027
:1048E0008871002048810861C871152008771F2051
:1048F00008720C20486178208861AD48AF49086093
:104900004FF4804088800D20887100204881086124
:10491000C871152008771F2008720C204861782084
:104920008861A348A6490860401488800D208871DA
:10493000002048810861C871152008771F2008727F
:104940000C2048617820886128208DF8030002201F
:104950008DF8020099488088ADF8000097490868F2
:104960006946FCF773F996488088ADF800009449D1
:1049700008686946FCF76AF98F488088ADF800003E
:104980008D4908686946FCF761F98A488088ADF866
:104990000000884908686946FCF758F908BD817924
:1049A0000D2917D18269016991420AD3212101722F
:1049B000C17951BB002101614189491C09B2418182
:1049C00023E020210172002101614189491C09B2C3
:1049D00041811AE081790B2908D12021017200213F
:1049E00001614189491C09B241810EE081790C299C
:1049F0000BD182690169914207D321210172002103
:104A000001614189491C09B24181704770B5044672
:104A10000025A1882068FCF7ACF90546207F162800
:104A200004D10DB9012070BD0020FCE7207F1528BE
:104A300005D1012D01D10120F5E70020F3E700BFEA
:104A4000F1E710B55C48FFF7E1FF012807D15A48AC
:104A50000069401C584908610120C87106E05648A9
:104A6000FFF7D4FF10B900205349C87152480069BC
:104A700038B15148FFF7CAFF18B94F48FFF78FFF09
:104A80000DE04D4800694C498969884207D94A4878
:104A9000FFF7BCFF012802D14748FFF780FF4548D8
:104AA000FFF7B4FF012807D142480069401C414983
:104AB00008610120C87106E03E48FFF7A7FF10B962
:104AC00000203C49C8713B48006938B13948FFF7BC
:104AD0009DFF18B93748FFF762FF0DE035480069C0
:104AE00034498969884207D93248FFF78FFF012886
:104AF00002D13048FFF753FF3048FFF787FF012806
:104B000007D12E480069401C2C4908610120C8715A
:104B100006E02A48FFF77AFF10B900202749C8713C
:104B20002648006938B12548FFF770FF18B92348B7
:104B3000FFF735FF0DE02148006920498969884267
:104B400007D91E48FFF762FF012802D11B48FFF773
:104B500026FF1B48FFF75AFF012807D118480069B4
:104B6000401C174908610120C87106E01448FFF78E
:104B70004DFF10B900201249C8711148006938B1C1
:104B80000F48FFF743FF18B90D48FFF708FF0DE086
:104B90000B4800690A498969884207D90848FFF724
:104BA00035FF012802D10648FFF7F9FE10BD0000CD
:104BB000000C0140E801002008020020280200202B
:104BC0004802002010B50024F748007800F01000DB
:104BD00038B1F548007820F01000F3490870FEF76E
:104BE00088FF3DE12220F1490870F148C079A0B961
:104BF000F048C07988B9EC48007800F01000C0B1E6
:104C0000E948007820F01000E7490870E749B1F959
:104C100002000121FEF7AAFF0BE0E348007820F034
:104C20001000E1490870E149B1F902000021FEF7E6
:104C30009DFFDF48B0F90A00DF490978884212D0A9
:104C4000DB48007A20280ED1D948807ADA490870EA
:104C50000020D7494881D5484088401C00B2D3493C
:104C6000488001245DE0D248C079012856D1D0485F
:104C7000007A212852D10020CD4948810846006998
:104C8000B0F5C87F17D2084600690A21B0FBF1F2DF
:104C900001FB1200002844D1C8480068012840D117
:104CA000C2484088401C00B2C0494880012400200E
:104CB000C249086035E0BE480069B0F5C87F1BD91D
:104CC000BB480069B0F5487F16D2B9480069052194
:104CD000B0FBF1F201FB1200F8B9B84800680128F6
:104CE0001FD1B2484088401C00B2B049488001241E
:104CF0000020B249086014E00020804211D1AF4882
:104D0000006801280DD1A9484088401C00B2A7497D
:104D1000488001240020A949086002E02020A4491D
:104D20000872A448B0F90A00A349097888420ED055
:104D3000A048007A20280AD100209E4948819B483B
:104D40004088401E00B29949488001245CE099489F
:104D5000C079012855D19748007A212851D10020E7
:104D60009449488108460069B0F5C87F16D20846C4
:104D700000690A21B0FBF1F201FB120070BB8F4801
:104D80000068012840D189484088401E00B2874908
:104D90004880012400208949086035E08548006981
:104DA000B0F5C87F1BD983480069B0F5487F16D29B
:104DB000804800690521B0FBF1F201FB120068B9DF
:104DC0007E48006801281FD178484088401E00B204
:104DD00076494880012400207849086014E00020CA
:104DE000804211D17548006801280DD16F48408874
:104DF000401E00B26D494880012400206F490860C0
:104E000002E020206B4908726848B0F9020042F2C3
:104E10000F71884203DB08466449488007E0634815
:104E2000B0F90200002802DC0020604948805E489A
:104E3000007800F0100098B1012C11D100245A48DC
:104E4000007820F0100058490870584801785C48F4
:104E500001F03EFA5548B0F902105A4801F038FA0C
:104E60005948007A202804D15748408908283FF43F
:104E7000B9AE10BD10B500244B48007800F010000A
:104E800038B14948007820F0100047490870FEF713
:104E90001AFD51E12120454908704548C079A0B963
:104EA0004448C07988B94048007800F01000C0B18B
:104EB0003D48007820F010003B4908703B49B1F9AB
:104EC00002000121FEF73BFD0BE03748007820F09F
:104ED0002000354908703549B1F902000021FEF77C
:104EE0002EFD3348B0F90A0038490978884212D0BB
:104EF0002F48007A20280ED12D48807A3349087037
:104F000000202B49488129484088401C00B227498D
:104F10004880012471E02648C07901286AD12448DC
:104F2000007A212866D1002021494881084600697D
:104F3000B0F5C87F17D2084600690A21B0FBF1F22C
:104F400001FB1200002858D11C480068012854D1E8
:104F500016484088401C00B21449488001240020B3
:104F60001649086049E012480069B0F5C87F2FD99A
:104F70000F480069B0F5487F2AD20D480069052125
:104F8000B0FBF1F201FB120098BB0C48006801284D
:104F900033D106484088401C00B2044948800124AF
:104FA00000200649086028E0490100205400002044
:104FB000280200204802002066000020BC010020DA
:104FC00000940008009800080802002065000020F6
:104FD0000020804211D1FE48006801280DD1FD4813
:104FE0004088401C00B2FB49488001240020F84959
:104FF000086002E02020F8490872F848B0F90A0079
:10500000F749097888420ED0F448007A20280AD15E
:105010000020F2494881EF484088401E00B2ED4927
:10502000488001245CE0ED48C079012855D1EB4867
:10503000007A212851D10020E849488108460069BA
:10504000B0F5C87F16D2084600690A21B0FBF1F21C
:1050500001FB120070BBDE480068012840D1DD482A
:105060004088401E00B2DB49488001240020D84916
:10507000086035E0D9480069B0F5C87F1BD9D7482A
:105080000069B0F5487F16D2D44800690521B0FB0D
:10509000F1F201FB120068B9CD48006801281FD168
:1050A000CC484088401E00B2CA49488001240020F4
:1050B000C749086014E00020804211D1C44800684C
:1050C00001280DD1C3484088401E00B2C149488024
:1050D00001240020BE49086002E02020BF49087278
:1050E000BC48B0F9020042F20F71884203DB084667
:1050F000B849488007E0B748B0F90200002802DC50
:105100000020B4494880B748007800F0100098B1FA
:10511000012C11D10024B348007820F01000B149CF
:105120000870AC480178B04801F0D2F8A948B0F94D
:105130000210AE4801F0CCF8AD48007A202804D126
:10514000AB48408908283FF4A5AE10BD10B5002437
:10515000A448007800F0100038B1A248007820F090
:105160001000A0490870FEF7ABFA52E120209949DF
:1051700008709948C079A0B99848C07988B9994809
:10518000007800F01000C0B19648007820F01000C0
:10519000944908708F49B1F902000121FEF7CAFA5B
:1051A0000BE09048007820F010008E490870894983
:1051B000B1F902000021FEF7BDFA8748B0F90A00F4
:1051C0008C490978884212D08348007A20280ED171
:1051D0008148807A8749087000207F4948817D484E
:1051E0004088401C00B27B49488001245DE07A4839
:1051F000C079012856D17848007A212852D1002060
:105200007549488108460069B0F5C87F17D208463D
:1052100000690A21B0FBF1F201FB1200002844D121
:105220006B480068012840D16A484088401C00B2A1
:1052300068494880012400206549086035E06648D7
:105240000069B0F5C87F1BD963480069B0F5487F95
:1052500016D2614800690521B0FBF1F201FB120092
:10526000F8B95B48006801281FD15A484088401CA3
:1052700000B258494880012400205549086014E0D4
:105280000020804211D15248006801280DD15148B8
:105290004088401C00B24F494880012400204C49FE
:1052A000086002E020204C4908724C48B0F90A001E
:1052B0005049097888420ED04848007A20280AD1FF
:1052C00000204649488143484088401E00B2414979
:1052D000488001245CE04148C079012855D13F480D
:1052E000007A212851D100203C49488108460069B4
:1052F000B0F5C87F16D2084600690A21B0FBF1F26A
:1053000001FB120070BB32480068012840D13148CF
:105310004088401E00B22F494880012400202C49BB
:10532000086035E02D480069B0F5C87F1BD92B48CF
:105330000069B0F5487F16D2284800690521B0FB06
:10534000F1F201FB120068B92148006801281FD161
:1053500020484088401E00B21E4948800124002099
:105360001B49086014E00020804211D118480068F1
:1053700001280DD117484088401E00B215494880C9
:10538000012400201249086002E02020134908721D
:105390001048B0F9020042F20F71884203DB084660
:1053A0000C49488007E00B48B0F90200002802DCF5
:1053B0000020084948800B48007800F0100040B3F6
:1053C000012C26D100240748007820F0100013E0BB
:1053D000BC010020540000202802002048020020C8
:1053E0006500002049010020009400080098000892
:1053F0000802002064000020FB490870FB48017887
:10540000FB4800F065FFF948B0F90210F94800F0D8
:105410005FFFF948007A202804D1F748408908281E
:105420003FF4A4AE10BD10B5EF48007800F01000B6
:1054300038B1ED48007820F01000EB490870FEF715
:1054400004F91F20E949087010BD10B544E0FFF7CA
:10545000EAFFEA48B0F90A00E9490978884217D01A
:10546000E648007A202813D1E448807AE44908709D
:105470000020E2494881E3480078401C40B2E149FD
:105480000870084690F90000032801DD002008702C
:10549000DD48B0F90A00DA490978884213D0DA48C1
:1054A000007A20280FD10020D7494881D5480078BC
:1054B000401E40B2D3490870084690F90000002809
:1054C00001DA03200870CC48B0F90A00082803DB91
:1054D0000920C949488103E0CA4800780028B6D0AD
:1054E00000BF3DE0FFF732FEC448B0F90A00C449EE
:1054F0000978884213D0C148007A20280FD10020B3
:10550000BE494881BF480078401C40B2BD49087080
:10551000084690F90000032801DD00200870BA4811
:10552000B0F90A00B6490978884213D0B648007A23
:1055300020280FD10020B4494881B2480078401E8D
:1055400040B2B0490870084690F90000002801DA1E
:1055500003200870A848B0F90A00082800DD03E01D
:10556000A84800780128BDD000BF3DE0FFF782FCCD
:10557000A248B0F90A00A2490978884213D09F488E
:10558000007A20280FD100209C4948819D4800784E
:10559000401C40B29B490870084690F9000003285F
:1055A00001DD002008709848B0F90A009449097894
:1055B000884213D09448007A20280FD100209249C5
:1055C000488190480078401E40B28E4908700846D5
:1055D00090F90000002801DA032008708648B0F92D
:1055E0000A00082800DD03E0864800780228BDD0C4
:1055F00000BF3DE0FFF7E6FA8048B0F90A008049B5
:105600000978884213D07D48007A20280FD10020E5
:105610007A4948817B480078401C40B2794908703B
:10562000084690F90000032801DD00200870764844
:10563000B0F90A0072490978884213D07248007A9A
:1056400020280FD10020704948816E480078401E04
:1056500040B26C490870084690F90000002801DA51
:10566000032008706448B0F90A00082800DD03E050
:10567000644800780328BDD000BF10BD10B50024D9
:1056800062480088FDF76AFF5C48B0F90A0060498B
:105690000978884211D05948007A20280DD15748FE
:1056A000807A5B4908700020544948815748008837
:1056B000401C5649088001245AE05048C07901280E
:1056C00053D14E48007A21284FD100204B494881C0
:1056D00008460069B0F5C87F16D2084600690A215D
:1056E000B0FBF1F201FB1200002841D149480068EB
:1056F00001283DD100204749086044480088401CEB
:1057000042490880012433E03C480069B0F5C87F75
:105710001AD93A480069B0F5487F15D23748006970
:105720000521B0FBF1F201FB120008BB394800680B
:1057300001281DD100203749086034480088801CAA
:1057400032490880012413E00020804210D1314802
:10575000006801280CD100202E4908602B480088E1
:10576000401D2A490880012402E0202023490872B4
:105770002548B0F90A002649097888420DD0224808
:10578000007A202809D100201F4948811F4800883D
:10579000401E1E490880012472E01B48C079012880
:1057A0006BD11948007A212867D100201649488119
:1057B00008460069B0F5C87F2ED2084600690A2164
:1057C000B0FBF1F201FB120068B912480068012831
:1057D00056D100200F4908600C480088401E0B4934
:1057E000088001244CE04BE04901002054000020D7
:1057F00000940008009800080802002028020020F9
:10580000630000205C000020480200204C000020C3
:1058100062000020BC010020F7480069B0F5C87F95
:105820001AD9F5480069B0F5487F15D2F2480069E9
:105830000521B0FBF1F201FB120008BBEF48006844
:1058400001281DD10020ED490860ED480088801E28
:10585000EB490880012413E00020804210D1E74882
:10586000006801280CD10020E4490860E448008861
:10587000401FE3490880012402E02020DE4908722D
:10588000DF480088012803DC0120DD49088008E0AA
:10589000DB4800884FF6FF71884202DB0846D84992
:1058A0000880D848007800F0100060B1012C0AD1BF
:1058B000D448007820F01000D2490870D048018800
:1058C000D14800F005FD10BD10B50024CF48006898
:1058D000FDF7D0FDCE48B0F90A00CE4909788842DC
:1058E00011D0CB48007A20280DD1C948807AC94907
:1058F00008700020C6494881C4480068401CC3495C
:10590000086001245AE0C248C079012853D1C04838
:10591000007A21284FD10020BD49488108460069FE
:10592000B0F5C87F16D2084600690A21B0FBF1F233
:1059300001FB1200002841D1B048006801283DD188
:105940000020AE490860B1480068401CAF490860BB
:10595000012433E0AE480069B0F5C87F1AD9AC48DD
:105960000069B0F5487F15D2A94800690521B0FB50
:10597000F1F201FB120008BBA048006801281DD10C
:1059800000209E490860A1480068801C9F4908606B
:10599000012413E00020804210D1984800680128BB
:1059A0000CD100209549086098480068401D97492F
:1059B0000860012402E02020954908728E48B0F961
:1059C0000A009449097888420DD08B48007A202833
:1059D00009D10020884948818C480068401E8B49C5
:1059E0000860012459E08448C079012852D18248D6
:1059F000007A21284ED100207F494881084600695D
:105A0000B0F5C87F15D2084600690A21B0FBF1F253
:105A100001FB120060BB7948006801283DD10020DD
:105A20007649086079480068401E7849086001247A
:105A300033E071480069B0F5C87F1AD96E48006933
:105A4000B0F5487F15D26C4800690521B0FBF1F232
:105A500001FB120060B96948006801281DD10020CF
:105A60006649086069480068801E6849086001242A
:105A700013E00020804210D16048006801280CD15A
:105A800000205E49086061480068401F5F49086067
:105A9000012402E02020584908725C48006801286F
:105AA00003DC01205949086008E0584800684FF6B7
:105AB000FF71884202DB084654490860514800786B
:105AC00000F0100060B1012C0AD14E48007820F09F
:105AD00010004C4908704D4801684F4800F0F8FB31
