:020000040800F2
:10000000D8080020C9020008B1230008B323000863
:10001000B5230008B7230008B9230008000000003A
:10002000000000000000000000000000BB230008EA
:10003000BD23000800000000BF230008C123000802
:10004000E3020008014E0008E3020008E302000892
:10005000E3020008E3020008E3020008E3020008EC
:10006000E3020008E3020008E302000889520008E6
:10007000E3020008E3020008E3020008E3020008CC
:10008000E3020008E3020008E3020008E3020008BC
:10009000E3020008E3020008E3020008C3230008AB
:1000A000E3020008E3020008E3020008E30200089C
:1000B000EB4C0008E34D0008CD4C0008E3020008BB
:1000C000E3020008E3020008E3020008E30200087C
:1000D000E3020008C5230008E3020008E302000869
:1000E000E3020008E3020008E302000800F002F85F
:1000F00000F03AF80AA090E8000C82448344AAF188
:100100000107DA4501D100F02FF8AFF2090EBAE885
:100110000F0013F0010F18BFFB1A43F0010318473B
:10012000446C0000646C0000103A24BF78C878C1A9
:10013000FAD8520724BF30C830C144BF04680C60ED
:10014000704700000023002400250026103A28BF35
:1001500078C1FBD8520728BF30C148BF0B60704739
:100160001FB51FBD10B510BD06F095FB1146FFF77A
:10017000F7FF04F0F9FE06F0B3FB03B4FFF7F2FF5C
:1001800003BC06F0B7FB0000484810B5016841F019
:10019000010101604168464A114041600168454AD9
:1001A00011400160016821F480210160416821F45F
:1001B000FE0141604FF41F0181600021C16200F027
:1001C00033F83D494FF00060086010BD30B5374945
:1001D00048683A4A10F00C03394803D0042B01D088
:1001E000082B01D0026015E04B684C6803F47013D3
:1001F0004FF0020514F4803F05EB934307D0CC6A1F
:1002000004F00F04641CB2FBF4F25A43EAE72D4AEF
:100210005343036049682A4AC1F30311121D515C1C
:100220000268CA40026030BD0CB500211F48019130
:100230000091026842F4803202604FF4A0630268C9
:1002400002F400320092019A521C0192009A12B9F3
:10025000019A9A42F3D10268920324D501210091B8
:10026000416841604168416041684160416821F4F2
:100270007C114160416841F498114160016841F08E
:100280008071016001688901FCD5416821F003019A
:100290004160416841F0020141604168C1F3810160
:1002A0000229FAD10CBD00910CBD000000100240E3
:1002B0000000FFF8FFFFF6FE08ED00E000127A00F4
:1002C0000000002000093D00094880470948004718
:1002D000FEE7FEE7FEE7FEE7FEE7FEE7FEE7FEE7F6
:1002E000FEE7FEE704480549054A064B7047000053
:1002F00089010008ED000008D8020020D80800207D
:10030000D8040020D8040020AC48016841F0010165
:1003100001604168AA4A114041600168A94A114040
:100320000160016821F480210160416821F4FE012F
:1003300041604FF41F0181600021C16270479F49F5
:100340000A6822F480320A600A6822F480220A6075
:10035000B0F5803F07D0B0F5802F03D1086840F496
:10036000A02008607047086840F48030F9E7024632
:10037000002053099149012B0AD0022B0AD0496A67
:1003800002F01F02012393400B4200D0012070476E
:100390000968F5E7096AF3E718B500204FF4A0648F
:1003A00000903120FFF7E3FF0099491C0091A14222
:1003B00001D00028F5D03120FFF7D9FF002800D068
:1003C000012018BD7D490A6822F0F80242EAC00007
:1003D000086070477C4908607047784A5368084352
:1003E00023F47413184350607047774908667047C8
:1003F000724B10B5DA6A754C084322401043D8623C
:1004000010BD6E4A516821F00301014351607047ED
:100410006A48406800F00C007047684A516821F053
:10042000F001014351607047644A516821F4E06172
:1004300001435160704761494A6822F4605242EAC0
:10044000C000486070475D4A0029517A01D00143DD
:1004500000E08143517270475B49C1F8D800704792
:10046000564A516821F44041014351607047534955
:10047000002281F8202081F82020012802D00428C1
:1004800002D1052081F8200070475149086070476B
:100490004A490A6A02430A6270474D494439086072
:1004A000704730B545494A6812F00C03494A03D0F9
:1004B000042B01D0082B01D0026015E04B684C687A
:1004C00003F470134FF0020514F4803F05EB9343DF
:1004D00007D0CC6A04F00F04641CB2FBF4F25A4358
:1004E000EAE73D4A534303604A680F233B4C03EA63
:1004F0001212A35C0268DA4042604B68072505EAE5
:100500001323E35C22FA03F383604B6805EAD323E9
:10051000E35CDA40C2604968032303EA9131231F98
:10052000595CB2FBF1F1016130BD244A00295169E7
:1005300001D0014300E08143516170471F4A002907
:10054000916901D0014300E08143916170471B4AEA
:100550000029D16901D0014300E08143D161704796
:10056000164A0029D16801D0014300E08143D160DF
:100570007047124A0029116901D0014300E081430C
:100580001161704712494039086070470E49C864CC
:1005900070470A49C87170470848416A41F0807144
:1005A00041627047054A0146002092680A4200D025
:1005B0000120704701498872704700000010024016
:1005C0000000FFF8FFFFF6FE00004242F0FFFEFFD2
:1005D0008004424200127A0000093D001800002009
:1005E000C44910B588420AD101218C032046FFF787
:1005F000B7FF2046BDE810400021FFF7B1BFBE495C
:10060000884202D101214C0410E0BC49884202D149
:1006100001218C040AE0BA49884202D10121CC04AC
:1006200004E0B84988420AD101210C052046FFF7B1
:10063000A0FF2046BDE810400021FFF79ABF10BD83
:1006400030B50446008A85B00D464CF6FF7108406F
:10065000E98801432182A1894EF6F3100140A88860
:100660002A8910436A890A431043A081A08A4FF661
:10067000FF410840A9890143A1826846FFF711FFA5
:100680009C48844201D1039800E00298A1890904A2
:1006900000EBC00101EB0010296801D5490000E022
:1006A0008900B0FBF1F06422B0FBF2F109010B0903
:1006B0006FF018056B4300EB8300A3891D044FF016
:1006C000320306D503EBC000B0FBF2F000F00700E8
:1006D00005E003EB0010B0FBF2F000F00F00084360
:1006E000208105B030BD4FF416510160002181809A
:1006F000C18001810C2242818181704710B5038A3B
:100700004FF2FF0213400A884C8822438C88C98824
:100710000C4322431A43028210BD00210180418014
:100720008180C18070470029818902D041F4005145
:1007300001E021F400518181704710B5C1F34213EB
:1007400001F01F040121A140012B07D0022B07D08B
:100750001430002A026805D00A4304E00C30F8E7A0
:100760001030F6E78A43026010BD002A828A01D069
:100770000A4300E08A4382827047028A22F00F0215
:100780000282028A0A4302827047828922F400624E
:10079000828182890A43828170470029818902D03F
:1007A00041F0020101E021F0020181817047028ADB
:1007B00022F020020282028A0A4302827047002944
:1007C000018A02D041F4804101E021F4804101829C
:1007D0007047C1F30801818070478088C0F308002A
:1007E0007047818941F0010181817047028BD2B24B
:1007F0000283028B42EA012101837047028B02F4DB
:100800007F420283028B0A43028370470029818A58
:1008100002D041F0200101E021F0200181827047E7
:100820000029818A02D041F0100101E021F010017D
:10083000818270470029818A02D041F0080101E0DD
:1008400021F00801818270470029818902D041F49A
:10085000004101E0C1F30E01818170470029818AC6
:1008600002D041F4006101E021F40061818270470F
:10087000828A22F004028282828A0A43828270473C
:100880000029818A02D041F0020101E021F0020139
:10089000818270470246002012880A4200D001205F
:1008A0007047C9430180704730B501F01F02012431
:1008B0000025C1F3421304FA02F2012B0FD0022BE0
:1008C0000FD0838A4FEA11210088134204FA01F401
:1008D00000EA040001D000B10125284630BD83891B
:1008E000F0E7038AEEE70A0A01219140C94301803B
:1008F00070470000003801400044004000480040BC
:10090000004C004000500040914910B5884206D18B
:1009100001210420FFF724FE002104203BE08D4943
:10092000884206D101210820FFF71AFE0021082085
:1009300031E08949884206D101211020FFF710FEDD
:100940000021102027E08549884206D1012120207E
:10095000FFF706FE002120201DE08149884206D1D4
:1009600001214020FFF7FCFD0021402013E07D49DC
:10097000884206D101218020FFF7F2FD002180206E
:1009800009E0794988420AD1841501212046FFF700
:10099000E7FD00212046BDE81040FFF7E1BD10BD96
:1009A00010B501210846FFF7DBFD0021BDE810402E
:1009B0000120FFF7D5BDF0B5CA78002502F00F037E
:1009C000D20601D58A7813430A784FF00F0E12F041
:1009D000FF0F4FF001021DD0D0F800400F8802FA3F
:1009E00005F63740B74211D14FEA850C0EFA0CF7E5
:1009F00024EA070703FA0CF43C43CF78282F02D0EF
:100A0000482F02D002E0466100E006616D1C082D0F
:100A1000E4D304600C88FF2C1ED944685FF0000604
:100A200006F1080702FA07F50F882F40AF420FD1F1
:100A30004FEA860C0EFA0CF7BC4303FA0CF73C4362
:100A4000CF78282F00D14561CF78482F00D105619C
:100A5000761C082EE4D34460F0BD4FF6FF71018090
:100A6000022181700421C170704702460020926803
:100A70000A4200D001207047806880B27047024669
:100A80000020D2680A4200D001207047C06880B2BE
:100A9000704701617047416170470AB10161704759
:100AA00041617047C160704741F480328261816169
:100AB00082618169806970472C4B10B51A684FF6C6
:100AC0008074224042EA00100843186010BD284993
:100AD000C8617047F0B5254C002801DAE36900E0F1
:100AE0006368420D120185B2C0F301579540C0F30F
:100AF0000346032F05D0C2020AD50322B240934316
:100B000007E023F07062636823F07063636002E0C3
:100B1000AB4343F0706201B12A43002801DAE2617D
:100B2000F0BD6260F0BD10B58A0721F003040F49E3
:100B3000130F21440F228C689A4094438C608A687A
:100B4000984002438A6010BD0949C1F8DC00704733
:100B500000080140000C0140001001400014014059
:100B600000180140001C014000200140000001402D
:100B7000000020422849084328490860704770B5A2
:100B80000F23C47801780122F4B1244C24684578FD
:100B900004F4E064C4F5E064240AC4F10406E3400C
:100BA0008478B5401C402C4301F1E021230181F8F9
:100BB0000034007800F01F018A404009800000F1F5
:100BC000E020C0F8002170BD01F01F0082404809FC
:100BD000800000F1E020C0F8802170BD104A114073
:100BE00001430E48001F016070470C4A121D002986
:100BF000116801D0014300E08143116070474FF05C
:100C0000E0210428086903D020F00400086170473F
:100C100040F00400FAE700000000FA050CED00E0E7
:100C200080FFFF1FFC4A116801F038010143116089
:100C30007047F9490A6822F008020A600A6802430C
:100C40000A607047F4490A6822F010020A600A68D4
:100C500002430A607047F048F0494160F049416042
:100C60007047ED48ED494160ED4941607047EA4801
:100C7000016941F0800101617047E748016941F075
:100C8000800101617047E4490420CA68D20701D09D
:100C900001207047CA68520701D502207047C96811
:100CA000C906FBD50320704700B50346FFF7EBFFED
:100CB00003E000BFFFF7E7FF5B1E012803D0002B16
:100CC00000D1052000BD002BF4D1FAE770B5054630
:100CD0004FF430263046FFF7E7FF042811D1CE4C01
:100CE000206940F0020020616561206940F0400009
:100CF00020613046FFF7D8FF216941F6FD721140AF
:100D0000216170BD30B54FF430252846FFF7CCFF88
:100D1000042810D1C04C206940F0040020612069F3
:100D200040F0400020612846FFF7BEFF216941F6F0
:100D3000FB721140216130BD00B50346FFF7A3FFF0
:100D400003E000BFFFF79FFF5B1E012803D0002BCD
:100D500000D1052000BD002BF4D1FAE730B54FF4E7
:100D600030252846FFF7E8FF042810D1AA4C206957
:100D700040F004002061206940F0400020612846D6
:100D8000FFF7DAFF216941F6FB721140216130BDA6
:100D9000A1490020C969890700D50120704770B5B5
:100DA000A525FFF7F5FF00B100254FF430263046AA
:100DB000FFF77AFF042827D1974C9848A0609848FD
:100DC000A060206940F020002061206940F04000D0
:100DD00020613046FFF768FF41F6EF7604280ED118
:100DE000206941F6DF7108402061206940F0100061
:100DF00020618C4805804FF40050FFF755FF05280F
:100E000002D021693140216170BDF8B5064600204D
:100E10004FF4005C00900D466046FFF745FF042844
:100E200016D17D4C206940F001002061358060467C
:100E3000FFF73AFF41F6FE77042806D1B61C280CCE
:100E4000009630806046FFF72FFF2169394021610D
:100E5000F8BDF0B506464FF400570D463846FFF78B
:100E600023FF04280CD16C4C206940F00100206164
:100E700035803846FFF718FF2169BA1E11402161FD
:100E8000F0BDF0B506464FF400570D463846FFF763
:100E90000BFF042813D1604C6048A0606048A0603C
:100EA000206940F01000206135803846FFF7FCFED5
:100EB000052804D0216941F6EF7211402161F0BD8F
:100EC0002DE9F041C04300F0FF0CC0F30727C0F349
:100ED0000746050E4FF400584046FFF7E5FE04288C
:100EE00037D14D4C4D49A1604D49A160216941F078
:100EF00010012161BCF1FF0F08D04A480830A0F86A
:100F000000C04046FFF7D0FE04281BD1FF2F07D0BA
:100F100044480A3007804046FFF7C6FE042811D136
:100F2000FF2E07D03F480C3006804046FFF7BCFE3E
:100F3000042807D1FF2D07D03A480E3005804046DF
:100F4000FFF7B2FE052804D0216941F6EF72114087
:100F50002161BDE8F08170B505464FF4302630467A
:100F6000FFF7A2FE042818D12B4C2C48A0602C4877
:100F7000A060206940F020002061206940F040001E
:100F800020613046FFF790FE41F6DF71042805D05E
:100F9000052802D022690A40226170BD20690840FC
:100FA0002061206940F0100020611E480DB1002131
:100FB00000E0A52101803046FFF776FE0528ECD041
:100FC000216941F6EF721140216170BDF0B5124CFC
:100FD0000746124816460D46A0601148A0604FF41F
:100FE000005C6046FFF760FE042814D1206940F0E1
:100FF0001000206135430B493D43891C45F0F80042
:1010000008806046FFF750FE052804D0216941F6AC
:10101000EF7211402161F0BD0020024023016745BD
:10102000AB89EFCD00F8FF1F1C48C06980087047EE
:101030001A48006A7047194900200968890600D5D6
:1010400001207047154A0029116901D0014300E0D1
:1010500081431161704701460020104A012903D0E5
:10106000D2680A4203D17047D169C907FBD0012079
:1010700070470A49C860704708490420CA68D20707
:1010800001D001207047CA68520701D5022070477D
:10109000C968C906FBD50320704700000020024044
:1010A000F94910B5884202D10121C41486E0B0F19B
:1010B000804F09D0F54988420DD101210220FFF768
:1010C00058FA0021022064E001210846FFF751FA96
:1010D000002101205DE0EE49884206D10121042073
:1010E000FFF747FA0021042053E0EA49884206D17D
:1010F00001210820FFF73DFA0021082049E0E649D8
:10110000884206D101211020FFF733FA0021102078
:101110003FE0E249884206D101212020FFF729FA69
:101120000021202035E0DE49884202D1012144140B
:1011300044E0DC49884202D10121CC043EE0DA4996
:10114000884202D101210C0538E0D849884202D1F9
:1011500001214C0532E0D649884206D101214020C8
:10116000FFF707FA0021402013E0D249884206D158
:1011700001218020FFF7FDF90021802009E0CE4900
:1011800088420AD1841501212046FFF7F2F9002197
:101190002046BDE81040FFF7ECB9C849884202D1AB
:1011A00001210C040AE0C649884202D101214C0405
:1011B00004E0C44988420AD101218C042046FFF78B
:1011C000CFF92046BDE810400021FFF7C9B910BD96
:1011D00030B50288AC4BB24C98420DD0A0420BD037
:1011E000B0F1804F08D0A94DA84205D0A84DA84223
:1011F00002D0A84DA84203D122F070054A882A43A4
:10120000A54DA84206D0A54DA84203D022F44075B2
:10121000CA882A4302808A8882850A880285984281
:101220000AD0A04208D0A54A904205D0A44A9042D4
:1012300002D0A44A904201D1097A0186012181821B
:1012400030BD30B5028C22F001020284028C83880A
:10125000048B22F0020224F073050C882C430D89C4
:1012600015434A882A43884DA8420BD08C4DA8428A
:1012700008D0924DA84205D0914DA84202D0914D80
:10128000A8420DD122F008054A8923F440732A436D
:1012900022F004058A882A438D891D43CB892B437C
:1012A00083800483C9888186028430BD70B5028C36
:1012B00022F010020284028C8488038B0D8823F4B0
:1012C000E6464FF6FF7303EA052535430E8922F003
:1012D000200203EA061616434A8803EA0212324342
:1012E000694EB04202D06E4EB04215D122F0800657
:1012F0004A8924F4406403EA0212324322F0400691
:101300008A8803EA021232438E8903EA860626435C
:10131000CC8903EA8404344384800583C988018727
:10132000028470BD70B5028C22F480720284028C3B
:101330008488838B0D8823F073031D4322F400738C
:101340000E894FF6FF7202EA06261E434B8802EA18
:10135000032333434C4EB04202D0514EB04215D11C
:1013600023F400664B8924F4405402EA03233343F8
:1013700023F480668B8802EA032333438E8902EAD2
:1013800006162643CC8902EA0414344384808583FC
:10139000C9888187038470BD70B5028C22F48052A5
:1013A0000284048C8288838B0D8823F4E6464FF6F2
:1013B000FF7303EA0525354324F400560C8903EA3C
:1013C000043434434E8803EA063626432E4CA042AA
:1013D00002D0334CA04205D122F480448A8903EA2A
:1013E0008212224382808583C988A0F84010068437
:1013F00070BD828B22F440628283828B4FF6FF7332
:1014000003EA01210A4382837047828B22F00C0297
:101410008283828B0A4382837047028B22F440626C
:101420000283028B4FF6FF7303EA01210A43028312
:101430007047F0B5048C24F010040484078B048CEE
:101440004FF6FF7527F4734705EA03333B4305EA7C
:1014500002221A430C4B05EA011698420ED0104B9B
:1014600098420BD0B0F1804F08D0084B984205D07D
:10147000074B984202D0074B984225D124F0200117
:10148000314341F0100124E0002C014000040040F1
:1014900000080040000C0040001000400014004014
:1014A00000340140004C0140005001400054014014
:1014B00000180040001C0040002000400040014097
:1014C000004401400048014024F0A0030B4343F0D6
:1014D000100102830184F0BD028B22F00C02028312
:1014E000028B0A430283704770B5048C24F0010418
:1014F0000484058B048C4FF6FF7606EA031313432E
:1015000025F0F305F94A2B4390420ED0F84A904259
:101510000BD0B0F1804F08D0F64A904205D0F64A81
:10152000904202D0F54A904202D124F0020201E03A
:1015300024F00A020A4342F001010383018470BDD2
:101540002DE9F05F0D4604460888E84FDFF8A0C398
:10155000DFF8A0834988AA882B894FF0804960B3BF
:10156000042832D04FF6FF7E082836D0208C9B46C8
:1015700020F480502084A38B268C704600EA02223F
:1015800023F473431A4300EA0B3010430EEA013E82
:10159000BC420BD0644509D04C4507D0444505D02A
:1015A000D54A944202D0D54B9C4245D126F40051F5
:1015B00041EA0E0141F4805143E02046FFF794FFD9
:1015C000E9882046BDE8F05F86E72046FFF731FF57
:1015D000E9882046BDE8F05F1FE7208C20F480708A
:1015E0002084B4F81CA0208C0EEA031313432AF0C5
:1015F000F30A0EEA012B43EA0A03BC420BD064450E
:1016000009D04C4507D0444505D0BB4A944202D08E
:10161000BA4A944204D120F4007040EA0B0002E080
:1016200020F42060084340F48070A3832084E9887C
:101630002046BDE8F05FE8E626F402420A4342F4A1
:101640008051A08320462184E988BDE8F05FD0E680
:101650002DE9F0410C46002649880746012501B9CD
:101660000226A288012A00D1022520882389002889
:10167000384610D0FFF7DDFEE1883846FFF7CDFE93
:1016800023892A4631463846FFF72EFFE18838463F
:10169000BDE8F04120E7FFF727FFE1883846FFF774
:1016A0001BFF23892A4631463846FFF7C2FEE188F0
:1016B0003846BDE8F041B0E610B50A884B88CC88C2
:1016C0001A438B8823431A430B891A434B89898910
:1016D0001A430A43A0F8442010BD4FF6FF718180E1
:1016E00000210180C180418001727047002101808A
:1016F00041808180C180018141818181C1817047A8
:1017000000210180418001228280C18001817047D7
:101710000021018041808180C180018141818181DE
:1017200070470029018802D041F0010101E021F059
:10173000010101807047002930F8441F02D041F4B4
:10174000004101E0C1F30E0101807047002A828947
:1017500001D00A4300E08A4382817047818270474A
:101760001143A0F848107047002A828901D00A432B
:1017700000E08A4382817047018921F007010181DD
:101780007047028922F070020A430281704700B557
:101790000346FFF7F6FF188940F00700188100BDE7
:1017A00070B516460D46602904464FF001023146D9
:1017B0000AD0FFF799FE29462046FFF7E2FF20896D
:1017C00040F00700208170BDFFF733FEF3E730B52E
:1017D00004894FF6FF7505EA03231343E4B20B4374
:1017E0002343038130BD10B50446FFF7F0FF208985
:1017F00040F07700208110BD10B50446FFF7E7FFE9
:10180000208940F48040208110BD0185828270478C
:10181000028822F070020A430280704770B5058981
:10182000048B068C25F007050D434FF6FC410C4058
:1018300040F201110C434FF6FF7101EA031126F04B
:1018400022061143314305810483018470BD028B5C
:1018500022F070020A4302837047028B4FF6FF7337
:1018600022F4E04203EA0121114301837047828B95
:1018700022F070020A4382837047828B4FF6FF7317
:1018800022F4E04203EA01211143818370470029D9
:10189000018802D041F0800101E021F08001018047
:1018A00070470029818802D041F0040101E021F055
:1018B0000401818070470029818802D041F008012D
:1018C00001E021F00801818070470029818802D061
:1018D00041F0010101E021F0010181807047028B9C
:1018E00022F008020A43028370470000002C0140E6
:1018F000003401400004004000080040000C00409B
:10190000028B4FF6FF7322F4006203EA01211143B8
:101910000183E9E7828B22F008020A438283E3E72E
:10192000828B4FF6FF7322F4006203EA0121114318
:101930008183D9E7028B22F004020A430283D3E7B2
:10194000028B4FF6FF7322F4806203EA01211143F8
:101950000183C9E7828B22F004020A438283C3E732
:10196000828B4FF6FF7322F4806203EA0121114358
:101970008183B9E7028B22F080020A430283B3E736
:10198000028B4FF6FF73C2F30E0203EA01211143EB
:101990000183A9E7828B22F080020A438283A3E7B6
:1019A000828B4FF6FF73C2F30E0203EA012111434B
:1019B000818399E7028C22F002020A43028493E7B2
:1019C000028C22F008020A4302848DE7028C4FF653
:1019D000FF7322F0200203EA01111143018483E71F
:1019E000028C4FF6FF7322F0800203EA01111143CB
:1019F000018479E7028C4FF6FF7322F4007203EA48
:101A00000121114301846FE7028C4FF6FF7322F42A
:101A1000006203EA01211143018465E7028C4FF65D
:101A2000FF7322F4005203EA0131114301845BE7A2
:101A300010B50123048C8B409C430484038C8A40A2
:101A40001343038410BD10B50423048C8B409C43C6
:101A50000484038C8A401343038410BD30B50124F1
:101A6000058C00F118038C40A543058489B1082931
:101A70000FD0091FC1F34E001844016821F4E04162
:101A8000016001684FF6FF7303EA0222114301600F
:101A900030BD03EB5100016821F070010160016865
:101AA000F4E70029018802D041F0020101E021F0B1
:101AB0000201018018E70029018802D041F00401E9
:101AC00001E021F0040101800EE70029818802D0A5
:101AD00041F0800101E021F08001818004E702886B
:101AE00022F00802028002880A430280FCE6828813
:101AF00022F07002828082880A438280F4E60289A2
:101B000022F00702028102890A430281ECE602897F
:101B100022F08002028102890A430281E4E6818484
:101B2000E2E68185E0E68186DEE60187DCE6818704
:101B3000DAE6A0F84010D7E6028822F4407202806C
:101B400002880A430280CFE6808ECDE6008FCBE686
:101B5000808FC9E6B0F84000C6E6808CC4E6008DF0
:101B6000C2E602460020128A0A4200D00120BBE6EB
:101B7000C9430182B8E602460020138A92890B42CB
:101B800002EA010202D0002A00D00120ACE6C943DB
:101B90000182A9E6C54910B5884202D10121441548
:101BA0000AE0C349884202D10121041504E0C14979
:101BB00088420AD10121CC032046FEF7D1FC204601
:101BC000BDE810400021FEF7CBBC10BD10B5426847
:101BD000B94B0C791A400B6842EA04221343436064
:101BE0008368B64A1340D1E9024222434C7943EA62
:101BF00044031A438260C26A097C22F47002491EBF
:101C0000C9B242EA0151C16210BD002101600171F7
:101C100041718160C16001210174704700298168B0
:101C200002D041F0010101E021F001018160704723
:101C30000029816802D041F4807101E021F48071B3
:101C400081607047002A4268C9B201D00A4300E0AF
:101C50008A4342607047816841F0080181607047A3
:101C6000014600208968090700D501207047816876
:101C700041F00401816070470146002089684907EE
:101C800000D5012070470029816802D041F4A001ED
:101C900001E021F4A00181607047014600208968BD
:101CA000490200D5012070474268491E22F4604273
:101CB00042EA4131416070470029416802D041F455
:101CC000006101E021F400614160704770B50724B4
:101CD00009290AD9C568A1F10A0606EB4606B440EF
:101CE000A543B3401D43C56007E0056901EB41060C
:101CF000B440A543B3401D4305611F23072A09D201
:101D0000446B521E02EB820293409C4391400C4371
:101D1000446370BD0D2A09D2046BD21F02EB82020C
:101D200093409C4391400C43046370BDC46A0D3AD8
:101D300002EB820293409C4391400C43C46270BD0D
:101D40000029816802D041F4801101E021F4801162
:101D500081607047C06C80B2704754484C30006856
:101D600070470029416802D041F4806101E021F40C
:101D70008061416070470029416802D041F4805180
:101D800001E021F4805141607047826822F4E04212
:101D90000A43826070470029816802D041F4004103
:101DA00001E021F40041816070470029816802D080
:101DB00041F4021101E021F40211816070470146F3
:101DC00000208968890200D50120704770B507247A
:101DD00009290AD9C568A1F10A0606EB4606B440EE
:101DE000A543B3401D43C56007E0056901EB41060B
:101DF000B440A543B3401D430561836BC3F3015455
:101E0000121B921C02EB82041F22A2409343A140AA
:101E10000B43836370BD826B491E22F4401242EA79
:101E200001518163704708B508440090026008BD05
:101E300008B5084428300090006880B208BD4268A8
:101E40001F4B1A400A4342607047416282627047EA
:101E5000426822F01F020A4342607047134908316A
:101E60000028086802D040F4000001E020F40000DF
:101E7000086070470246002012680A4200D0012024
:101E80007047C9430160704710B50246002054688E
:101E90000B0AC9B20C401168194202D0002C00D0C4
:101EA000012010BD6FEA112101607047002401403C
:101EB00000280140003C0140FFFEF0FFFDF7F1FF6C
:101EC000FFFD3FFF01684FF6FE72114001600021E7
:101ED000016041608160C1606A496A4A0839904284
:101EE00003D1486840F00F0006E0664A1432904281
:101EF00004D1486840F0F00048607047614A2832D9
:101F0000904203D1486840F47060F5E75D4A3C3286
:101F1000904203D1486840F47040EDE7594A50328E
:101F2000904203D1486840F47020E5E7554A643296
:101F3000904203D1486840F47000DDE7514A78329E
:101F4000904203D1486840F07060D5E74E4A111FB7
:101F5000904203D1086840F00F0006E04A4A14326C
:101F6000904204D1086840F0F00008607047464A8B
:101F70002832904203D1086840F47060F5E7424A85
:101F80003C32904203D1086840F47040EDE73E4A8D
:101F900050329042EAD1086840F47020E5E730B54D
:101FA000036847F6F07293430C6A8A682243D1E9CA
:101FB00004452C4322438C692243CC6922434C6A5A
:101FC00022438C6A22431A430260CA6842600A684C
:101FD00082604968C16030BD00210160416081605C
:101FE000C160016141618161C161016241628162DF
:101FF00070470029016802D041F0010102E04FF66C
:10200000FE72114001607047002A026801D00A4345
:1020100000E08A430260704741607047406880B2C8
:10202000704701460020CA0002D5174A083A01E06D
:10203000144A083A12680A4200D001207047C100D1
:1020400003D51149091F086070470E4908394860D7
:10205000704701460020CA0002D50B4A083A01E049
:10206000084A083A12680A4200D001207047C100AD
:1020700003D50549091F08607047024908394860BF
:1020800070470000080002400804024010B501211A
:102090004C072046FEF76DFA2046BDE810400021AF
:1020A000FEF767BA30B54D4C236840F6FE728240A9
:1020B0009343D1E900252A43D1E902510D432A4334
:1020C00082401A43226030BD00210160416081607E
:1020D000C1607047414A01238340106809B1184329
:1020E00000E09843106070473C4B814018680AB18B
:1020F000084300E0884318607047384A93148340CF
:10210000106809B1184300E0984310607047334AE3
:10211000121D0309012098400029116801D00143D4
:1021200000E08143116070472C49091D00280868B0
:1021300002D040F0030001E020F003000860704787
:10214000264B814018680AB1084300E088431860B4
:102150007047224A08B5104408300090016008BD5D
:102160001E4A08B5104414300090016008BD0828CC
:1021700005D042EA0141194A10440162704742EA1F
:102180000121F8E7154908B501EB90002C300090CB
:10219000006880B208BD0246104B002034331B6833
:1021A00091400B4200D00120704781400B483430F1
:1021B00001607047094A0346002012689940074BA6
:1021C0000A4034331B680B4202D0002A00D00120A1
:1021D000704781400148343001607047007400400E
:1021E000374900200860091D0860091D0860091DA5
:1021F00008603349334814310860704730B53049BE
:102200008379026853B30B6893430B600A1D13680C
:102210000468A343136002790A44136804682343E3
:102220001360274A083213680468A3431360131D20
:102230001C680568AC431C604479102C05D021440F
:102240000A68006802430A6030BD116804682143CF
:102250001160196800680143196030BD00790844B5
:1022600001689143016030BD0021016001710C22C1
:10227000427181717047124910310A6802430A6045
:10228000704701460E4A0020143212680A4200D0FC
:10229000012070470A49143108607047084A014616
:1022A00000201268064B0A4014331B680B4202D010
:1022B000002A00D00120704701491431086070479E
:1022C00000040140FFFF0F000D49086070470C49F2
:1022D000486070470A498860704709494AF6AA2051
:1022E0000860704706494CF6CC4008607047044AC5
:1022F00001460020D2680A4200D001207047000049
:102300000030004010B501210C072046FEF731F9DE
:102310002046BDE810400021FEF72BB92149086294
:1023200070472049086170471F4A116821F0E00199
:102330000143116070471B49C1F8A00070471A4B58
:102340001A6822F0030202431A601848026842F039
:1023500004020260012905D020BF016821F00401B8
:102360000160704730BFF8E70F48016841F0040191
:102370000160016841F0020101600C48016841F010
:102380000401016030BF7047074A014600205268CF
:102390000A4200D00120704703490A6842EA8000DF
:1023A0000860704700000E420070004010ED00E031
:1023B0007047FEE7FEE7FEE7FEE7704770477047AD
:1023C0007047704770470000FD48302101705B2165
:1023D0004170792181707421C1706D2101716F216B
:1023E0004171382181717F21C171704730B5002260
:1023F000F349012805D0472302280ED0032813D023
:1024000018E0F0480F240723057863200C7048700B
:10241000332D8B700DD1372004E00B7006204870EF
:1024200062238B70C87005E00B706D2048700E2021
:102430008870CA700A714A718A71CA7130BDE048E9
:102440000021017041708170C17001714171817111
:10245000C171704700210A2204E000BFB0FBF2F016
:10246000491CC9B20028F9D1084670472DE9F0434C
:1024700006460D460846FFF7EDFF07463046FFF7D4
:10248000E9FF01460A2295FBF2F002FB1050CE4B09
:10249000CB4C13F8100020700020022F0AD395FBBC
:1024A000F2FC9CFBF2F802FB18CC13F81CC084F879
:1024B00001C000E060704FF06409032F0AD395FB60
:1024C000F9FC9CFBF2F802FB18CC13F81CC084F852
:1024D00002C000E0A0704FF47A7C042F09D395FB72
:1024E000FCF595FBF2F702FB175513F81550E57054
:1024F00000E0E07096FBF2F502FB1565022913F887
:102500001550257109D396FBF2F595FBF2F702FB06
:10251000175513F81550657100E06071032909D350
:1025200096FBF9F595FBF2F702FB175513F81550DA
:10253000A57100E0A071042907D396FBFCF090FB85
:10254000F2F102FB110013F81000E071BDE8F08316
:102550002DE9F04782460E4615461046FFF77AFFF2
:1025600007463046FFF776FF02460A2395FBF3F055
:1025700003FB1050944911F8104091480470002456
:10258000022F0AD395FBF3FC9CFBF3F803FB18CC5A
:1025900011F81CC080F801C000E044704FF06409DD
:1025A000032F0AD395FBF9FC9CFBF3F803FB18CC33
:1025B00011F81CC080F802C000E084704FF47A7CEF
:1025C000042F09D395FBFCF595FBF3F703FB175597
:1025D00011F81550C57000E0C470BAF1000F2FD08B
:1025E00096FBF3F503FB1565022A11F815500571EA
:1025F00009D396FBF3F595FBF3F703FB175511F899
:102600001550457100E04471032A09D396FBF9F592
:1026100095FBF3F703FB175511F81550857100E092
:102620008471042A0AD396FBFCF292FBF3F403FBB9
:10263000142211F81210C171BDE8F087C471FBE7D4
:1026400004710621417176218171F7E72DE9F04788
:1026500082460E4615461046FFF7FCFE07463046FA
:10266000FFF7F8FE02460A2395FBF3F003FB105038
:10267000554911F81040524804700024022F0AD323
:1026800095FBF3FC9CFBF3F803FB18CC11F81CC082
:1026900080F801C000E044704FF06409032F0AD3B2
:1026A00095FBF9FC9CFBF3F803FB18CC11F81CC05C
:1026B00080F802C000E084704FF47A7C042F09D3C4
:1026C00095FBFCF595FBF3F703FB175511F8155037
:1026D000C57000E0C470BAF1000F2ED096FBF3F580
:1026E00003FB1565022A11F81550057109D396FBF5
:1026F000F3F595FBF3F703FB175511F815504571EA
:1027000000E04471032A09D396FBF9F595FBF3F732
:1027100003FB175511F81550857100E08471042AE8
:1027200009D396FBFCF292FBF3F403FB142211F89D
:102730001210C17180E7C4717EE704716321417199
:1027400007218171F7E710B51D49002262240A7044
:102750004A708A70CA7063220C7140234A718B716F
:1027600008B1072000E07320C87110BDF0B5034622
:10277000FFF770FE0A2593FBF5F105FB1131124CB2
:1027800014F811200E490A700022022809D393FB85
:10279000F5F696FBF5F705FB176614F816604E7014
:1027A00000E04A70032811D3642693FBF6F696FBEB
:1027B000F5F705FB176614F816608E7007E0000049
:1027C00028010020B1000020146D00088A70042840
:1027D0000BD34FF47A7093FBF0F090FBF5F305FB0D
:1027E000130014F81000C87000E0CA700A712320AA
:1027F00048715E2088710F20C871F0BDFF4910B587
:102800000F220A7147224F234A718B717324CC71B6
:1028100028B17E2008704B700E228A7004E00020E0
:1028200008704C708A706D20C87010BDF0B50346FA
:10283000FFF710FE0A22B3FBF2F102FB1131F04D5B
:1028400015F81140ED490C700024022809D3B3FBA0
:10285000F2F6B6FBF2F702FB176615F816604E703B
:1028600000E04C7003280AD36426B3FBF6F6B6FBEF
:10287000F2F702FB176615F816608E7000E08C7098
:1028800004280BD34FF47A76B3FBF6F6B6FBF2F7D7
:1028900002FB176615F81660CE7000E0CC700528B4
:1028A0000BD342F21070B3FBF0F0B0FBF2F302FB7B
:1028B000130015F81000087100E00C712320487116
:1028C0006D208871CC71F0BDF0B50346FFF7C2FDF5
:1028D0000A22B3FBF2F102FB1131C94C14F811507A
:1028E000C6490D700025022809D3B3FBF2F6B6FBEA
:1028F000F2F702FB176614F816604E7000E04D7098
:1029000003280AD36426B3FBF6F6B6FBF2F702FB04
:10291000176614F816608E7000E08D7004280BD3D3
:102920004FF47A76B3FBF6F6B6FBF2F702FB1766C6
:1029300014F81660CE7000E0CD7005280BD342F27B
:102940001070B3FBF0F0B0FBF2F302FB130014F8CD
:102950001000087100E00D71232048716D2088710E
:102960000F20C871F0BDF0B50346FFF773FD0A22D2
:10297000B3FBF2F102FB1131A14C14F811509F4945
:102980000D700025022809D3B3FBF2F6B6FBF2F76F
:1029900002FB176614F816604E7000E04D700328B5
:1029A0000AD36426B3FBF6F6B6FBF2F702FB176612
:1029B00014F816608E7000E08D7004280BD34FF46D
:1029C0007A76B3FBF6F6B6FBF2F702FB176614F85D
:1029D0001660CE7000E0CD7005280BD342F2107067
:1029E000B3FBF0F0B0FBF2F302FB130014F810009D
:1029F000087100E00D71232048716D2088714E2010
:102A0000C871F0BD7D4840217E4A017041708170DF
:102A1000C1705378002143B14E2303714371632386
:102A200083714723C3715170704701714171817186
:102A3000C17101205070704770484021714A017087
:102A400041708170C1709378002143B17323037189
:102A50004E23437183716323C37191707047017179
:102A600041718171C1710120907070472DE9F0436F
:102A70008C460646FFF7EEFC64270A23604D0024CF
:102A80005E4A4FF47A79BCF1000F3ED05D4991F86F
:102A900003C0BCF1000F31D096FBF3FC03FB1C6CB0
:102AA000022815F81CC082F800C00AD396FBF3FC7C
:102AB0009CFBF3F803FB18CC15F81CC082F801C08E
:102AC00000E05470032809D396FBF7F797FBF3FC5B
:102AD00003FB1C7715F81770977000E094700428BA
:102AE00009D396FBF9F090FBF3F603FB160015F8FB
:102AF0001000D07000E0D470CC7033E014705470CB
:102B00009470D4700120C8702CE096FBF3F103FBA5
:102B10001161022815F81110117014D396FBF3F10E
:102B200091FBF3FC03FB1C11032815F811105170E5
:102B30000AD396FBF7F191FBF3F703FB171115F896
:102B40001110917001E054709470042809D396FB21
:102B5000F9F090FBF3F103FB110015F81000D070B1
:102B600000E0D470732010714E205071907163207A
:102B7000D071EBE421484021224A017041708170FC
:102B8000C1701379002143B1732303714E23437144
:102B900083716323C3711171704701714171817138
:102BA000C1710120107170472DE9F0438C46064633
:102BB000FFF750FC64270A23114D00240F4A4FF4FD
:102BC0007A79BCF1000F46D00E4991F805C0BCF1EE
:102BD000000F39D096FBF3FC03FB1C6C022815F8A0
:102BE0001CC082F800C012D396FBF3FC9CFBF3F8E8
:102BF00003FB18CC15F81CC006E0000028010020DB
:102C0000146D00082800002082F801C000E0547014
:102C1000032809D396FBF7F797FBF3FC03FB1C771C
:102C200015F81770977000E09470042809D396FB8C
:102C3000F9F090FBF3F603FB160015F81000D070C6
:102C400000E0D4704C7133E0147054709470D47000
:102C5000012048712CE096FBF3F103FB116102287F
:102C600015F81110117014D396FBF3F191FBF3FCDE
:102C700003FB1C11032815F8111051700AD396FBA1
:102C8000F7F191FBF3F703FB171115F81110917091
:102C900001E054709470042809D396FBF9F090FB7E
:102CA000F3F103FB110015F81000D07000E0D470B0
:102CB000732010714E20507190716320D07145E4E3
:102CC000FE484021FE4A017041708170C1709379C5
:102CD00000214BB147230371632343717623837132
:102CE0006D23C37191717047017141718171C1711F
:102CF0000120907170472DE9F0438C460646FFF79E
:102D0000A9FB64270A23EF4D0024EC4A4FF47A799B
:102D1000BCF1000F3ED0EA4991F807C0BCF1000FAA
:102D200031D096FBF3FC03FB1C6C022815F81CC089
:102D300082F800C00AD396FBF3FC9CFBF3F803FB7C
:102D400018CC15F81CC082F801C000E054700328AC
:102D500009D396FBF7F797FBF3FC03FB1C7715F8F9
:102D60001770977000E09470042809D396FBF9F06F
:102D700090FBF3F603FB160015F81000D07000E08E
:102D8000D470CC7133E0147054709470D4700120FE
:102D9000C8712CE096FBF3F103FB1161022815F8D2
:102DA0001110117014D396FBF3F191FBF3FC03FBAC
:102DB0001C11032815F8111051700AD396FBF7F176
:102DC00091FBF3F703FB171115F81110917001E057
:102DD00054709470042809D396FBF9F090FBF3F13A
:102DE00003FB110015F81000D07000E0D4704720EC
:102DF000107163205071762090716D20D071B8E60B
:102E0000AE484021AE4A017041708170C170137AA2
:102E1000002101713BB1072343714F238371732359
:102E2000C3711172704741718171C17101201072BB
:102E300070472DE9F0438C460646FFF70BFB6427ED
:102E40000A23A04D00249D4A4FF47A79BCF1000F6B
:102E50003ED09B4991F809C0BCF1000F31D096FBE0
:102E6000F3FC03FB1C6C022815F81CC082F800C0A0
:102E70000AD396FBF3FC9CFBF3F803FB18CC15F884
:102E80001CC082F801C000E05470032809D396FBEF
:102E9000F7F797FBF3FC03FB1C7715F81770977097
:102EA00000E09470042809D396FBF9F090FBF3F648
:102EB00003FB160015F81000D07000E0D4704C72BF
:102EC00057E6147054709470D4700120487250E624
:102ED00096FBF3F103FB1161022815F81110117034
:102EE00014D396FBF3F191FBF3FC03FB1C110328B5
:102EF00015F8111051700AD396FBF7F191FBF3F717
:102F000003FB171115F81110917001E054709470C3
:102F1000042809D396FBF9F090FBF3F103FB1100B1
:102F200015F81000D07000E0D470147107205071B3
:102F30004F2090717320D0711BE62DE9F0470546B4
:102F40000C460846FFF786FA064630214720002344
:102F50005A4A4FF04F094FF06D0A012D05D0022D4E
:102F60001AD01370537093704AE013705370544C1E
:102F70009370D370A57A45B11171507182F80690A3
:102F800082F807A0A372BDE8F087137153719371A3
:102F9000D3710120A072F6E70A25B4FBF5F705FB13
:102FA000174C484F022E17F81CC082F800C00AD3F5
:102FB000B4FBF5FCBCFBF5F805FB18CC17F81CC0FE
:102FC00082F801C000E05370032E0CD34FF0640C64
:102FD000B4FBFCFCBCFBF5F805FB18CC17F81CC0D7
:102FE00082F802C000E09370042E09D34FF47A7384
:102FF000B4FBF3F3B3FBF5F405FB143317F813300C
:10300000D3701171507182F8069082F807A0BAE768
:103010002DE9F047054614461046FFF71BFA064611
:103020005B224720002325494FF04F094FF06D0ADE
:10303000012D05D0022D19D00B704B708B7050E014
:103040000B704B701E4C8B70CB70E57A3DB10A71E2
:10305000487181F8069081F807A0E37293E70B713D
:103060004B718B71CB710120E0728CE70A25B4FBA8
:10307000F5F705FB174C134F022E17F81CC081F80B
:1030800000C00AD3B4FBF5FCBCFBF5F805FB18CC7B
:1030900017F81CC081F801C000E04B70032E13D359
:1030A0004FF0640CB4FBFCFCBCFBF5F805FB18CC42
:1030B00017F81CC081F802C007E0000028010020BA
:1030C00028000020146D00088B70042E09D34FF4E3
:1030D0007A73B4FBF3F3B3FBF5F405FB143317F881
:1030E0001330CB700A71487181F8069081F807A0FF
:1030F00049E770B5D14D4FF400712846FDF7B5FC96
:103100000446A9152846FDF7B0FCCD4914B1012CA1
:1031100004D006E0012804D1302005E018B10128D0
:1031200004D0002000E00620087270BD3620FBE7C6
:10313000F0B5C3480021C34E0170417035784FF09F
:103140007304EF064FF062024FF04F0302D525F0F3
:10315000100535708470C270037141718171C17145
:10316000F0BDB748472101706D2141703721817052
:103170007321C1700021017141718171C17170476A
:10318000AF48472162220170062141708270C170F0
:103190000021017141718171C17170472DE9F041C8
:1031A00084460E460846FFF755F90A24B6FBF4F1AB
:1031B00004FB1161A44DA24B002715F811101970E2
:1031C000022809D3B6FBF4F1B1FBF4F204FB1211AF
:1031D00015F81110597000E05F704FF06408032873
:1031E00009D3B6FBF8F1B1FBF4F204FB121115F8A8
:1031F0001110997000E09F7004280FD34FF47A707B
:10320000B6FBF0F1B1FBF4F1B6FBF0F0B0FBF4F17A
:1032100004FB110015F81000D87000E0DF70604664
:10322000FFF718F99CFBF4F104FB11C1022815F813
:103230001110197109D39CFBF4F191FBF4F204FB1A
:10324000121115F81110597100E05F71032809D3AC
:103250009CFBF8F090FBF4F104FB110015F8100052
:10326000987100E09F717E20D871BDE8F08170B543
:103270000346FFF7EFF80A2293FBF2F502FB15363F
:103280006F49714D5E240C7015F816604E70002663
:10329000022809D393FBF2F090FBF2F302FB130038
:1032A00015F81000887000E08E704020C8700E2065
:1032B00008714F2048718C71CE7170BD6049002239
:1032C0000F230A714B716D238B717323CB716323B1
:1032D00010B10A70622001E04E20087048708B70B7
:1032E000CA707047704770B50446584DC00701D08A
:1032F000002200E0012240212846FDF7CEFBA00776
:103300004FF4807101D5002200E001222846FDF72C
:10331000C4FB600701D5002200E0012208212846F5
:10332000FDF7BBFB20074FF4007101D5002200E040
:1033300001222846FDF7B1FBE00601D5002200E09E
:10334000012280212846FDF7A8FBA00601D5002216
:1033500000E0012220212846FDF79FFB600601D5F1
:10336000002200E001222846BDE870401021FDF750
:1033700094BB70B53649C3074FF4004401F1040211
:1033800001D00C6000E0146085074FF4805301D534
:103390000B6000E0136045074FF4006301D50B603C
:1033A00000E0136005074FF4806301D50B6000E077
:1033B0001360284BC6064FF4005501D51D6100E08F
:1033C0005D6186064FF4804501D51D6100E05D61B9
:1033D000450601D51C6100E05C6104064FF0020364
:1033E00001D50B6000E01360C3054FF0010001D56B
:1033F000086070BD106070BD70B5174C104904F1C5
:103400000C052078095C29700F49123931F8100039
:1034100068600020FFF767FF6868FFF7AAFF287859
:10342000FFF761FF6868FFF7A4FF2078411C217057
:10343000082801D30020207070BD00000008014062
:103440002801002024010020146D0008000C014018
:103450001008014000100140280000202DE9F84329
:10346000B24CB1480D2381142060A180A3710022C9
:1034700062812261E271162626771F2727724FF09C
:10348000050C4FF0E10804F12001C4E905C84FF430
:1034900080490860A1F804908B714A810A61CA7161
:1034A0000E770F72C1E905C801F1200541142860AB
:1034B000A980AB716A812A61EA712E772F72C5E902
:1034C00005C848218DF8031002218DF80210ADF8CF
:1034D00000906946FDF76FFAA888ADF800006946CC
:1034E0002868FDF768FAA088ADF8000069462068F2
:1034F000FDF761FABDE8F88330B582790021212318
:1035000020240D2A09D00B2A17D00C2A11D1846946
:103510000269A2420DD3037207E085690269AA42DB
:1035200008D30372C279002A03D101614189491C81
:10353000418130BD43699A42FBD30472F5E710B56F
:10354000044681880068FDF790FA217F162905D08E
:10355000152902D1012800D0002010BD0028FBD180
:10356000012010BD70B57148FFF7E9FF6F4C0126CF
:103570000025012804D02046FFF7E1FF28B105E02F
:103580002069401C2061E67100E0E571D4E9040186
:10359000884206D9A169884203D26448FFF7CFFF69
:1035A00088B1A1692069884204D96048FFF7C7FF44
:1035B000012808D0A1692069884209D95B48FFF732
:1035C000BEFF20B104E05948FFF796FF00E02561F7
:1035D00056482038FFF7B3FF544C203C012804D054
:1035E0002046FFF7ACFF28B105E02069401C2061B0
:1035F000E67100E0E571D4E90401884207D9A169C8
:10360000884204D249482038FFF799FF98B1A16950
:103610002069884205D945482038FFF790FF0128E6
:1036200009D0A169206988420BD940482038FFF7AA
:1036300086FF28B105E03D482038FFF75DFF00E038
:1036400025613A482030FFF77AFF384C20340128B2
:1036500004D02046FFF773FF28B105E02069401C25
:103660002061E67100E0E571D4E90401884207D9E0
:10367000A169884204D22D482030FFF760FF98B13D
:10368000A1692069884205D928482030FFF757FFF3
:10369000012809D0A169206988420BD9234820302C
:1036A000FFF74DFF28B105E020482030FFF724FF49
:1036B00000E025611D484030FFF741FF1B4C4034BE
:1036C000012804D02046FFF73AFF28B105E0206921
:1036D000401C2061E67100E0E571D4E904018842F4
:1036E00007D9A169884204D210484030FFF727FF6C
:1036F000A8B1A1692069884205D90C484030FFF77C
:103700001EFF01280BD0A1692069884206D907480D
:103710004030FFF714FF002800D1256170BDBDE8DF
:10372000704002484030E7E6000C014054010020A0
:103730002DE9F05FF94C0025DFF8E4B32078DFF8DD
:10374000E483DFF8E4A3F94FC1064FF020092E46C9
:1037500004D520F010002070FFF7B2FAF3E0222128
:103760008AF800109BF8070010B998F8070038B1E4
:103770002078002120F010002070BAF9020008E043
:103780002078C10607D520F010002070BAF9020099
:103790000121FFF7B0FAE44ABBF90A101C3A584677
:1037A000527B914202D0027A202A03D0C1790129AA
:1037B0000CD00EE0DC4A1C3A5173ABF80A60BAF840
:1037C0000210491CAAF80210012516E0017A2129ED
:1037D00022D08BF808902078C1060ED56DB120F06C
:1037E0001000207000259AF80010D14801F09FF8D1
:1037F000BAF90210CF4801F09AF8CB49B8F90A207B
:103800001C394046497B8A4202D0017A202940D0A7
:10381000C179012946D048E04681DBF81000B0F5B7
:10382000AF7F12D20A21B0FBF1F201FB1200002897
:10383000E3D1C14A10680128DFD1BAF80210491C4F
:10384000AAF8021001251660D7E7A0F25F11B1F5C2
:10385000AE7F12D80521B0FBF1F201FB1200002867
:10386000CBD1B54908680128C7D1BAF80200401C7D
:10387000AAF8020001250E60BFE7AF4801680129E0
:10388000BBD1BAF80210491CAAF802100125066043
:10389000B3E7A8F80A60BAF80210491EAAF80210A5
:1038A000012516E0017A21291CD088F8089020789B
:1038B000C1060ED56DB120F01000207000259AF8D9
:1038C00000109B4801F033F8BAF90210994801F052
:1038D0002EF8BAF9020042F20F7290422FDBAAF8DA
:1038E000022030E04681D8F81000B0F5AF7F0DD24D
:1038F0000A2111E0904801680129EAD1BAF80210C2
:10390000491EAAF8021001250660E2E7A0F25F1145
:10391000B1F5AE7F07D80521B0FBF1F201FB120033
:103920000028E7D0D5E7844908680128D1D1BAF842
:103930000200401EAAF8020001250E60C9E7002817
:1039400001DCAAF80260387A202803D1788904289B
:103950003FF405AFBDE8F09F2DE9F05F6F4C002507
:10396000DFF8BCB12078DFF8BC81DFF8BCA16F4F75
:10397000C1064FF020092E4604D520F0100020701B
:10398000FFF7F8F803E121218AF800109BF80700FF
:1039900010B998F8070038B12078002120F02000F5
:1039A0002070BAF9020008E02078C10607D520F09F
:1039B00010002070BAF902000121FFF7F5F85A4A09
:1039C000BBF90A101C3A5846127B914202D0027A87
:1039D000202A03D0C17901290CD00EE0524A1C3AAA
:1039E0001173ABF80A60BAF80210491CAAF8021069
:1039F000012516E0017A212922D08BF80890207841
:103A0000C1060ED56DB120F01000207000259AF887
:103A10000010474800F08BFFBAF90210454800F04B
:103A200086FF4149B8F90A201C394046097B8A4281
:103A300002D0017A202940D0C179012946D048E03E
:103A40004681DBF81000B0F5AF7F12D20A21B0FB3F
:103A5000F1F201FB12000028E3D1374A1068012877
:103A6000DFD1BAF80210491CAAF80210012516602D
:103A7000D7E7A0F25F11B1F5AE7F12D80521B0FBF8
:103A8000F1F201FB12000028CBD12B490868012874
:103A9000C7D1BAF80200401CAAF8020001250E6046
:103AA000BFE7254801680129BBD1BAF80210491CBB
:103AB000AAF8021001250660B3E7A8F80A60BAF870
:103AC0000210491EAAF80210012516E0017A2129E8
:103AD0001CD088F808902078C1060ED56DB120F072
:103AE0001000207000259AF80010114800F01FFF08
:103AF000BAF902100F4800F01AFFBAF9020042F2B8
:103B00000F7290423FDBAAF8022040E04681D8F8CD
:103B10001000B0F5AF7F1DD20A2121E02401002062
:103B2000740100209401002058000020540100205E
:103B3000009400080098000820010020F748016860
:103B40000129DAD1BAF80210491EAAF8021001259B
:103B50000660D2E7A0F25F11B1F5AE7F07D805216C
:103B6000B0FBF1F201FB12000028E7D0C5E7EB49FA
:103B700008680128C1D1BAF80200401EAAF8020064
:103B800001250E60B9E7002801DCAAF80260387A46
:103B9000202803D1788904283FF4F5AEDAE62DE930
:103BA000F05FDF4DDFF87C93DF4C2878DFF87C8313
:103BB000DF4FC1064FF0200A42F20F7B4FF00006A4
:103BC00004D520F010002870FEF736FFC0E000BFDB
:103BD00088F800A099F8070008B9E07938B128788A
:103BE000002120F010002870B8F9020008E02878C1
:103BF000C10607D520F010002870B8F90200012195
:103C0000FEF734FFC949B9F90A201C394846CB7A76
:103C10009A4202D0037A202B03D0C279012A0BD01A
:103C20000DE0CA72A9F80A60B8F80200401CA8F8B2
:103C300002000120C87004E0027A212A0DD089F820
:103C400008A0B4F90A20C87A824202D0207A20283B
:103C500030D0E079012836D038E04681D9F810001C
:103C6000B0F5AF7F0DD20A2211E0AC4A10680128EE
:103C7000E7D1B8F802305B1CA8F80230C8701660B3
:103C8000DFE7A0F25F12B2F5AE7F07D80522B0FBE6
:103C9000F2F302FB13000028E7D0D2E79F48026846
:103CA000012ACED1B8F802305B1CA8F80230CA70E5
:103CB0000660C6E76681B8F80220521EA8F8022006
:103CC0000120C87039E0207A212808D084F808A0A3
:103CD0002878C20631D5CA78012A20D02DE0668125
:103CE0002269B2F5AF7F0DD20A2011E08B4802683D
:103CF000012A22D1B8F802305B1EA8F80230CA703F
:103D000006601AE0A2F25F10B0F5AE7FEED8052093
:103D1000B2FBF0F300FB13200028E7D00DE0CE70DB
:103D200020F01000287098F80010824800F0FFFD85
:103D3000B8F90210804800F0FAFDB8F902205A459F
:103D400002DBA8F802B003E0002A01DCA8F8026058
:103D5000387A202803D1788904283FF439AFF9E56F
:103D60006F4910B50878C20604D520F0100008701D
:103D7000FEF748FE6D491F20087010BD2DE9F04781
:103D80006A4C684D4FF00008674E4FF00109684FCC
:103D90001C3C2DE0FFF7E4FFB5F90A00A17A884248
:103DA0000DD0297A20290AD1A072A5F80A80A1781D
:103DB0004046491C49B2A170012900DDA070B6F946
:103DC0000A00A17A88420CD0307A202809D1A6F8BE
:103DD0000A80A078401E40B2A070002801DA84F862
:103DE0000290B7F90A00042802DB052078812CE054
:103DF000A0780028CED028E0FFF7AEFDB5F90A0084
:103E0000A17A88420CD0287A202809D1A5F80A8006
:103E1000A2784046521C52B2A270012A00DDA07066
:103E2000B6F90A0088420CD0307A202809D1A6F8C9
:103E30000A80A078401E40B2A070002801DA84F801
:103E40000290B7F90A00052802DAA0780128D3D039
:103E5000BDE8F0872DE9F047344C1C3C6069FEF763
:103E600033FD304A94F804800A23B2F90AC00526CB
:103E700020270021294801254FF4AF794FF4AE7A6D
:103E8000C44504D092F80880B8F1200F05D092F80C
:103E900007C0BCF1010F04D008E084F804C05181D0
:103EA00025E092F808C0BCF1210F12D017721E4A0B
:103EB00094F80480B2F90AC0C44504D092F808C04E
:103EC000BCF1200F41D092F807C0BCF1010F3ED0E9
:103ED00042E0518112694A450CD2B2FBF3FC03FB6C
:103EE0001C22002AE3D10268012AE0D10160626944
:103EF000521C0FE0A2F25F1CD4451FD8B2FBF6FCA7
:103F000006FB1C22002AD2D10268012ACFD101600F
:103F10006269921C6261E570C9E70000200100201F
:103F2000240100207401002094010020580000208A
:103F30005401002000940008009800080268012A3B
:103F4000B5D101606269521DE4E751811AE092F82F
:103F500008C0BCF1210F08D01772FE4A1078C306C2
:103F600034D5E378012B29D030E0518112694A45DC
:103F70000BD2B2FBF3F603FB16223ABB0268012A0E
:103F800024D101606069401E0EE0A2F25F13534528
:103F90000DD8B2FBF6F306FB1322BAB90268012A68
:103FA00014D101606069801E6061E5700EE00268F6
:103FB000012A0BD101606069401FF5E7E17020F034
:103FC00010001070E448616900F0B1FC60690128DC
:103FD00001DC65613CE742F20F718842FADB616106
:103FE00036E72DE9F05FDD4C0021208800B2FEF7B6
:103FF00020FFDB4DDB490A26B5F90AC091F80E8097
:10400000012320270022D8484FF4AF7A4FF4AE7B2B
:104010004FF00509C44504D095F80880B8F1200F89
:1040200005D095F807C0BCF1010F04D008E081F875
:104030000EC06A8125E095F808C0BCF1210F12D0AE
:104040002F72CA4D91F80E80B5F90AC0C44504D04C
:1040500095F808C0BCF1200F30D095F807C0BCF12E
:10406000010F2DD031E06A812D6955450CD2B5FB89
:10407000F6FC06FB1C55002DE3D10568012DE0D1AF
:10408000026025886D1C0FE0A5F25F1CDC450ED890
:10409000B5FBF9F809FB1855002DD2D10568012DA3
:1040A000CFD102602588AD1C2580CB70C9E705689B
:1040B000012DC6D1026025886D1DF5E76A811AE0E1
:1040C00095F808C0BCF1210F08D0A2482F720378E0
:1040D000DD0634D5CD78012D29D030E06A812D69F7
:1040E00055450BD2B5FBF6F706FB17553DBB0568EA
:1040F000012D24D102602088401E0EE0A5F25F163B
:104100005E450DD8B5FBF9F709FB1755BDB9056834
:10411000012D14D102602088801E2080CB700EE01B
:104120000568012D0BD102602088401FF5E7CA7099
:1041300023F01001017021888D4800F0F8FB2088E1
:10414000962802D89620208004E440F6B8318842B0
:10415000FAD3218022E52DE9F05F8448854CC079AF
:10416000012802D1E079012873D08348C079012861
:104170006FD0DFF8EC81DFF8ECB1012698F807008A
:104180007E4F4FF0000A0BF11C09012861D056E068
:104190007B4887F800A05546A0F800A07948C0F8F1
:1041A00000A06681A8F80AA0FFF71BFF608901281C
:1041B000FAD001E0FFF74EFE60890228FAD080B203
:1041C00003281AD1207A202839D199F800001F2815
:1041D00006D0202807D0212807D0222808D00AE0BE
:1041E0008BF8025007E0022103E08BF8026002E046
:1041F00003218BF80210FFF7C1FD207A20281ED181
:1042000060890328F7D017E0FEF792FF3E70207A0E
:10421000202814D1B4F90A0006280DDB6581E57168
:104220004D4699F80010584800F081FBB5F902108E
:10423000564800F07CFB02E060890528E4D0E07974
:10424000012803D1A16920698842A1D2207A2128BE
:104250009ED0A3E42DE9F0474D48424C002501686B
:10426000B4F91200FEF79AFF3D4994F805C00A26FA
:10427000B1F90A30202700223B484FF4AF794FF4C0
:10428000AE7A4FF00508634504D091F808C0BCF140
:10429000200F03D0CB79012B03D005E063714A8155
:1042A0001FE00B7A212B0ED00F72304994F805C015
:1042B000B1F90A30634502D00B7A202B2ED0CB798E
:1042C000012B2DD02FE04A81096949450CD2B1FB61
:1042D000F6F306FB13110029E7D101680129E4D1A7
:1042E0000260618A491C0FE0A1F25F1353450ED8AA
:1042F000B1FBF8F308FB13110029D6D1016801299D
:10430000D3D10260618A891C61820125CDE70168F1
:104310000129CAD10260618A491DF5E74A8117E087
:104320000B7A212B06D00F72B4F9120001284DDC54
:1043300001204EE04A81096949452DD2B1FBF6F3CF
:1043400006FB13110029EFD101680129ECD10260AD
:10435000608A1FE024010020009C0008C2000020A9
:10436000740100203C000020200100209401002066
:1043700000B0000854010020340100202501002075
:10438000CE000020140100200094000800980008CE
:10439000E0000020401E0FE0A1F25F1353450ED84D
:1043A000B1FBF8F308FB13110029BDD10168012905
:1043B000BAD10260608A801E60820125B4E701687C
:1043C0000129B1D10260608A401FF5E7642801DB52
:1043D00064206082FA480178CA0604D5002D02D014
:1043E00021F01001017033E52DE9F05FF64CF5493D
:1043F0002046002590F90020B1F90AC0501C46B2B1
:10440000084694F80680077AF0484FF4AF7E4FF0E4
:104410000A094FF0050B4FF0200A2B46C44501D086
:10442000202F05D091F807C0BCF1010F04D005E0A2
:1044300084F806C04B8120E0212F0FD081F808A01E
:10444000E349A7790A46B1F90A60127ABE4201D05F
:10445000202A2CD0CE79012E2BD02CE0DB4F4B81A3
:1044600009693F6871450AD2B1FBF9FC09FB1C11CF
:104470000029E5D1012FE3D1036026700FE0A1F2FE
:104480005F16B6F5AE7F0CD8B1FBFBFC0BFB1C1125
:104490000029D5D1012FD3D1921C036005E001255D
:1044A000CEE7012FCCD1521D03602270F7E74B817C
:1044B00018E0212A08D081F808A000BF94F9000074
:1044C00000282DDC23702FE04B81096971450CD247
:1044D000B1FBF9F609FB16110029EFD1016801299A
:1044E000ECD103602078401E10E0A1F25F12B2F51B
:1044F000AE7F0ED8B1FBFBF60BFB16110029DDD108
:1045000001680129DAD103602078801E207001251E
:10451000D4E701680129D1D103602078401FF5E775
:10452000322801DB3220207094F90000FEF79FFE54
:10453000A34E3078C0060AD5002D08D094F900109B
:10454000A44800F0F4F9307820F01000307006E450
:104550002DE9F0419C4C94F90100FEF7AFFE99481B
:10456000E2790126B0F90A109B4F002591420CD048
:10457000027A202A09D1E17145816078C8B165705D
:1045800094F90110384600F0D2F99148E279B0F977
:104590000A10914211D0017A20290ED1458160780C
:1045A00048B1657094F901103846BDE8F04100F05B
:1045B000BEB96670E4E76670F4E7BDE8F0812DE906
:1045C000F047814C0025A069FEF730F97D4994F849
:1045D00008C00A26B1F90A30202700227B484FF490
:1045E000AF794FF4AE7A4FF00508634504D091F8E7
:1045F00008C0BCF1200F03D0CB79012B03D005E01C
:1046000023724A811FE00B7A212B0ED00F72704962
:1046100094F808C0B1F90A30634502D00B7A202B18
:104620002ED0CB79012B2DD02FE04A810969494545
:104630000CD2B1FBF6F306FB13110029E7D1016898
:104640000129E4D10260A169491C0FE0A1F25F13C6
:1046500053450ED8B1FBF8F308FB13110029D6D14E
:1046600001680129D3D10260A169891C0125A161DA
:10467000CDE701680129CAD10260A169491DF5E7AA
:104680004A8117E00B7A212B06D00F72A06901280E
:104690002DDC0120A0612FE04A81096949450CD237
:1046A000B1FBF6F306FB13110029EFD101680129D4
:1046B000ECD10260A069401E0FE0A1F25F135345E8
:1046C0000ED8B1FBF8F308FB13110029DED1016805
:1046D0000129DBD10260A069801E0125A061D5E718
:1046E00001680129D2D10260A069401FF5E74FF6A9
:1046F000FF71884200DBA16131490878C20604D508
:10470000002D02D020F01000087063E42DE9F0477E
:104710002D4C0025208AFEF726F92A4994F809C075
:104720000A26B1F90A302027002228484FF4AF7931
:104730004FF4AE7A4FF00508634504D091F808C0F5
:10474000BCF1200F03D0CB79012B03D005E06372BD
:104750004A811FE00B7A212B0ED00F721C4994F86E
:1047600009C0B1F90A30634502D00B7A202B3CD046
:10477000CB79012B3BD03DE04A81096949450CD2F8
:10478000B1FBF6F306FB13110029E7D101680129FB
:10479000E4D10260218A491C0FE0A1F25F13534566
:1047A0001CD8B1FBF8F308FB13110029D6D101681E
:1047B0000129D3D10260218A891C21820125CDE7FC
:1047C00024010020740100203C0000202001002072
:1047D0009401002000C0000800C8000801680129F9
:1047E000BCD10260218A491DE7E74A8117E00B7AB4
:1047F000212B06D00F72208A01282DD8012020827B
:104800002FE04A81096949450CD2B1FBF6F306FB5A
:1048100013110029EFD101680129ECD10260208A2F
:10482000401E0FE0A1F25F1353450ED8B1FBF8F321
:1048300008FB13110029DED101680129DBD10260D8
:10484000208A801E20820125D5E701680129D2D166
:104850000260208A401FF5E74FF6FF71884200D3BF
:10486000218205490878C20604D5002D02D020F027
:1048700010000870B7E500002401002010B50446C0
:10488000FCF7E9F93520FCF7F4FB2046FCF71EFAAB
:104890003520FCF7EEFBBDE81040FCF7E8B970B539
:1048A0000C460546FCF7D7F93520FCF7E2FB21461C
:1048B0002846FCF7AAFA3520FCF7DBFBFCF7D7F912
:1048C00070BD10B5FCF7C7F90120FCF744FBBDE84B
:1048D0001040FCF7CCB910B52948FFF7CFFF2948A5
:1048E000FFF7CCFF2848FFF7C9FF2848FFF7C6FFAE
:1048F0002748FFF7C3FF2748FFF7C0FF2648FFF709
:10490000BDFF2648FFF7BAFF2548FFF7B7FF254848
:10491000FFF7B4FF2448FFF7B1FF2448FFF7AEFFCD
:104920002348FFF7ABFFBDE810402248A6E72DE97A
:10493000F04104460646006888461F4D4FF48067E4
:10494000286008E0241DA01BB84202D93046FFF7BA
:1049500095FF20682860401CF4D141462046BDE800
:10496000F0419CE70368024613490B605B1C03D0CF
:10497000024650F8043FF8E71068086070470000EE
:104980000094000800980008009C000800A000089F
:1049900000A4000800A8000800AC000800B000084F
:1049A00000B4000800B8000800BC000800C00008FF
:1049B00000C4000800C80008600000202DE9F05F76
:1049C000A64D4FF00009DFF898A2DFF8988240F674
:1049D000FF7BA54CC5F8109021E000BFDAF800007D
:1049E00002F014F829690746884205D39F482F61D1
:1049F000006801F0EFFF686198F800004646C106C4
:104A000007D520F010003070002239461046FEF71E
:104A1000FFFA207A212807D0E0790128DED0287813
:104A20000028F9D0BDE8F09F4FEA060898F800107A
:104A3000CA064BD521F0100188F80010002211465B
:104A40000120FEF7E5FA41E0286900EB4000C117BC
:104A500000EB91708010E860142802DC1420E860FC
:104A600003E0584501DBC5F80CB0814F4FF40076E8
:104A700031463846FBF7F9FF024631463846FCF727
:104A80000CF8761031463846FBF7EFFF0246314608
:104A90003846FCF702F87748E96801800120287061
:104AA000A4F80A9084F807901F2020727248FFF73C
:104AB0003EFF72486969FFF73AFF7148A969FFF73D
:104AC00036FF704801687048FFF731FF207A2128CF
:104AD000A2D1E0790028A9D1B6E770B55F4D0024D6
:104AE0006A486C60AC600178002931D00470281DE0
:104AF00000F06AFC6348696840F6FF760160B142E5
:104B000001DB066002E0002900DC0460008881B25D
:104B10000020FDF71EFB01210020FDF7F8FA4F48A9
:104B2000083000F052FC5A48A9680160B14201DB2C
:104B3000066002E0002900DC0460008881B20020E9
:104B4000FDF70EFBBDE8704001211020FDF7DFBA34
:104B500070BD2DE9F05F4448C17901294ED1DFF8DD
:104B600034B19BF80710012948D04B4E0025404F27
:104B70004FF40074357021463846FBF776FF024645
:104B800021463846FBF789FF641021463846FBF77B
:104B90006CFF024621463846FBF77FFF002108469E
:104BA000FEF7CBF9FFF799FF2F4C1FE0E1793B4A65
:104BB0003B4BDFF8A8A0B4F90A70DC464FF02008A0
:104BC0004FF01F09012902D1207A202803D0207A32
:104BD00021280BD113E02248006801F017FF01469D
:104BE00000221046FEF714FAFFF7E8FE207A20288C
:104BF000DCD02128DAD0E0790128B8D012E70129E9
:104C0000E0D13570A78184F80880558182F808903A
:104C10005D8183F80890ACF80A508CF808908AF807
:104C20000050CFE7036800214FF47A62934200D925
:104C300001214368934201D941F002018368934204
:104C400001D941F00401C068904201D941F0080146
:104C50000F2901D000207047012070476400002018
:104C60000401002024010020340100200001002064
:104C700000080140CC00002000A0000800B400089B
:104C800000B80008E400002000A40008B8000020DC
:104C9000E8000020540100202501002074010020BC
:104CA0009401002070B5C64D044640212846FBF70C
:104CB000F1FD0028F9D0E1B22846FBF78AFD204635
:104CC00070BD401E00B20028FBDC704710B5BD4C23
:104CD00001212046FCF74FFF002805D02046BDE803
:104CE00010400121FCF753BF10BD2DE9F041012117
:104CF0008F073846FCF73FFF002861D0B2480078A4
:104D0000002857D1B14C6069401C6061B0484168CF
:104D1000491C416060690A21B0FBF1F201FB1200FD
:104D20000025F0B96078E0B1AA48007818B1AA4926
:104D30000888401C0880A948007818B1A84908884C
:104D4000401C0880FEF758FBA6480168491C01601A
:104D5000A5480178A54819B10168491C016000E027
:104D6000056060695021B0FBF1F201FB12000126E1
:104D700028B9607818B1FEF7F5FB9D4806606069B8
:104D80004FF4FA61B0FBF1F201FB120000B966705A
:104D90006069B0F57A6F0DD3A57000F005FB9548FA
:104DA000017881F0010101709348017841F0100110
:104DB000017065613846BDE8F0410121FCF7E7BEAE
:104DC000BDE8F08110B58D4C01212046FCF7D3FEE3
:104DD000002805D02046BDE810400121FCF7D7BED1
:104DE00010BD10B5864C01212046FCF7C4FE0028FA
:104DF00005D02046BDE810400121FCF7C8BE10BD1B
:104E000010B54FF480342046FDF748FA002807D04B
:104E10006D49012008702046BDE81040FDF74CBAEE
:104E200010BD10B501F01AF97648FBF73AFB01F016
:104E300087FB01F011FDFEF711FB01F03CFA01F0D8
:104E40003CF901F0DDFA01F0A5FCBDE8104001F0ED
:104E5000D6BC10B56C4C21685C4A9160491C08D1E5
:104E60000020906001F012F840F205512046FFF753
:104E70005EFD3220401E00B20028FBDC10BD10B5E4
:104E80007D20FBF774FA08B1FBF786FB45F255501D
:104E9000FDF71AFA0420FDF71AFA4FF4FA60FDF74D
:104EA00019FAFDF71AFABDE81040FDF71BBA30B544
:104EB000464AD3681C790470D3681B7A4370D36860
:104EC0005B788370D368DB78C370D3681D78057115
:104ED0005D7945719D7A8571DD79C5715D7A05725F
:104EE0009D784572DD7A85729B79C37213691B7850
:104EF00063400B7013698479057A5B786340C479E9
:104F00006C406340447A6340847A6340C47A63406F
:104F10004B70136904799B7863408B7012698378B6
:104F20004078D2785A404240CA7030BD274935484F
:104F300000B518311430FFF7BAFF24481830017853
:104F4000427801EB02218278C078120402EB006003
:104F500008441E4A2D49D06109681162814201D17D
:104F6000012000BD002000BD10B5FFF75AFFFFF77C
:104F7000DDFF1649087028B1FFF76BFF00F0E6FE71
:104F8000002010BDFEE7F0B54FF6FF740F4A41F266
:104F9000210510E080239688370404EA460600D5F0
:104FA0006E40968006781E4202D096886E409680AB
:104FB0005B08F0D1401C491EC9B2EBD29088F0BD0D
:104FC0000038014000080040B000002080000020B0
:104FD00058000020AE000020C8000020AF000020D4
:104FE000CA000020F4000020B4000020F0000020DF
:104FF00020010020A800002024010020002C0140F6
:1050000000040040B401002000900008F0FF0008F8
:10501000F0B504681460046800251C6001240CE0ED
:1050200050F824601768B74200D2166050F8246028
:105030001F68B74200D91E60641C8C42F0DB00225E
:1050400004E000BF50F82230521C1D448A42F9DBB4
:10505000B5FBF1F0F0BD30B5002305E051F8235069
:1050600004685B1C2C4404609342F7DB30BD30B510
:10507000002303E051F823505B1C2C449342F9DBDE
:10508000B4FBF3F1016030BD0022134601E008C01B
:10509000521C8A42FBDB7047FB4930B408464A7811
:1050A00040798AB901280FD14A6CF84B521C4A64E6
:1050B0001C680123A24200D38B71F54C2488A242C4
:1050C00002D3CB7100224A644870897930BCFEF764
:1050D00010B82DE9F047EC48EF4B014690F80DC0B1
:1050E0000A8DCF7B521C93F900604D6E0C6FDFF878
:1050F000A4830021E94B4FF4806A92B24FF4FA691D
:10510000BCF1000F15D0BCF1010F1BD190F804C009
:10511000BCF1000F16D058F8277052453C44046784
:1051200002850AD30185A20AC26696B1AA1AC28470
:1051300002E090F802C0EBE70167B0F9261099424F
:1051400002DCC384BDE8F0874945FBDBA0F826906C
:10515000F8E7C184F0E770B5CB4C207B012817D06D
:10516000A079CF4E4FF4807520B1012229463046F8
:10517000FBF793FCB4F92000502809DB0020A07154
:105180002084024629463046BDE87040FBF785BCC6
:1051900070BD2DE9F041BC4C207B012872D04FF44A
:1051A0008061C048FBF761FC0127002608B1E6706A
:1051B00000E0E770E078A178884201D1012200E0A8
:1051C0000022B94D6271B6482B784FF400711F2B45
:1051D00006D0202B0CD0212B14D0222B24D02BE056
:1051E00022B90022FBF759FC6E6017E0012217E09C
:1051F000B2B1B5F902206B68656B6A4393421BD963
:10520000012209E0002AF1D1B5F902206B68656B33
:105210006A43934210D90022FBF73FFC27750BE04D
:10522000FBF73BFC6E6007E04AB1E27C012A06D046
:1052300000226E60FBF731FC607888B120E0B5F9A0
:1052400002206B68656B6A43934204D20022FBF72D
:1052500024FCE774F0E70122FBF71FFCE674EBE7A0
:10526000607901280CD1207D012809D1606C8F491B
:10527000401C606426750968884201D3A771666482
:1052800060796070BDE8F0812DE9F0410220FCF703
:10529000E0FE002868D07C4C207A002864D1844845
:1052A0000078002860D000256574824A606D617CBA
:1052B00032F91130491CC9B2184461741029F6D36F
:1052C0006065606F401C606732284DDD04217448C2
:1052D000FBF7CBFB0127E0B3A07C401CA074608DE2
:1052E000401C06B26685606DC11700EB117000119D
:1052F00001F0ACFB0146A065206E01F003FB656583
:105300002066B6F5805F18DB65856FF00B0101F054
:10531000BAFCC4E917050646608B01F0AFFB3146C5
:1053200001F0F0FA01F056FB81B2E0630020FCF7D7
:1053300010FF01210020FCF7EAFEA07C0A21B0FB4F
:10534000F1F201FB120111B908B1A570A57427741F
:1053500002E0FFE7A770A574FFF71BFFFFF7FBFE56
:10536000A1796079FDF7C5FEBDE8F0410220FCF7A8
:105370007EBE10B500231A4605E000BF50F822405B
:10538000521C234492B28A42F8D3B3FBF2F010BD10
:105390003D4AB2F92420904201D301207047323AAD
:1053A0009042FBD80020704710B5374CE06D01F0FB
:1053B00011FBA06310BD10B504463348806D01F0A9
:1053C00025FB206010BD7047704770471020FCF728
:1053D000D9BE00EBC002002102EB001000E0491C26
:1053E000B1EB800FFBD370472DE9F047324C207AA8
:1053F000212847D1314D3248234EEA79C1791F2700
:105400004FF0000882B1012A3CD12A7A212A39D1F1
:10541000002937D1C6F8448006460320FCF7E6FF92
:10542000207A212850D058E0027A212A2AD1012955
:1054300028D1717A332910D033217172AA46A4F889
:105440000A804FF0010905460120FCF7CFFF86F8DE
:105450000B90207A212802D00AE03421EDE79AF857
:10546000070028B9297A212902D1E8790128EBD04F
:10547000717A1448FFF75BFA2772A4F80A80A5F83E
:105480000A802F725EE60000A80000205400002071
:105490004C000020D40100203D00002030F8FFFF28
:1054A00000080140000C014058000020500000207E
:1054B00081000020540200205401002074010020CB
:1054C0009401002000A80008E879012805D1287A75
:1054D000212802D1F07900289FD02772C4F81080CB
:1054E000A4F80A80A5F80A802F72BDE8F0474FF4AF
:1054F0007A706EE72DE9F047FE4C0021608B00B218
:10550000FDF797FCFC4894F818C0618BB0F90A309D
:1055100000220A25052620274FF4AF784FF4AE79F4
:10552000634504D090F808C0BCF1200F03D0C379C4
:10553000012B03D005E02376428119E0037A212B69
:105540000DD00772ED48237EB0F90A10994202D0BF
:10555000017A20291AD0C179012919D01BE0428192
:105560000069404507D2B0FBF5F305FB13000AE0E4
:10557000491C6183E6E7A0F25F134B45F8D8B0FB06
:10558000F6F306FB13000028F2D0DBE7428113E0BC
:10559000017A212907D00772608B4FF4FA71884293
:1055A00019D36183CEE542810069404508D2B0FB42
:1055B000F5F105FB11000BE0608B401E6083EBE70B
:1055C000A0F25F114945F7D8B0FBF6F106FB1100D8
:1055D0000028F1D0E0E70428E4D804206083B1E596
:1055E00088E7C44810B5B0F8440000B2FDF7BEF833
:1055F000C24900204881C049488110BD2DE9F041D1
:10560000BC4CE078FDF79FF8BB48E27D0126B0F97D
:105610000A10BB4F002591420BD0027A202A08D1F4
:10562000E1754581E078B8B1E570E1783846FFF77B
:105630007EF9B248E27DB0F90A10914210D0017AA9
:1056400020290DD14581E07840B1E570E1783846F8
:10565000BDE8F041FFF76BB9E670E6E7E670F5E705
:1056600010E62DE9F047A34C208F01B2B4F92400D5
:10567000FCF7FCFEA348E17A4FF00005C07908432F
:1056800066D1607A332863D1B4F924009A4AA085A0
:10569000677DB2F90A100A2605234FF4AF794FF05F
:1056A0002008B94202D0177A202F03D0D1790129DE
:1056B00004D006E061755581411C38E0117A21293A
:1056C0000FD082F808808D4F94F815C0B7F90A10F2
:1056D000614502D0397A20292BD0F97901292CD0C3
:1056E0002EE05581116949450CD8B1FBF6F706FB50
:1056F00017110029E7D1A16F0129E4D1411CA18430
:10570000A567E0E7A1F25F174F450BD2B1FBF3F7B6
:1057100003FB17110029D6D1A16F0129D3D1811C18
:10572000A56704E0A16F0129CDD1411DA567A18422
:10573000C9E77D81A18C491E34E0397A212908D03E
:1057400087F80880B4F92410884232D0F87958B329
:105750002FE07D81396949450BD2B1FBF6F306FB99
:1057600013110029EED1A16F0129EBD1A18C491EA3
:105770000FE0A1F25F16B6F5AE7F0DD8B1FBF3F6E0
:1057800003FB16110029DDD1A16F0129DAD1A18C0B
:10579000891EA184A567D5E7A16F0129D2D1A5678C
:1057A000A18C491FA184CDE7D07910B95648FFF7E5
:1057B000BEF8B4F9240042F20F71884201DBA184E3
:1057C000C0E40028FCDCA584BCE42DE9F04F494886
:1057D000484DDFF824C1877B4A48BCF90AE087B00E
:1057E000C179E87A95F8099001430EF0FF00069020
:1057F000288FDFF808B102B29CF807000590DCF8AA
:105800001030A86F1C46A3F25F130493BBF90A3053
:1058100003939BF807300293DBF810304FF0000A37
:10582000A3F25F1601962E780096AE7D9CF8088054
:105830009BF80850E7B1012F68D12E4F002965D1A0
:105840003946B9F1330F61D18946B1F91E10A9F873
:1058500030104F1C3FB2B64502D0B8F1200F7CD0BB
:10586000DDF814C0DFF890E0BCF1010F76D0DAE08B
:10587000204F00294AD13946B9F1330F46D1894624
:10588000B1F91C10A9F82E104F1C3FB2B64504D038
:10589000DFF864C0B8F1200F07D0DDF814C0DFF8DE
:1058A00058E0BCF1010F11D013E0069989F81610E9
:1058B000ACF80AA042F20F714846A9F81C708F425A
:1058C0005BDA00BFB9F91C10012068E0B8F1210FC4
:1058D00020D0DFF820C0DDF80C804C46BCF81CC09E
:1058E000B045ACF1010C0FFA8CFC01D0202D46D054
:1058F000029E0CE0A800002074010020940100200A
:1059000000AC00085401002000A0000812E1012EA4
:105910003FD040E04FF4AF755346AEF80AA0AC421A
:105920000CD80A21B4FBF1F501FB1541F1B9494648
:1059300001281BD18B67A9F81C7017E0049EAE42AA
:105940000DD20525B4FBF5F605FB164474B94C469B
:1059500001280BD1891CA36706E051E060E04C46AA
:10596000012803D1491DA367A9F81C10B9F91C30FF
:1059700042F20F7148468B42A4DB8183A2E7ABF869
:105980000AA05046A4F81CC0BCF1000F9ADCA0830A
:1059900098E7212D08D020208BF80800009807B048
:1059A000BDE8F04FFCF7D4BD5546ABF80AA0B3F5FF
:1059B000AF7F0BD20A21B3FBF1F601FB1631C9B957
:1059C000012817D1A567A4F81CC013E0019EB6F505
:1059D000AE7F0AD80526B3FBF6F706FB17334BB9A3
:1059E000012807D1891EA56703E0012802D1491FBC
:1059F000A567A183B4F91C000028BFDCA58361E77B
:105A0000069989F81610ACF80AA042F20F714846C0
:105A1000A9F81E708F424ADAB9F91E10012058E029
:105A2000B8F1210F12D0DFF80CC5DDF80C804C4620
:105A3000BCF81EC0B045ACF1010C0FFA8CFC01D0D3
:105A4000202D36D0029E012E3DD03EE04FF4AF75A2
:105A50005346AEF80AA0AC420CD80A21B4FBF1F5CB
:105A600001FB1541E1B94946012819D18B67A9F815
:105A70001E7015E0049EAE420BD20525B4FBF5F670
:105A800005FB164464B94C46012809D1891CA3675B
:105A900004E04C46012803D1491DA367A9F81E1054
:105AA000B9F91E3042F20F7148468B42B4DBC18314
:105AB000B2E7ABF80AA05046A4F81EC0BCF1000F34
:105AC000AADCE083A8E7212D08D020208BF808006D
:105AD000009807B0BDE8F04FFCF7B8BD5546ABF8ED
