:020000040800F2
:10000000D0080020C9020008C9220008CB2200083D
:10001000CD220008CF220008D122000800000000F5
:10002000000000000000000000000000D3220008D3
:10003000D522000800000000D7220008D9220008BD
:10004000E3020008E3020008E3020008E3020008FC
:10005000E3020008E3020008E3020008E3020008EC
:10006000E3020008E3020008E3020008B34F0008BF
:10007000E3020008E3020008E3020008E3020008CC
:10008000E3020008E3020008E3020008E3020008BC
:10009000E3020008E3020008E3020008DB22000894
:1000A000E3020008E3020008E3020008E30200089C
:1000B000B74A0008894B0008994A0008E302000883
:1000C000E3020008E3020008E3020008E30200087C
:1000D000E3020008DD220008E3020008E302000852
:1000E000E3020008E3020008E302000800F002F85F
:1000F00000F03AF80AA090E8000C82448344AAF188
:100100000107DA4501D100F02FF8AFF2090EBAE885
:100110000F0013F0010F18BFFB1A43F0010318473B
:10012000C0690000E0690000103A24BF78C878C1B7
:10013000FAD8520724BF30C830C144BF04680C60ED
:10014000704700000023002400250026103A28BF35
:1001500078C1FBD8520728BF30C148BF0B60704739
:100160001FB51FBD10B510BD06F053FA1146FFF7BD
:10017000F7FF04F0CAFD06F071FA03B4FFF7F2FFCF
:1001800003BC06F075FA0000484810B5016841F05C
:10019000010101604168464A114041600168454AD9
:1001A00011400160016821F480210160416821F45F
:1001B000FE0141604FF41F0181600021C16200F027
:1001C00033F83D494FF00060086010BD30B5374945
:1001D00048683A4A10F00C03394803D0042B01D088
:1001E000082B01D0026015E04B684C6803F47013D3
:1001F0004FF0020514F4803F05EB934307D0CC6A1F
:1002000004F00F04641CB2FBF4F25A43EAE72D4AEF
:100210005343036049682A4AC1F30311121D515C1C
:100220000268CA40026030BD0CB500211F48019130
:100230000091026842F4803202604FF4A0630268C9
:1002400002F400320092019A521C0192009A12B9F3
:10025000019A9A42F3D10268920324D501210091B8
:10026000416841604168416041684160416821F4F2
:100270007C114160416841F498114160016841F08E
:100280008071016001688901FCD5416821F003019A
:100290004160416841F0020141604168C1F3810160
:1002A0000229FAD10CBD00910CBD000000100240E3
:1002B0000000FFF8FFFFF6FE08ED00E000127A00F4
:1002C0000000002000093D00094880470948004718
:1002D000FEE7FEE7FEE7FEE7FEE7FEE7FEE7FEE7F6
:1002E000FEE7FEE704480549054A064B7047000053
:1002F00089010008ED000008D0020020D00800208D
:10030000D0040020D0040020AC48016841F0010175
:1003100001604168AA4A114041600168A94A114040
:100320000160016821F480210160416821F4FE012F
:1003300041604FF41F0181600021C16270479F49F5
:100340000A6822F480320A600A6822F480220A6075
:10035000B0F5803F07D0B0F5802F03D1086840F496
:10036000A02008607047086840F48030F9E7024632
:10037000002053099149012B0AD0022B0AD0496A67
:1003800002F01F02012393400B4200D0012070476E
:100390000968F5E7096AF3E718B500204FF4A0648F
:1003A00000903120FFF7E3FF0099491C0091A14222
:1003B00001D00028F5D03120FFF7D9FF002800D068
:1003C000012018BD7D490A6822F0F80242EAC00007
:1003D000086070477C4908607047784A5368084352
:1003E00023F47413184350607047774908667047C8
:1003F000724B10B5DA6A754C084322401043D8623C
:1004000010BD6E4A516821F00301014351607047ED
:100410006A48406800F00C007047684A516821F053
:10042000F001014351607047644A516821F4E06172
:1004300001435160704761494A6822F4605242EAC0
:10044000C000486070475D4A0029517A01D00143DD
:1004500000E08143517270475B49C1F8D800704792
:10046000564A516821F44041014351607047534955
:10047000002281F8202081F82020012802D00428C1
:1004800002D1052081F8200070475149086070476B
:100490004A490A6A02430A6270474D494439086072
:1004A000704730B545494A6812F00C03494A03D0F9
:1004B000042B01D0082B01D0026015E04B684C687A
:1004C00003F470134FF0020514F4803F05EB9343DF
:1004D00007D0CC6A04F00F04641CB2FBF4F25A4358
:1004E000EAE73D4A534303604A680F233B4C03EA63
:1004F0001212A35C0268DA4042604B68072505EAE5
:100500001323E35C22FA03F383604B6805EAD323E9
:10051000E35CDA40C2604968032303EA9131231F98
:10052000595CB2FBF1F1016130BD244A00295169E7
:1005300001D0014300E08143516170471F4A002907
:10054000916901D0014300E08143916170471B4AEA
:100550000029D16901D0014300E08143D161704796
:10056000164A0029D16801D0014300E08143D160DF
:100570007047124A0029116901D0014300E081430C
:100580001161704712494039086070470E49C864CC
:1005900070470A49C87170470848416A41F0807144
:1005A00041627047054A0146002092680A4200D025
:1005B0000120704701498872704700000010024016
:1005C0000000FFF8FFFFF6FE00004242F0FFFEFFD2
:1005D0008004424200127A0000093D001800002009
:1005E000C44910B588420AD101218C032046FFF787
:1005F000B7FF2046BDE810400021FFF7B1BFBE495C
:10060000884202D101214C0410E0BC49884202D149
:1006100001218C040AE0BA49884202D10121CC04AC
:1006200004E0B84988420AD101210C052046FFF7B1
:10063000A0FF2046BDE810400021FFF79ABF10BD83
:1006400030B50446008A85B00D464CF6FF7108406F
:10065000E98801432182A1894EF6F3100140A88860
:100660002A8910436A890A431043A081A08A4FF661
:10067000FF410840A9890143A1826846FFF711FFA5
:100680009C48844201D1039800E00298A1890904A2
:1006900000EBC00101EB0010296801D5490000E022
:1006A0008900B0FBF1F06422B0FBF2F109010B0903
:1006B0006FF018056B4300EB8300A3891D044FF016
:1006C000320306D503EBC000B0FBF2F000F00700E8
:1006D00005E003EB0010B0FBF2F000F00F00084360
:1006E000208105B030BD4FF416510160002181809A
:1006F000C18001810C2242818181704710B5038A3B
:100700004FF2FF0213400A884C8822438C88C98824
:100710000C4322431A43028210BD00210180418014
:100720008180C18070470029818902D041F4005145
:1007300001E021F400518181704710B5C1F34213EB
:1007400001F01F040121A140012B07D0022B07D08B
:100750001430002A026805D00A4304E00C30F8E7A0
:100760001030F6E78A43026010BD002A828A01D069
:100770000A4300E08A4382827047028A22F00F0215
:100780000282028A0A4302827047828922F400624E
:10079000828182890A43828170470029818902D03F
:1007A00041F0020101E021F0020181817047028ADB
:1007B00022F020020282028A0A4302827047002944
:1007C000018A02D041F4804101E021F4804101829C
:1007D0007047C1F30801818070478088C0F308002A
:1007E0007047818941F0010181817047028BD2B24B
:1007F0000283028B42EA012101837047028B02F4DB
:100800007F420283028B0A43028370470029818A58
:1008100002D041F0200101E021F0200181827047E7
:100820000029818A02D041F0100101E021F010017D
:10083000818270470029818A02D041F0080101E0DD
:1008400021F00801818270470029818902D041F49A
:10085000004101E0C1F30E01818170470029818AC6
:1008600002D041F4006101E021F40061818270470F
:10087000828A22F004028282828A0A43828270473C
:100880000029818A02D041F0020101E021F0020139
:10089000818270470246002012880A4200D001205F
:1008A0007047C9430180704730B501F01F02012431
:1008B0000025C1F3421304FA02F2012B0FD0022BE0
:1008C0000FD0838A4FEA11210088134204FA01F401
:1008D00000EA040001D000B10125284630BD83891B
:1008E000F0E7038AEEE70A0A01219140C94301803B
:1008F00070470000003801400044004000480040BC
:10090000004C004000500040914910B5884206D18B
:1009100001210420FFF724FE002104203BE08D4943
:10092000884206D101210820FFF71AFE0021082085
:1009300031E08949884206D101211020FFF710FEDD
:100940000021102027E08549884206D1012120207E
:10095000FFF706FE002120201DE08149884206D1D4
:1009600001214020FFF7FCFD0021402013E07D49DC
:10097000884206D101218020FFF7F2FD002180206E
:1009800009E0794988420AD1841501212046FFF700
:10099000E7FD00212046BDE81040FFF7E1BD10BD96
:1009A00010B501210846FFF7DBFD0021BDE810402E
:1009B0000120FFF7D5BDF0B5CA78002502F00F037E
:1009C000D20601D58A7813430A784FF00F0E12F041
:1009D000FF0F4FF001021DD0D0F800400F8802FA3F
:1009E00005F63740B74211D14FEA850C0EFA0CF7E5
:1009F00024EA070703FA0CF43C43CF78282F02D0EF
:100A0000482F02D002E0466100E006616D1C082D0F
:100A1000E4D304600C88FF2C1ED944685FF0000604
:100A200006F1080702FA07F50F882F40AF420FD1F1
:100A30004FEA860C0EFA0CF7BC4303FA0CF73C4362
:100A4000CF78282F00D14561CF78482F00D105619C
:100A5000761C082EE4D34460F0BD4FF6FF71018090
:100A6000022181700421C170704702460020926803
:100A70000A4200D001207047806880B27047024669
:100A80000020D2680A4200D001207047C06880B2BE
:100A9000704701617047416170470AB10161704759
:100AA00041617047C160704741F480328261816169
:100AB00082618169806970472C4B10B51A684FF6C6
:100AC0008074224042EA00100843186010BD284993
:100AD000C8617047F0B5254C002801DAE36900E0F1
:100AE0006368420D120185B2C0F301579540C0F30F
:100AF0000346032F05D0C2020AD50322B240934316
:100B000007E023F07062636823F07063636002E0C3
:100B1000AB4343F0706201B12A43002801DAE2617D
:100B2000F0BD6260F0BD10B58A0721F003040F49E3
:100B3000130F21440F228C689A4094438C608A687A
:100B4000984002438A6010BD0949C1F8DC00704733
:100B500000080140000C0140001001400014014059
:100B600000180140001C014000200140000001402D
:100B7000000020422849084328490860704770B5A2
:100B80000F23C47801780122F4B1244C24684578FD
:100B900004F4E064C4F5E064240AC4F10406E3400C
:100BA0008478B5401C402C4301F1E021230181F8F9
:100BB0000034007800F01F018A404009800000F1F5
:100BC000E020C0F8002170BD01F01F0082404809FC
:100BD000800000F1E020C0F8802170BD104A114073
:100BE00001430E48001F016070470C4A121D002986
:100BF000116801D0014300E08143116070474FF05C
:100C0000E0210428086903D020F00400086170473F
:100C100040F00400FAE700000000FA050CED00E0E7
:100C200080FFFF1FFC4A116801F038010143116089
:100C30007047F9490A6822F008020A600A6802430C
:100C40000A607047F4490A6822F010020A600A68D4
:100C500002430A607047F048F0494160F049416042
:100C60007047ED48ED494160ED4941607047EA4801
:100C7000016941F0800101617047E748016941F075
:100C8000800101617047E4490420CA68D20701D09D
:100C900001207047CA68520701D502207047C96811
:100CA000C906FBD50320704700B50346FFF7EBFFED
:100CB00003E000BFFFF7E7FF5B1E012803D0002B16
:100CC00000D1052000BD002BF4D1FAE770B5054630
:100CD0004FF430263046FFF7E7FF042811D1CE4C01
:100CE000206940F0020020616561206940F0400009
:100CF00020613046FFF7D8FF216941F6FD721140AF
:100D0000216170BD30B54FF430252846FFF7CCFF88
:100D1000042810D1C04C206940F0040020612069F3
:100D200040F0400020612846FFF7BEFF216941F6F0
:100D3000FB721140216130BD00B50346FFF7A3FFF0
:100D400003E000BFFFF79FFF5B1E012803D0002BCD
:100D500000D1052000BD002BF4D1FAE730B54FF4E7
:100D600030252846FFF7E8FF042810D1AA4C206957
:100D700040F004002061206940F0400020612846D6
:100D8000FFF7DAFF216941F6FB721140216130BDA6
:100D9000A1490020C969890700D50120704770B5B5
:100DA000A525FFF7F5FF00B100254FF430263046AA
:100DB000FFF77AFF042827D1974C9848A0609848FD
:100DC000A060206940F020002061206940F04000D0
:100DD00020613046FFF768FF41F6EF7604280ED118
:100DE000206941F6DF7108402061206940F0100061
:100DF00020618C4805804FF40050FFF755FF05280F
:100E000002D021693140216170BDF8B5064600204D
:100E10004FF4005C00900D466046FFF745FF042844
:100E200016D17D4C206940F001002061358060467C
:100E3000FFF73AFF41F6FE77042806D1B61C280CCE
:100E4000009630806046FFF72FFF2169394021610D
:100E5000F8BDF0B506464FF400570D463846FFF78B
:100E600023FF04280CD16C4C206940F00100206164
:100E700035803846FFF718FF2169BA1E11402161FD
:100E8000F0BDF0B506464FF400570D463846FFF763
:100E90000BFF042813D1604C6048A0606048A0603C
:100EA000206940F01000206135803846FFF7FCFED5
:100EB000052804D0216941F6EF7211402161F0BD8F
:100EC0002DE9F041C04300F0FF0CC0F30727C0F349
:100ED0000746050E4FF400584046FFF7E5FE04288C
:100EE00037D14D4C4D49A1604D49A160216941F078
:100EF00010012161BCF1FF0F08D04A480830A0F86A
:100F000000C04046FFF7D0FE04281BD1FF2F07D0BA
:100F100044480A3007804046FFF7C6FE042811D136
:100F2000FF2E07D03F480C3006804046FFF7BCFE3E
:100F3000042807D1FF2D07D03A480E3005804046DF
:100F4000FFF7B2FE052804D0216941F6EF72114087
:100F50002161BDE8F08170B505464FF4302630467A
:100F6000FFF7A2FE042818D12B4C2C48A0602C4877
:100F7000A060206940F020002061206940F040001E
:100F800020613046FFF790FE41F6DF71042805D05E
:100F9000052802D022690A40226170BD20690840FC
:100FA0002061206940F0100020611E480DB1002131
:100FB00000E0A52101803046FFF776FE0528ECD041
:100FC000216941F6EF721140216170BDF0B5124CFC
:100FD0000746124816460D46A0601148A0604FF41F
:100FE000005C6046FFF760FE042814D1206940F0E1
:100FF0001000206135430B493D43891C45F0F80042
:1010000008806046FFF750FE052804D0216941F6AC
:10101000EF7211402161F0BD0020024023016745BD
:10102000AB89EFCD00F8FF1F1C48C06980087047EE
:101030001A48006A7047194900200968890600D5D6
:1010400001207047154A0029116901D0014300E0D1
:1010500081431161704701460020104A012903D0E5
:10106000D2680A4203D17047D169C907FBD0012079
:1010700070470A49C860704708490420CA68D20707
:1010800001D001207047CA68520701D5022070477D
:10109000C968C906FBD50320704700000020024044
:1010A000F94910B5884202D10121C41486E0B0F19B
:1010B000804F09D0F54988420DD101210220FFF768
:1010C00058FA0021022064E001210846FFF751FA96
:1010D000002101205DE0EE49884206D10121042073
:1010E000FFF747FA0021042053E0EA49884206D17D
:1010F00001210820FFF73DFA0021082049E0E649D8
:10110000884206D101211020FFF733FA0021102078
:101110003FE0E249884206D101212020FFF729FA69
:101120000021202035E0DE49884202D1012144140B
:1011300044E0DC49884202D10121CC043EE0DA4996
:10114000884202D101210C0538E0D849884202D1F9
:1011500001214C0532E0D649884206D101214020C8
:10116000FFF707FA0021402013E0D249884206D158
:1011700001218020FFF7FDF90021802009E0CE4900
:1011800088420AD1841501212046FFF7F2F9002197
:101190002046BDE81040FFF7ECB9C849884202D1AB
:1011A00001210C040AE0C649884202D101214C0405
:1011B00004E0C44988420AD101218C042046FFF78B
:1011C000CFF92046BDE810400021FFF7C9B910BD96
:1011D00030B50288AC4BB24C98420DD0A0420BD037
:1011E000B0F1804F08D0A94DA84205D0A84DA84223
:1011F00002D0A84DA84203D122F070054A882A43A4
:10120000A54DA84206D0A54DA84203D022F44075B2
:10121000CA882A4302808A8882850A880285984281
:101220000AD0A04208D0A54A904205D0A44A9042D4
:1012300002D0A44A904201D1097A0186012181821B
:1012400030BD30B5028C22F001020284028C83880A
:10125000048B22F0020224F073050C882C430D89C4
:1012600015434A882A43884DA8420BD08C4DA8428A
:1012700008D0924DA84205D0914DA84202D0914D80
:10128000A8420DD122F008054A8923F440732A436D
:1012900022F004058A882A438D891D43CB892B437C
:1012A00083800483C9888186028430BD70B5028C36
:1012B00022F010020284028C8488038B0D8823F4B0
:1012C000E6464FF6FF7303EA052535430E8922F003
:1012D000200203EA061616434A8803EA0212324342
:1012E000694EB04202D06E4EB04215D122F0800657
:1012F0004A8924F4406403EA0212324322F0400691
:101300008A8803EA021232438E8903EA860626435C
:10131000CC8903EA8404344384800583C988018727
:10132000028470BD70B5028C22F480720284028C3B
:101330008488838B0D8823F073031D4322F400738C
:101340000E894FF6FF7202EA06261E434B8802EA18
:10135000032333434C4EB04202D0514EB04215D11C
:1013600023F400664B8924F4405402EA03233343F8
:1013700023F480668B8802EA032333438E8902EAD2
:1013800006162643CC8902EA0414344384808583FC
:10139000C9888187038470BD70B5028C22F48052A5
:1013A0000284048C8288838B0D8823F4E6464FF6F2
:1013B000FF7303EA0525354324F400560C8903EA3C
:1013C000043434434E8803EA063626432E4CA042AA
:1013D00002D0334CA04205D122F480448A8903EA2A
:1013E0008212224382808583C988A0F84010068437
:1013F00070BD828B22F440628283828B4FF6FF7332
:1014000003EA01210A4382837047828B22F00C0297
:101410008283828B0A4382837047028B22F440626C
:101420000283028B4FF6FF7303EA01210A43028312
:101430007047F0B5048C24F010040484078B048CEE
:101440004FF6FF7527F4734705EA03333B4305EA7C
:1014500002221A430C4B05EA011698420ED0104B9B
:1014600098420BD0B0F1804F08D0084B984205D07D
:10147000074B984202D0074B984225D124F0200117
:10148000314341F0100124E0002C014000040040F1
:1014900000080040000C0040001000400014004014
:1014A00000340140004C0140005001400054014014
:1014B00000180040001C0040002000400040014097
:1014C000004401400048014024F0A0030B4343F0D6
:1014D000100102830184F0BD028B22F00C02028312
:1014E000028B0A430283704770B5048C24F0010418
:1014F0000484058B048C4FF6FF7606EA031313432E
:1015000025F0F305F94A2B4390420ED0F84A904259
:101510000BD0B0F1804F08D0F64A904205D0F64A81
:10152000904202D0F54A904202D124F0020201E03A
:1015300024F00A020A4342F001010383018470BDD2
:101540002DE9F05F0D4604460888E84FDFF8A0C398
:10155000DFF8A0834988AA882B894FF0804960B3BF
:10156000042832D04FF6FF7E082836D0208C9B46C8
:1015700020F480502084A38B268C704600EA02223F
:1015800023F473431A4300EA0B3010430EEA013E82
:10159000BC420BD0644509D04C4507D0444505D02A
:1015A000D54A944202D0D54B9C4245D126F40051F5
:1015B00041EA0E0141F4805143E02046FFF794FFD9
:1015C000E9882046BDE8F05F86E72046FFF731FF57
:1015D000E9882046BDE8F05F1FE7208C20F480708A
:1015E0002084B4F81CA0208C0EEA031313432AF0C5
:1015F000F30A0EEA012B43EA0A03BC420BD064450E
:1016000009D04C4507D0444505D0BB4A944202D08E
:10161000BA4A944204D120F4007040EA0B0002E080
:1016200020F42060084340F48070A3832084E9887C
:101630002046BDE8F05FE8E626F402420A4342F4A1
:101640008051A08320462184E988BDE8F05FD0E680
:101650002DE9F0410C46002649880746012501B9CD
:101660000226A288012A00D1022520882389002889
:10167000384610D0FFF7DDFEE1883846FFF7CDFE93
:1016800023892A4631463846FFF72EFFE18838463F
:10169000BDE8F04120E7FFF727FFE1883846FFF774
:1016A0001BFF23892A4631463846FFF7C2FEE188F0
:1016B0003846BDE8F041B0E610B50A884B88CC88C2
:1016C0001A438B8823431A430B891A434B89898910
:1016D0001A430A43A0F8442010BD4FF6FF718180E1
:1016E00000210180C180418001727047002101808A
:1016F00041808180C180018141818181C1817047A8
:1017000000210180418001228280C18001817047D7
:101710000021018041808180C180018141818181DE
:1017200070470029018802D041F0010101E021F059
:10173000010101807047002930F8441F02D041F4B4
:10174000004101E0C1F30E0101807047002A828947
:1017500001D00A4300E08A4382817047818270474A
:101760001143A0F848107047002A828901D00A432B
:1017700000E08A4382817047018921F007010181DD
:101780007047028922F070020A430281704700B557
:101790000346FFF7F6FF188940F00700188100BDE7
:1017A00070B516460D46602904464FF001023146D9
:1017B0000AD0FFF799FE29462046FFF7E2FF20896D
:1017C00040F00700208170BDFFF733FEF3E730B52E
:1017D00004894FF6FF7505EA03231343E4B20B4374
:1017E0002343038130BD10B50446FFF7F0FF208985
:1017F00040F07700208110BD10B50446FFF7E7FFE9
:10180000208940F48040208110BD0185828270478C
:10181000028822F070020A430280704770B5058981
:10182000048B068C25F007050D434FF6FC410C4058
:1018300040F201110C434FF6FF7101EA031126F04B
:1018400022061143314305810483018470BD028B5C
:1018500022F070020A4302837047028B4FF6FF7337
:1018600022F4E04203EA0121114301837047828B95
:1018700022F070020A4382837047828B4FF6FF7317
:1018800022F4E04203EA01211143818370470029D9
:10189000018802D041F0800101E021F08001018047
:1018A00070470029818802D041F0040101E021F055
:1018B0000401818070470029818802D041F008012D
:1018C00001E021F00801818070470029818802D061
:1018D00041F0010101E021F0010181807047028B9C
:1018E00022F008020A43028370470000002C0140E6
:1018F000003401400004004000080040000C00409B
:10190000028B4FF6FF7322F4006203EA01211143B8
:101910000183E9E7828B22F008020A438283E3E72E
:10192000828B4FF6FF7322F4006203EA0121114318
:101930008183D9E7028B22F004020A430283D3E7B2
:10194000028B4FF6FF7322F4806203EA01211143F8
:101950000183C9E7828B22F004020A438283C3E732
:10196000828B4FF6FF7322F4806203EA0121114358
:101970008183B9E7028B22F080020A430283B3E736
:10198000028B4FF6FF73C2F30E0203EA01211143EB
:101990000183A9E7828B22F080020A438283A3E7B6
:1019A000828B4FF6FF73C2F30E0203EA012111434B
:1019B000818399E7028C22F002020A43028493E7B2
:1019C000028C22F008020A4302848DE7028C4FF653
:1019D000FF7322F0200203EA01111143018483E71F
:1019E000028C4FF6FF7322F0800203EA01111143CB
:1019F000018479E7028C4FF6FF7322F4007203EA48
:101A00000121114301846FE7028C4FF6FF7322F42A
:101A1000006203EA01211143018465E7028C4FF65D
:101A2000FF7322F4005203EA0131114301845BE7A2
:101A300010B50123048C8B409C430484038C8A40A2
:101A40001343038410BD10B50423048C8B409C43C6
:101A50000484038C8A401343038410BD30B50124F1
:101A6000058C00F118038C40A543058489B1082931
:101A70000FD0091FC1F34E001844016821F4E04162
:101A8000016001684FF6FF7303EA0222114301600F
:101A900030BD03EB5100016821F070010160016865
:101AA000F4E70029018802D041F0020101E021F0B1
:101AB0000201018018E70029018802D041F00401E9
:101AC00001E021F0040101800EE70029818802D0A5
:101AD00041F0800101E021F08001818004E702886B
:101AE00022F00802028002880A430280FCE6828813
:101AF00022F07002828082880A438280F4E60289A2
:101B000022F00702028102890A430281ECE602897F
:101B100022F08002028102890A430281E4E6818484
:101B2000E2E68185E0E68186DEE60187DCE6818704
:101B3000DAE6A0F84010D7E6028822F4407202806C
:101B400002880A430280CFE6808ECDE6008FCBE686
:101B5000808FC9E6B0F84000C6E6808CC4E6008DF0
:101B6000C2E602460020128A0A4200D00120BBE6EB
:101B7000C9430182B8E602460020138A92890B42CB
:101B800002EA010202D0002A00D00120ACE6C943DB
:101B90000182A9E6C54910B5884202D10121441548
:101BA0000AE0C349884202D10121041504E0C14979
:101BB00088420AD10121CC032046FEF7D1FC204601
:101BC000BDE810400021FEF7CBBC10BD10B5426847
:101BD000B94B0C791A400B6842EA04221343436064
:101BE0008368B64A1340D1E9024222434C7943EA62
:101BF00044031A438260C26A097C22F47002491EBF
:101C0000C9B242EA0151C16210BD002101600171F7
:101C100041718160C16001210174704700298168B0
:101C200002D041F0010101E021F001018160704723
:101C30000029816802D041F4807101E021F48071B3
:101C400081607047002A4268C9B201D00A4300E0AF
:101C50008A4342607047816841F0080181607047A3
:101C6000014600208968090700D501207047816876
:101C700041F00401816070470146002089684907EE
:101C800000D5012070470029816802D041F4A001ED
:101C900001E021F4A00181607047014600208968BD
:101CA000490200D5012070474268491E22F4604273
:101CB00042EA4131416070470029416802D041F455
:101CC000006101E021F400614160704770B50724B4
:101CD00009290AD9C568A1F10A0606EB4606B440EF
:101CE000A543B3401D43C56007E0056901EB41060C
:101CF000B440A543B3401D4305611F23072A09D201
:101D0000446B521E02EB820293409C4391400C4371
:101D1000446370BD0D2A09D2046BD21F02EB82020C
:101D200093409C4391400C43046370BDC46A0D3AD8
:101D300002EB820293409C4391400C43C46270BD0D
:101D40000029816802D041F4801101E021F4801162
:101D500081607047C06C80B2704754484C30006856
:101D600070470029416802D041F4806101E021F40C
:101D70008061416070470029416802D041F4805180
:101D800001E021F4805141607047826822F4E04212
:101D90000A43826070470029816802D041F4004103
:101DA00001E021F40041816070470029816802D080
:101DB00041F4021101E021F40211816070470146F3
:101DC00000208968890200D50120704770B507247A
:101DD00009290AD9C568A1F10A0606EB4606B440EE
:101DE000A543B3401D43C56007E0056901EB41060B
:101DF000B440A543B3401D430561836BC3F3015455
:101E0000121B921C02EB82041F22A2409343A140AA
:101E10000B43836370BD826B491E22F4401242EA79
:101E200001518163704708B508440090026008BD05
:101E300008B5084428300090006880B208BD4268A8
:101E40001F4B1A400A4342607047416282627047EA
:101E5000426822F01F020A4342607047134908316A
:101E60000028086802D040F4000001E020F40000DF
:101E7000086070470246002012680A4200D0012024
:101E80007047C9430160704710B50246002054688E
:101E90000B0AC9B20C401168194202D0002C00D0C4
:101EA000012010BD6FEA112101607047002401403C
:101EB00000280140003C0140FFFEF0FFFDF7F1FF6C
:101EC000FFFD3FFF01684FF6FE72114001600021E7
:101ED000016041608160C1606A496A4A0839904284
:101EE00003D1486840F00F0006E0664A1432904281
:101EF00004D1486840F0F00048607047614A2832D9
:101F0000904203D1486840F47060F5E75D4A3C3286
:101F1000904203D1486840F47040EDE7594A50328E
:101F2000904203D1486840F47020E5E7554A643296
:101F3000904203D1486840F47000DDE7514A78329E
:101F4000904203D1486840F07060D5E74E4A111FB7
:101F5000904203D1086840F00F0006E04A4A14326C
:101F6000904204D1086840F0F00008607047464A8B
:101F70002832904203D1086840F47060F5E7424A85
:101F80003C32904203D1086840F47040EDE73E4A8D
:101F900050329042EAD1086840F47020E5E730B54D
:101FA000036847F6F07293430C6A8A682243D1E9CA
:101FB00004452C4322438C692243CC6922434C6A5A
:101FC00022438C6A22431A430260CA6842600A684C
:101FD00082604968C16030BD00210160416081605C
:101FE000C160016141618161C161016241628162DF
:101FF00070470029016802D041F0010102E04FF66C
:10200000FE72114001607047002A026801D00A4345
:1020100000E08A430260704741607047406880B2C8
:10202000704701460020CA0002D5174A083A01E06D
:10203000144A083A12680A4200D001207047C100D1
:1020400003D51149091F086070470E4908394860D7
:10205000704701460020CA0002D50B4A083A01E049
:10206000084A083A12680A4200D001207047C100AD
:1020700003D50549091F08607047024908394860BF
:1020800070470000080002400804024010B501211A
:102090004C072046FEF76DFA2046BDE810400021AF
:1020A000FEF767BA30B54D4C236840F6FE728240A9
:1020B0009343D1E900252A43D1E902510D432A4334
:1020C00082401A43226030BD00210160416081607E
:1020D000C1607047414A01238340106809B1184329
:1020E00000E09843106070473C4B814018680AB18B
:1020F000084300E0884318607047384A93148340CF
:10210000106809B1184300E0984310607047334AE3
:10211000121D0309012098400029116801D00143D4
:1021200000E08143116070472C49091D00280868B0
:1021300002D040F0030001E020F003000860704787
:10214000264B814018680AB1084300E088431860B4
:102150007047224A08B5104408300090016008BD5D
:102160001E4A08B5104414300090016008BD0828CC
:1021700005D042EA0141194A10440162704742EA1F
:102180000121F8E7154908B501EB90002C300090CB
:10219000006880B208BD0246104B002034331B6833
:1021A00091400B4200D00120704781400B483430F1
:1021B00001607047094A0346002012689940074BA6
:1021C0000A4034331B680B4202D0002A00D00120A1
:1021D000704781400148343001607047007400400E
:1021E0000D49086070470C49486070470A4988608B
:1021F000704709494AF6AA200860704706494CF61C
:10220000CC4008607047044A01460020D2680A4268
:1022100000D00120704700000030004010B50121BF
:102220000C072046FEF7A5F92046BDE81040002126
:10223000FEF79FB92149086270472049086170473D
:102240001F4A116821F0E0010143116070471B49EA
:10225000C1F8A00070471A4B1A6822F0030202432B
:102260001A601848026842F004020260012905D091
:1022700020BF016821F004010160704730BFF8E71A
:102280000F48016841F004010160016841F002015A
:1022900001600C48016841F00401016030BF7047E3
:1022A000074A0146002052680A4200D001207047C8
:1022B00003490A6842EA80000860704700000E4245
:1022C0000070004010ED00E07047FEE7FEE7FEE71B
:1022D000FEE77047704770477047704770470000CF
:1022E000FD48302101705B2141707921817074219A
:1022F000C1706D2101716F214171382181717F2180
:10230000C171704730B50022F349012805D0472339
:1023100002280ED0032813D018E0F0480F2407231A
:10232000057863200C704870332D8B700DD13720E9
:1023300004E00B700620487062238B70C87005E0C3
:102340000B706D2048700E208870CA700A714A7137
:102350008A71CA7130BDE0480021017041708170FE
:10236000C170017141718171C171704700210A22F0
:1023700004E000BFB0FBF2F0491CC9B20028F9D15B
:10238000084670472DE9F04306460D460846FFF71C
:10239000EDFF07463046FFF7E9FF01460A2295FBAD
:1023A000F2F002FB1050CE4BCB4C13F81000207013
:1023B0000020022F0AD395FBF2FC9CFBF2F802FBF3
:1023C00018CC13F81CC084F801C000E060704FF016
:1023D0006409032F0AD395FBF9FC9CFBF2F802FB7E
:1023E00018CC13F81CC084F802C000E0A0704FF4B1
:1023F0007A7C042F09D395FBFCF595FBF2F702FBE1
:10240000175513F81550E57000E0E07096FBF2F5F3
:1024100002FB1565022913F81550257109D396FBA7
:10242000F2F595FBF2F702FB175513F8155065719D
:1024300000E06071032909D396FBF9F595FBF2F7EB
:1024400002FB175513F81550A57100E0A07104297F
:1024500007D396FBFCF090FBF2F102FB110013F89E
:102460001000E071BDE8F0832DE9F04782460E468A
:1024700015461046FFF77AFF07463046FFF776FF0E
:1024800002460A2395FBF3F003FB1050944911F820
:102490001040914804700024022F0AD395FBF3FCEE
:1024A0009CFBF3F803FB18CC11F81CC080F801C0AA
:1024B00000E044704FF06409032F0AD395FBF9FC48
:1024C0009CFBF3F803FB18CC11F81CC080F802C089
:1024D00000E084704FF47A7C042F09D395FBFCF55F
:1024E00095FBF3F703FB175511F81550C57000E085
:1024F000C470BAF1000F2FD096FBF3F503FB1565FE
:10250000022A11F81550057109D396FBF3F595FBD6
:10251000F3F703FB175511F81550457100E04471AE
:10252000032A09D396FBF9F595FBF3F703FB17553F
:1025300011F81550857100E08471042A0AD396FBC6
:10254000FCF292FBF3F403FB142211F81210C17198
:10255000BDE8F087C471FBE7047106214171762163
:102560008171F7E72DE9F04782460E461546104681
:10257000FFF7FCFE07463046FFF7F8FE02460A2347
:1025800095FBF3F003FB1050554911F810405248E9
:1025900004700024022F0AD395FBF3FC9CFBF3F894
:1025A00003FB18CC11F81CC080F801C000E0447097
:1025B0004FF06409032F0AD395FBF9FC9CFBF3F859
:1025C00003FB18CC11F81CC080F802C000E0847036
:1025D0004FF47A7C042F09D395FBFCF595FBF3F7B8
:1025E00003FB175511F81550C57000E0C470BAF11F
:1025F000000F2ED096FBF3F503FB1565022A11F8A8
:102600001550057109D396FBF3F595FBF3F703FB22
:10261000175511F81550457100E04471032A09D38C
:1026200096FBF9F595FBF3F703FB175511F81550D9
:10263000857100E08471042A09D396FBFCF292FBB9
:10264000F3F403FB142211F81210C17180E7C47176
:102650007EE704716321417107218171F7E710B5AD
:102660001D49002262240A704A708A70CA7063226F
:102670000C7140234A718B7108B1072000E0732070
:10268000C87110BDF0B50346FFF770FE0A2593FB35
:10269000F5F105FB1131124C14F811200E490A70A6
:1026A0000022022809D393FBF5F696FBF5F705FB0C
:1026B000176614F816604E7000E04A70032811D3B4
:1026C000642693FBF6F696FBF5F705FB176614F800
:1026D00016608E7007E0000024010020AD0000208D
:1026E000906A00088A7004280BD34FF47A7093FB29
:1026F000F0F090FBF5F305FB130014F81000C87020
:1027000000E0CA700A71232048715E2088710F2092
:10271000C871F0BDFF4910B50F220A7147224F233F
:102720004A718B717324CC7128B17E2008704B7074
:102730000E228A7004E0002008704C708A706D20B0
:10274000C87010BDF0B50346FFF710FE0A22B3FBB8
:10275000F2F102FB1131F04D15F81140ED490C700A
:102760000024022809D3B3FBF2F6B6FBF2F702FB12
:10277000176615F816604E7000E04C7003280AD3F7
:102780006426B3FBF6F6B6FBF2F702FB176615F804
:1027900016608E7000E08C7004280BD34FF47A76AC
:1027A000B3FBF6F6B6FBF2F702FB176615F81660F8
:1027B000CE7000E0CC7005280BD342F21070B3FB52
:1027C000F0F0B0FBF2F302FB130015F810000871F3
:1027D00000E00C71232048716D208871CC71F0BD30
:1027E000F0B50346FFF7C2FD0A22B3FBF2F102FB8C
:1027F0001131C94C14F81150C6490D70002502283A
:1028000009D3B3FBF2F6B6FBF2F702FB176614F836
:1028100016604E7000E04D7003280AD36426B3FBA7
:10282000F6F6B6FBF2F702FB176614F816608E7028
:1028300000E08D7004280BD34FF47A76B3FBF6F6E4
:10284000B6FBF2F702FB176614F81660CE7000E0D4
:10285000CD7005280BD342F21070B3FBF0F0B0FB43
:10286000F2F302FB130014F81000087100E00D7180
:10287000232048716D2088710F20C871F0BDF0B51C
:102880000346FFF773FD0A22B3FBF2F102FB11319D
:10289000A14C14F811509F490D700025022809D34E
:1028A000B3FBF2F6B6FBF2F702FB176614F81660FC
:1028B0004E7000E04D7003280AD36426B3FBF6F691
:1028C000B6FBF2F702FB176614F816608E7000E094
:1028D0008D7004280BD34FF47A76B3FBF6F6B6FB73
:1028E000F2F702FB176614F81660CE7000E0CD70A8
:1028F00005280BD342F21070B3FBF0F0B0FBF2F3FB
:1029000002FB130014F81000087100E00D71232081
:1029100048716D2088714E20C871F0BD7D484021FE
:102920007E4A017041708170C1705378002143B1BB
:102930004E2303714371632383714723C371517025
:102940007047017141718171C171012050707047F0
:1029500070484021714A017041708170C170937854
:10296000002143B1732303714E23437183716323A9
:10297000C37191707047017141718171C171012002
:10298000907070472DE9F0438C460646FFF7EEFC49
:1029900064270A23604D00245E4A4FF47A79BCF123
:1029A000000F3ED05D4991F803C0BCF1000F31D05B
:1029B00096FBF3FC03FB1C6C022815F81CC082F884
:1029C00000C00AD396FBF3FC9CFBF3F803FB18CC86
:1029D00015F81CC082F801C000E05470032809D328
:1029E00096FBF7F797FBF3FC03FB1C7715F81770C2
:1029F000977000E09470042809D396FBF9F090FBDF
:102A0000F3F603FB160015F81000D07000E0D47048
:102A1000CC7033E0147054709470D4700120C8707E
:102A20002CE096FBF3F103FB1161022815F811105D
:102A3000117014D396FBF3F191FBF3FC03FB1C1113
:102A4000032815F8111051700AD396FBF7F191FB8A
:102A5000F3F703FB171115F81110917001E0547092
:102A60009470042809D396FBF9F090FBF3F103FB73
:102A7000110015F81000D07000E0D47073201071B0
:102A80004E20507190716320D071EBE421484021B9
:102A9000224A017041708170C1701379002143B1E5
:102AA000732303714E23437183716323C3711171C7
:102AB0007047017141718171C171012010717047BE
:102AC0002DE9F0438C460646FFF750FC64270A23A5
:102AD000114D00240F4A4FF47A79BCF1000F46D013
:102AE0000E4991F805C0BCF1000F39D096FBF3FCFC
:102AF00003FB1C6C022815F81CC082F800C012D31E
:102B000096FBF3FC9CFBF3F803FB18CC15F81CC0F8
:102B100006E0000024010020906A00082800002040
:102B200082F801C000E05470032809D396FBF7F740
:102B300097FBF3FC03FB1C7715F81770977000E008
:102B40009470042809D396FBF9F090FBF3F603FB8D
:102B5000160015F81000D07000E0D4704C7133E00E
:102B6000147054709470D470012048712CE096FB5E
:102B7000F3F103FB1161022815F81110117014D341
:102B800096FBF3F191FBF3FC03FB1C11032815F8F2
:102B9000111051700AD396FBF7F191FBF3F703FB89
:102BA000171115F81110917001E0547094700428F9
:102BB00009D396FBF9F090FBF3F103FB110015F834
:102BC0001000D07000E0D470732010714E2050714E
:102BD00090716320D07145E4FE484021FE4A0170A7
:102BE00041708170C170937900214BB1472303710B
:102BF00063234371762383716D23C3719171704791
:102C0000017141718171C1710120907170472DE98D
:102C1000F0438C460646FFF7A9FB64270A23EF4DD5
:102C20000024EC4A4FF47A79BCF1000F3ED0EA4917
:102C300091F807C0BCF1000F31D096FBF3FC03FB09
:102C40001C6C022815F81CC082F800C00AD396FB41
:102C5000F3FC9CFBF3F803FB18CC15F81CC082F8BE
:102C600001C000E05470032809D396FBF7F797FBE7
:102C7000F3FC03FB1C7715F81770977000E0947055
:102C8000042809D396FBF9F090FBF3F603FB16003A
:102C900015F81000D07000E0D470CC7133E01470DF
:102CA00054709470D4700120C8712CE096FBF3F13D
:102CB00003FB1161022815F81110117014D396FB53
:102CC000F3F191FBF3FC03FB1C11032815F8111021
:102CD00051700AD396FBF7F191FBF3F703FB171141
:102CE00015F81110917001E054709470042809D304
:102CF00096FBF9F090FBF3F103FB110015F81000BF
:102D0000D07000E0D470472010716320507176209D
:102D100090716D20D071B8E6AE484021AE4A017086
:102D200041708170C170137A002101713BB107239A
:102D300043714F2383717323C371117270474171C3
:102D40008171C1710120107270472DE9F0438C46EA
:102D50000646FFF70BFB64270A23A04D00249D4A7B
:102D60004FF47A79BCF1000F3ED09B4991F809C02D
:102D7000BCF1000F31D096FBF3FC03FB1C6C022866
:102D800015F81CC082F800C00AD396FBF3FC9CFB2C
:102D9000F3F803FB18CC15F81CC082F801C000E062
:102DA0005470032809D396FBF7F797FBF3FC03FB5A
:102DB0001C7715F81770977000E09470042809D3F9
:102DC00096FBF9F090FBF3F603FB160015F81000E4
:102DD000D07000E0D4704C7257E614705470947048
:102DE000D4700120487250E696FBF3F103FB1161A9
:102DF000022815F81110117014D396FBF3F191FB12
:102E0000F3FC03FB1C11032815F8111051700AD3B1
:102E100096FBF7F191FBF3F703FB171115F811106F
:102E2000917001E054709470042809D396FBF9F076
:102E300090FBF3F103FB110015F81000D07000E0D7
:102E4000D4701471072050714F2090717320D0718D
:102E50001BE62DE9F04705460C460846FFF786FAC3
:102E600006463021472000235A4A4FF04F094FF0C1
:102E70006D0A012D05D0022D1AD013705370937076
:102E80004AE013705370544C9370D370A57A45B1D7
:102E90001171507182F8069082F807A0A372BDE804
:102EA000F087137153719371D3710120A072F6E70B
:102EB0000A25B4FBF5F705FB174C484F022E17F80F
:102EC0001CC082F800C00AD3B4FBF5FCBCFBF5F8CB
:102ED00005FB18CC17F81CC082F801C000E0537045
:102EE000032E0CD34FF0640CB4FBFCFCBCFBF5F8D8
:102EF00005FB18CC17F81CC082F802C000E09370E4
:102F0000042E09D34FF47A73B4FBF3F3B3FBF5F457
:102F100005FB143317F81330D3701171507182F818
:102F2000069082F807A0BAE72DE9F0470546144657
:102F30001046FFF71BFA06465B224720002325496F
:102F40004FF04F094FF06D0A012D05D0022D19D019
:102F50000B704B708B7050E00B704B701E4C8B7075
:102F6000CB70E57A3DB10A71487181F8069081F81D
:102F700007A0E37293E70B714B718B71CB7101204A
:102F8000E0728CE70A25B4FBF5F705FB174C134FED
:102F9000022E17F81CC081F800C00AD3B4FBF5FC60
:102FA000BCFBF5F805FB18CC17F81CC081F801C074
:102FB00000E04B70032E13D34FF0640CB4FBFCFC09
:102FC000BCFBF5F805FB18CC17F81CC081F802C053
:102FD00007E000002401002028000020906A00087B
:102FE0008B70042E09D34FF47A73B4FBF3F3B3FB65
:102FF000F5F405FB143317F81330CB700A714871E0
:1030000081F8069081F807A049E770B5D14D4FF4DB
:1030100000712846FDF729FD0446A9152846FDF74D
:1030200024FDCD4914B1012C04D006E0012804D1BF
:10303000302005E018B1012804D0002000E006206F
:10304000087270BD3620FBE7F0B5C3480021C34EBF
:103050000170417035784FF07304EF064FF0620253
:103060004FF04F0302D525F0100535708470C27003
:10307000037141718171C171F0BDB7484721017081
:103080006D214170372181707321C1700021017160
:1030900041718171C1717047AF484721622201704F
:1030A000062141708270C1700021017141718171EE
:1030B000C17170472DE9F04184460E460846FFF77E
:1030C00055F90A24B6FBF4F104FB1161A44DA24B9F
:1030D000002715F811101970022809D3B6FBF4F176
:1030E000B1FBF4F204FB121115F81110597000E055
:1030F0005F704FF06408032809D3B6FBF8F1B1FB09
:10310000F4F204FB121115F81110997000E09F7091
:1031100004280FD34FF47A70B6FBF0F1B1FBF4F151
:10312000B6FBF0F0B0FBF4F104FB110015F8100051
:10313000D87000E0DF706046FFF718F99CFBF4F1EF
:1031400004FB11C1022815F81110197109D39CFB59
:10315000F4F191FBF4F204FB121115F811105971FE
:1031600000E05F71032809D39CFBF8F090FBF4F1B9
:1031700004FB110015F81000987100E09F717E208B
:10318000D871BDE8F08170B50346FFF7EFF80A2269
:1031900093FBF2F502FB15366F49714D5E240C70FE
:1031A00015F816604E700026022809D393FBF2F042
:1031B00090FBF2F302FB130015F81000887000E09A
:1031C0008E704020C8700E2008714F2048718C719D
:1031D000CE7170BD604900220F230A714B716D23BF
:1031E0008B717323CB71632310B10A70622001E0ED
:1031F0004E20087048708B70CA707047704770B569
:103200000446584DC00701D0002200E001224021B1
:103210002846FDF742FCA0074FF4807101D500223B
:1032200000E001222846FDF738FC600701D50022A6
:1032300000E0012208212846FDF72FFC20074FF46B
:10324000007101D5002200E001222846FDF725FC8F
:10325000E00601D5002200E0012280212846FDF78A
:103260001CFCA00601D5002200E0012220212846F6
:10327000FDF713FC600601D5002200E0012228467C
:10328000BDE870401021FDF708BC70B53649C30792
:103290004FF4004401F1040201D00C6000E014601E
:1032A00085074FF4805301D50B6000E0136045079C
:1032B0004FF4006301D50B6000E0136005074FF485
:1032C000806301D50B6000E01360284BC6064FF405
:1032D000005501D51D6100E05D6186064FF4804513
:1032E00001D51D6100E05D61450601D51C6100E06E
:1032F0005C6104064FF0020301D50B6000E013602F
:10330000C3054FF0010001D5086070BD106070BDAD
:1033100070B5174C104904F10C052078095C297030
:103320000F49123931F8100068600020FFF767FF7D
:103330006868FFF7AAFF2878FFF761FF6868FFF762
:10334000A4FF2078411C2170082801D300202070A0
:1033500070BD000000080140240100202001002071
:10336000906A0008000C0140100801400010014064
:10337000280000202DE9F843904C8F480D2381143C
:103380002060A180A371002262812261E271162671
:1033900026771F2727724FF0060C4FF0780804F1AC
:1033A0002001C4E905C84FF480490860A1F80490E1
:1033B0008B714A810A61CA710E770F72C1E905C823
:1033C00001F1200541142860A980AB716A812A614E
:1033D000EA712E772F72C5E905C828218DF80310F0
:1033E00002218DF80210ADF800906946FDF7E3FA6E
:1033F000A888ADF8000069462868FDF7DCFAA088C7
:10340000ADF8000069462068FDF7D5FABDE8F883FD
:1034100030B582790021212320240D2A09D00B2ADE
:1034200014D00C2A11D184690269A2420DD303720F
:1034300007E085690269AA4208D30372C279002AAB
:1034400003D101614189491C418130BD0472F8E713
:1034500010B5044681880068FDF707FB217F162917
:1034600005D0152902D1012800D0002010BD002868
:10347000FBD1012010BD70B55048FFF7E9FF4F4C5C
:1034800001250026012804D02046FFF7E1FF28B1DE
:1034900005E02069401C2061E57100E0E6712069CB
:1034A00018B14648FFF7D4FF40B1A16920698842AE
:1034B00007D94248FFF7CCFF012802D13F48FFF768
:1034C000A7FF3E482038FFF7C3FF3C4C203C0128B3
:1034D00004D02046FFF7BCFF28B105E02069401C5E
:1034E0002061E57100E0E671206920B133482038A1
:1034F000FFF7AEFF48B1A1692069884209D92F487A
:103500002038FFF7A5FF012803D12C482038FFF70A
:103510007FFF2A482030FFF79BFF284C20340128EA
:1035200004D02046FFF794FF28B105E02069401C35
:103530002061E57100E0E671206920B11F4820306C
:10354000FFF786FF48B1A1692069884209D91B4865
:103550002030FFF77DFF012803D118482030FFF706
:1035600057FF16484030FFF773FF144C40340128D2
:1035700004D02046FFF76CFF28B105E02069401C0D
:103580002061E57100E0E671206920B10B48403010
:10359000FFF75EFF48B1A169206988420AD9074850
:1035A0004030FFF755FF012804D1BDE870400348C3
:1035B00040302DE770BD0000000C0140500100209C
:1035C0002DE9F05FFA4D0026DFF8E8B32878FA4CD1
:1035D000DFF8E8A3FA4FC1064FF02009B04604D542
:1035E00020F010002870FFF7F7FAD1E022218AF8C6
:1035F00000109BF8070008B9E07938B1287800215D
:1036000020F010002870BAF9020008E02878C106FE
:1036100007D520F010002870BAF902000121FFF749
:10362000F6FAE649BBF90A201C3958460B7B9A4248
:1036300002D0037A202B03D0C279012A0AD00CE0F1
:103640000A73ABF80A80BAF80200401CAAF802001C
:10365000012604E0027A212A0DD08BF80890B4F9F3
:103660000A00097B884202D0207A202836D0E079EF
:1036700001283CD03EE0A0F80A80DBF81000434669
:10368000B0F5C87F12D20A22B0FBF2FC02FB1C008C
:103690000028E4D1CB480268012AE0D1BAF80260E0
:1036A000761CAAF8026001260360D8E7A0F2911206
:1036B000B2F5C77F06D80522B0FBF2FC02FB1C0066
:1036C0000028CCD1BF4A10680128C8D1BAF802003E
:1036D000401CAAF8020001261360C0E7A4F80A8083
:1036E000BAF80200401EAAF80200012604E0207A7F
:1036F00021280AD084F80890BAF9022042F20F710A
:1037000050468A422DDB41802FE0A4F80A802069D0
:103710004246B0F5C87F0BD20A210FE0A9480168E4
:103720000129E9D1BAF80210491EAAF8021015E0E1
:10373000A0F29111B1F5C77F07D80521B0FBF1F3D5
:1037400001FB13000028E9D0D6E79E480168012953
:10375000D2D1BAF802305B1EAAF80230012602600C
:10376000CAE7002A01DCA0F802802978CA060FD532
:10377000012E0DD121F01001297000269AF80010B9
:10378000914800F0BAFFBAF90210904800F0B5FF76
:10379000387A202803D1788904283FF427AFBDE880
:1037A000F09F2DE9F05F824D0026DFF808B22878FF
:1037B000814CDFF808A2824FC1064FF02009B046C5
:1037C00004D520F010002870FFF760F9D1E0212126
:1037D0008AF800109BF8070008B9E07938B128781A
:1037E000002120F020002870BAF9020008E02878B3
:1037F000C10607D520F010002870BAF90200012197
:10380000FFF75EF96D49BBF90A201C395846CB7A9F
:103810009A4202D0037A202B03D0C279012A0AD01F
:103820000CE0CA72ABF80A80BAF80200401CAAF891
:103830000200012604E0027A212A0DD08BF80890BC
:10384000B4F90A00C97A884202D0207A202836D0FA
:10385000E07901283CD03EE0A0F80A80DBF81000B7
:103860004346B0F5C87F12D20A22B0FBF2FC02FB3D
:103870001C000028E4D153480268012AE0D1BAF8BC
:103880000260761CAAF8026001260360D8E7A0F265
:103890009112B2F5C77F06D80522B0FBF2FC02FBFD
:1038A0001C000028CCD1474A10680128C8D1BAF8BA
:1038B0000200401CAAF8020001261360C0E7A4F829
:1038C0000A80BAF80200401EAAF80200012604E0AD
:1038D000207A21280AD084F80890BAF9022042F20E
:1038E0000F7150468A422DDB41802FE0A4F80A80F8
:1038F00020694246B0F5C87F0BD20A210FE031485B
:1039000001680129E9D1BAF80210491EAAF802108B
:1039100015E0A0F29111B1F5C77F07D80521B0FBE2
:10392000F1F301FB13000028E9D0D6E72548016830
:103930000129D2D1BAF802305B1EAAF80230012662
:103940000260CAE7002A01DCA0F802802978CA06D2
:103950000FD5012E0DD121F01001297000269AF803
:103960000010194800F0C9FEBAF90210174800F01B
:10397000C4FE387A202803D1788904283FF427AF81
:103980000DE72DE9F05F0A4D0026DFF828B0287812
:10399000094CDFF828900A4FC1064FF0200AB046C4
:1039A00004D520F010002870FEF7D2FFD2E000000E
:1039B000200100207001002090010020580000200C
:1039C000500100201C01002000940008009800080D
:1039D00089F800A09BF8070008B9E07938B1287889
:1039E000002120F010002870B9F9020008E02878C2
:1039F000C10607D520F010002870B9F90200012196
:103A0000FEF7C0FFFE4ABBF90A105846937A994266
:103A100002D0037A202B03D0C17901290AD00CE00F
:103A20009172ABF80A80B9F80200401CA9F80200B4
:103A3000012604E0017A21290DD08BF808A0B4F901
:103A40000A00917A884202D0207A202826D0E07994
:103A500001282CD02EE0A0F80A80DBF810004146A7
:103A6000B0F5C87F0DD20A2311E0E6480368012BA8
:103A7000E5D1B9F80260761CA9F802600126016060
:103A8000DDE7A0F29113B3F5C77FEED80523B0FBB5
:103A9000F3FC03FB1C000028E7D0D0E7A4F80A8061
:103AA000B9F80210491EA9F80210012604E0207A94
:103AB00021280AD084F808A0B9F9022042F20F7137
:103AC00048468A422FDB418031E0A4F80A80206911
:103AD0004146B0F5C87F0DD20A2211E0C94A1068EC
:103AE0000128E9D1B9F80200401EA9F80200012618
:103AF0001160E1E7A0F29112B2F5C77F07D8052265
:103B0000B0FBF2F302FB13000028E7D0D4E7BD4876
:103B10000268012AD0D1B9F802305B1EA9F8023040
:103B200001260160C8E7002A01DCA0F8028029789C
:103B3000CA060FD5012E0DD121F0100129700026E3
:103B400099F80010B04800F0D8FDB9F90210AF485C
:103B500000F0D3FD387A202803D1788904283FF477
:103B600037AF1CE6AA4910B50878C20604D520F084
:103B700010000870FEF7D2FEA1491F201C3108700A
:103B800010BD2DE9F047A34D4FF00008A24E4FF0B5
:103B90000109A24F9A4C2DE0FFF7E4FFB5F90A00A6
:103BA000617A88420DD0297A20290AD16072A5F85D
:103BB0000A80A1784046491C49B2A170012900DD64
:103BC000A070B6F90A00617A88420CD0307A2028B9
:103BD00009D1A6F80A80A078401E40B2A070002843
:103BE00001DA84F80290B7F90A00042802DB052004
:103BF00078812CE0A0780028CED028E0FFF7D1FD16
:103C0000B5F90A00617A88420CD0287A202809D1B7
:103C1000A5F80A80A2784046521C52B2A270012A2E
:103C200000DDA070B6F90A0088420CD0307A202856
:103C300009D1A6F80A80A078401E40B2A0700028E2
:103C400001DA84F80290B7F90A00052802DAA078B0
:103C50000128D3D0BDE8F0872DE9F047684C002556
:103C60006069FEF7BDFD6B4994F803C00A26B1F9FF
:103C70000A302027002263484FF4C8794FF4C77AEE
:103C80004FF00508634504D091F808C0BCF1200F3F
:103C900003D0CB79012B03D005E0E3704A811FE00C
:103CA0000B7A212B0ED00F725B4994F803C0B1F947
:103CB0000A30634502D00B7A202B2ED0CB79012B12
:103CC0002DD02FE04A81096949450CD2B1FBF6F3AA
:103CD00006FB13110029E7D101680129E4D1026034
:103CE0006169491C0FE0A1F2911353450ED8B1FB55
:103CF000F8F308FB13110029D6D101680129D3D1AB
:103D000002606169891C01256161CDE701680129B3
:103D1000CAD102606169491DF5E74A8117E00B7A53
:103D2000212B06D00F72606901282DDC0120606113
:103D30002FE04A81096949450CD2B1FBF6F306FB35
:103D400013110029EFD101680129ECD102606069EB
:103D5000401E0FE0A1F2911353450ED8B1FBF8F3CA
:103D600008FB13110029DED101680129DBD10260B3
:103D70006069801E01256061D5E701680129D2D103
:103D800002606069401FF5E742F20F71884200DB74
:103D900061611F490878C2060AD5002D08D020F0BD
:103DA000100008706169BDE8F0471D4800F0A5BC2F
:103DB00050E72DE9F05F1B4C00252946208800B212
:103DC000FEF7C3FF134A0E4B0A26B2F90AC093F856
:103DD0000D80202700210B484FF4C87A4FF4C77B91
:103DE0004FF00509C44504D092F80880B8F1200FBF
:103DF0001AD092F807C0BCF1010F19D01DE00000E5
:103E00003C0000201C0100200094000800980008DD
:103E100020010020700100209001002050010020AE
:103E2000009C0008BE00002083F80DC0518120E0F6
:103E300092F808C0BCF1210F0DD01772FB4A5B7BD2
:103E4000B2F90AC09C4502D0137A202B2ED0D37928
:103E5000012B2DD02FE05181126952450CD2B2FBBB
:103E6000F6FC06FB1C22002AE8D10268012AE5D1F3
:103E700001602288521C0FE0A2F2911CDC450ED892
:103E8000B2FBF9F809FB1822002AD7D10268012AEF
:103E9000D4D101602288921C22800125CEE70268DD
:103EA000012ACBD101602288521DF5E7518116E02D
:103EB000137A212B05D01772218832292CD8322071
:103EC0002EE05181126952450CD2B2FBF6F306FB8B
:103ED0001322002AF0D10268012AEDD10160208866
:103EE000401E0FE0A2F291135B450ED8B2FBF9F62B
:103EF00009FB1622002ADFD10268012ADCD1016009
:103F00002088801E20800125D6E70268012AD3D1AF
:103F100001602088401FF5E740F6B830814200D3A9
:103F20002080C3480178CA060AD5002D08D021F0A8
:103F3000100101702188BDE8F05FBE4800F0DDBBD4
:103F40002DE42DE9F05FB948BB4CC079012802D1BE
:103F5000E079012875D0B948C079012871D0DFF81F
:103F6000E082DFF8E0B2012798F80700B64E4FF084
:103F7000000A0BF11C09012863D058E0B34886F809
:103F800000A05546A0F800A0B148C0F800A0A4F8D1
:103F90000AA0A8F80AA000BFFFF70BFF608901285C
:103FA000FAD001E0FFF758FE60890228FAD080B20B
:103FB00003281AD1207A202839D199F800001F2827
:103FC00006D0202807D0212808D0222808D00AE0CF
:103FD0008BF8025007E08BF8027004E0022100E049
:103FE00003218BF80210FFF7CCFD207A20281ED188
:103FF00060890328F7D017E0FFF726F83770207A9A
:10400000202814D1B4F90A0006280DDB6581E5717A
:104010004D4699F800108F4800F06FFBB5F902107B
:104020008D4800F06AFB02E060890528E4D0E07961
:10403000012803D1A169206988429FD2207A2128D2
:104040009CD09DE42DE9F04784487E4C0025016812
:10405000B4F91000FFF72EF8794994F804C00A2645
:10406000B1F90A30202700227D484FF4C8794FF477
:10407000C77A4FF00508634504D091F808C0BCF139
:10408000200F03D0CB79012B03D005E023714A81A7
:104090001FE00B7A212B0ED00F72644994F804C0F4
:1040A000B1F90A30634502D00B7A202B2ED0CB79A0
:1040B000012B2DD02FE04A81096949450CD2B1FB73
:1040C000F6F306FB13110029E7D101680129E4D1B9
:1040D0000260218A491C0FE0A1F2911353450ED8CA
:1040E000B1FBF8F308FB13110029D6D101680129AF
:1040F000D3D10260218A891C21820125CDE7016884
:104100000129CAD10260218A491DF5E74A8117E0D9
:104110000B7A212B06D00F72B4F9100001282CDC89
:1041200001202DE04A81096949450CD2B1FBF6F323
:1041300006FB13110029EFD101680129ECD10260BF
:10414000208A401E0FE0A1F2911353450ED8B1FB17
:10415000F8F308FB13110029DED101680129DBD136
:104160000260208A801E20820125D5E7016801298E
:10417000D2D10260208A401FF5E7642801DB642069
:1041800020822B480178CA0604D5002D02D021F0E8
:10419000100101705EE52DE9F05F2A4C28492046A8
:1041A000002590F90020B1F90AC0501C46B208461B
:1041B00094F80580077A2A484FF4C87E4FF00A0920
:1041C0004FF0050B4FF0200A2B46C44501D0202F9D
:1041D00005D091F807C0BCF1010F04D005E084F8C8
:1041E00005C04B8120E0212F0FD081F808A00F4996
:1041F00067790A46B1F90A60127ABE4201D0202AD4
:1042000048D0CE79012E47D048E0154F4B8109693F
:104210003F68714526D2B1FBF9FC09FB1C1100294E
:10422000E5D1012FE3D1036026702BE0900100203F
:104230002001002000B000085001002030010020C3
:10424000700100203C00002021010020CA00002055
:10425000100100200094000800980008DC000020F5
:104260001C010020A1F29116B6F5C77F0CD8B1FB56
:10427000FBFC0BFB1C110029B9D1012FB7D1921CFB
:10428000036005E00125B2E7012FB0D1521D0360A4
:104290002270F7E74B8117E0212A07D081F808A0A8
:1042A00094F9000000282DDC23702FE04B81096970
:1042B00071450CD2B1FBF9F609FB16110029EFD1BB
:1042C00001680129ECD103602078401E10E0A1F2C2
:1042D0009112B2F5C77F0ED8B1FBFBF60BFB16119E
:1042E0000029DDD101680129DAD103602078801E20
:1042F00020700125D4E701680129D1D1036020781D
:10430000401FF5E7322801DB3220207094F90000CD
:10431000FEF739FFCA4E3078C0060AD5002D08D006
:1043200094F90010C74800F0E8F9307820F0100048
:10433000307016E42DE9F041C34C94F90100FEF70A
:1043400049FFC248A2790126B0F90A10C04F0025E2
:1043500091420CD0027A202A09D1A171458160785E
:10436000C8B1657094F90110384600F0C6F9B94833
:10437000A279B0F90A10914211D0017A20290ED108
:104380004581607848B1657094F901103846BDE800
:10439000F04100F0B2B96670E4E76670F4E7BDE89A
:1043A000F0812DE9F047A84C0025A069FEF7CAF975
:1043B000A64994F807C00A26B1F90A30202700223E
:1043C000A5484FF4C8794FF4C77A4FF00508634504
:1043D00004D091F808C0BCF1200F03D0CB79012B99
:1043E00003D005E0E3714A811FE00B7A212B0ED048
:1043F0000F72984994F807C0B1F90A30634502D0AA
:104400000B7A202B2ED0CB79012B2DD02FE04A8197
:10441000096949450CD2B1FBF6F306FB13110029DB
:10442000E7D101680129E4D10260A169491C0FE0CC
:10443000A1F2911353450ED8B1FBF8F308FB131109
:104440000029D6D101680129D3D10260A169891C54
:104450000125A161CDE701680129CAD10260A169E6
:10446000491DF5E74A8117E00B7A212B06D00F7220
:10447000A06901282DDC0120A0612FE04A81096993
:1044800049450CD2B1FBF6F306FB13110029EFD11D
:1044900001680129ECD10260A069401E0FE0A1F281
:1044A000911353450ED8B1FBF8F308FB1311002903
:1044B000DED101680129DBD10260A069801E0125DF
:1044C000A061D5E701680129D2D10260A069401F2F
:1044D000F5E74FF6FF71884200DBA1615849087883
:1044E000C20604D5002D02D020F0100008705FE451
:1044F0002DE9F047544C0025E089FEF7C0F95349F7
:1045000094F808C00A26B1F90A3020270022524840
:104510004FF4C8794FF4C77A4FF00508634504D0CB
:1045200091F808C0BCF1200F03D0CB79012B03D048
:1045300005E023724A811FE00B7A212B0ED00F7207
:10454000444994F808C0B1F90A30634502D00B7AA7
:10455000202B2ED0CB79012B2DD02FE04A81096959
:1045600049450CD2B1FBF6F306FB13110029E7D144
:1045700001680129E4D10260E189491C0FE0A1F240
:10458000911353450ED8B1FBF8F308FB1311002922
:10459000D6D101680129D3D10260E189891CE1816A
:1045A0000125CDE701680129CAD10260E189491DD1
:1045B000F5E74A8117E00B7A212B06D00F72E089CC
:1045C00001282DD80120E0812FE04A810969494561
:1045D0000CD2B1FBF6F306FB13110029EFD10168F1
:1045E0000129ECD10260E089401E0FE0A1F2911395
:1045F00053450ED8B1FBF8F308FB13110029DED1A7
:1046000001680129DBD10260E089801EE08101257B
:10461000D5E701680129D2D10260E089401FF5E7A2
:104620004FF6FF71884200D3E18105490878C20640
:1046300004D5002D02D020F010000870AAE500007B
:104640002001002000C000083C0000207001002074
:1046500000C80008900100201C01002010B504468D
:10466000FCF7F9FA3520FCF704FD2046FCF72EFB99
:104670003520FCF7FEFCBDE81040FCF7F8BA70B539
:104680000C460546FCF7E7FA3520FCF7F2FC21461C
:104690002846FCF7BAFB3520FCF7EBFCFCF7E7FA01
:1046A00070BD10B52948FFF7D9FF2948FFF7D6FF9D
:1046B0002848FFF7D3FF2848FFF7D0FF2748FFF728
:1046C000CDFF2748FFF7CAFF2648FFF7C7FF264858
:1046D000FFF7C4FF2548FFF7C1FF2548FFF7BEFFDE
:1046E0002448FFF7BBFF2448FFF7B8FF2348FFF734
:1046F000B5FFBDE810402248B0E72DE9F04104467F
:104700000646006888461F4D4FF48067286008E021
:10471000241DA01BB84202D93046FFF79FFF206836
:104720002860401CF4D141462046BDE8F041A6E790
:104730000368024613490B605B1C03D0024650F825
:10474000043FF8E710680860704700000094000814
:1047500000980008009C000800A0000800A40008C1
:1047600000A8000800AC000800B0000800B4000871
:1047700000B8000800BC000800C0000800C4000821
:1047800000C80008600000202DE9F05FA64D4FF042
:104790000009DFF898A2DFF8988240F6FF7BA54C6D
:1047A000C5F8109021E000BFDAF8000001F0ECFF3E
:1047B00029690746884205D39F482F61006801F0A8
:1047C000C7FF686198F800004646C10607D520F08B
:1047D00010003070002239461046FEF7A5FB207A03
:1047E000212807D0E0790128DED028780028F9D0E8
:1047F000BDE8F09F4FEA060898F80010CA064BD5AE
:1048000021F0100188F80010002211460120FEF767
:104810008BFB41E0286900EB4000C11700EB917071
:104820008010E860142802DC1420E86003E058459A
:1048300001DBC5F80CB0814F4FF4007631463846A5
:10484000FCF713F9024631463846FCF726F9761094
:1048500031463846FCF709F9024631463846FCF73E
:104860001CF97748E968018001202870A4F80A90B3
:1048700084F807901F2020727248FFF73EFF7248AD
:104880006969FFF73AFF7148A969FFF736FF704879
:1048900001687048FFF731FF207A2128A2D1E07922
:1048A0000028A9D1B6E770B55F4D00246A486C6056
:1048B000AC600178002931D00470281D00F020FC84
:1048C0006348696840F6FF760160B14201DB06602B
:1048D00002E0002900DC0460008881B20020FDF7BE
:1048E00038FC01210020FDF712FC4F48083000F091
:1048F00008FC5A48A9680160B14201DB066002E089
:10490000002900DC0460008881B20020FDF728FC4B
:10491000BDE8704001211020FDF7F9BB70BD2DE905
:10492000F05F4448C17901294ED1DFF834B19BF8DA
:104930000710012948D04B4E0025404F4FF400741A
:10494000357021463846FCF790F802462146384635
:10495000FCF7A3F8641021463846FCF786F80246B7
:1049600021463846FCF799F800210846FEF771FA0F
:10497000FFF799FF2F4C1FE0E1793B4A3B4BDFF8F3
:10498000A8A0B4F90A70DC464FF020084FF01F09C8
:10499000012902D1207A202803D0207A21280BD1A6
:1049A00013E02248006801F0EFFE014600221046A5
:1049B000FEF7BAFAFFF7E8FE207A2028DCD021289B
:1049C000DAD0E0790128B8D012E70129E0D13570BA
:1049D000A78184F80880558182F808905D8183F86A
:1049E0000890ACF80A508CF808908AF80050CFE78D
:1049F000036800214FF47A62934200D90121436891
:104A0000934201D941F002018368934201D941F0F8
:104A10000401C068904201D941F008010F2901D07A
:104A20000020704701207047640000200001002032
:104A30002001002030010020FC000020000801407F
:104A4000C800002000A0000800B4000800B800085A
:104A5000E000002000A40008B4000020E4000020D2
:104A60005001002021010020700100209001002051
:104A700070B5BB4D044640212846FBF70BFF0028CC
:104A8000F9D0E1B22846FBF7A4FE204670BD401ED7
:104A900000B20028FBDC704710B5B24C0121204663
:104AA000FDF769F8002805D02046BDE81040012137
:104AB000FDF76DB810BD70B501218E073046FDF7CA
:104AC0005AF8002850D0A84C2069401C2061A74803
:104AD0004168491C416020690A21B0FBF1F201FBE9
:104AE00012000025E0B9A248007818B1A149088851
:104AF000401C0880A048007818B1A0490888401CD4
:104B00000880FEF705FC9E480168491C01609D482D
:104B100001789D4819B10168491C016000E00560F9
:104B200020695021B0FBF1F201FB120020B9FEF721
:104B3000A2FC964901200860206941F28831884230
:104B40000CD300F0CDFA9248017881F00101017098
:104B50009048017841F01001017025613046BDE8B0
:104B600070400121FDF713B870BD10B58A4C0121CA
:104B70002046FDF700F8002805D02046BDE810408B
:104B80000121FDF704B810BD10B5844C0121204669
:104B9000FCF7F1FF002805D02046BDE810400121B8
:104BA000FCF7F5BF10BD10B501F04EF9E020FDF7A0
:104BB00047FB0120FDF741FB01F0B8FB01F016FBBC
:104BC00001F0DEFC01F011FD7548FBF76AFC01F015
:104BD00068FA01F068F9BDE81040FEF7CBBB70B58C
:104BE000704D2846FFF7A4FD5F4CB0F5803F606034
:104BF00003D30020606000F0B1FA61682846491CC8
:104C00006160FFF77AFD3220401E00B20028FBDC15
:104C10006068012803DCBDE8704000F09FBA70BDF9
:104C200010B57D20FBF7A3FB08B1FBF7B5FC45F2FF
:104C30005550FDF7D5FA0420FDF7D5FA4FF4FA6088
:104C4000FDF7D4FAFDF7D5FABDE81040FDF7D6BA66
:104C500030B5454A93681C79047093681B7A437099
:104C600093685B7883709368DB78C37093681D7872
:104C700005715D7945719D7A8571DD79C5715D7AC2
:104C800005729D784572DD7A85729B79C372D3680F
:104C90001B7863400B70D3688479057A5B78634036
:104CA000C4796C406340447A6340847A6340C47A38
:104CB00063404B70D36804799B7863408B70D268F3
:104CC00083784078D2785A404240CA7030BD264935
:104CD000334800B514311430FFF7BAFF22481430BE
:104CE0000178427801EB02218278C078120402EB4D
:104CF000006008441C4A2C4990610968D1618142D6
:104D000001D1012000BD002000BD10B5FFF74BFF11
:104D1000FFF7DDFF14490870FFF761FF00F0C6FFE1
:104D2000002010BDF0B54FF6FF740F4A41F2210587
:104D300010E080235688370404EA460600D56E400A
:104D4000568006781E4202D056886E4056805B0818
:104D5000F0D1401C491EC9B2EBD25088F0BD000012
:104D6000003801400008004080000020580000206A
:104D7000AB000020C4000020AC000020C6000020D2
:104D8000F0000020B0000020EC0000201C010020FA
:104D9000A400002020010020002C0140000400405D
:104DA000B001002000900008F0FF0008F0B5046892
:104DB0001460046800251C6001240CE050F8246095
:104DC0001768B74200D2166050F824601F68B742D7
:104DD00000D91E60641C8C42F0DB002204E000BF9E
:104DE00050F82230521C1D448A42F9DBB5FBF1F029
:104DF000F0BD30B5002305E051F8235004685B1C7A
:104E00002C4404609342F7DB30BD30B5002303E04F
:104E100051F823505B1C2C449342F9DBB4FBF3F1B3
:104E2000016030BD0022134601E008C0521C8A42D6
:104E3000FBDB7047FE4930B408464A7880798AB96E
:104E400001280FD14A6CFB4B521C4A641C68012399
:104E5000A24200D3CB71F84C2488A24202D30B7239
:104E600000224A644870C97930BCFEF7CEB82DE9FB
:104E7000F047EF48F24B014690F80DC00A8DCF7B0A
:104E8000521C93F900604D6E0C6FDFF8B083002167
:104E9000EC4B4FF4806A92B24FF4FA69BCF1000F08
:104EA00015D0BCF1010F1BD190F805C0BCF1000F6B
:104EB00016D058F8277052453C44046702850AD33F
:104EC0000185A20AC26696B1AA1AC28402E090F8CD
:104ED00002C0EBE70167B0F92610994202DCC384F7
:104EE000BDE8F0874945FBDBA0F82690F8E7C184D0
:104EF000F0E72DE9F041CE4C207B01282BD04FF478
:104F00008061D148FBF7B1FD0026012708B1267169
:104F100000E027712079A178884201D1012200E0C8
:104F20000022CA4DA271CA482B784FF400711F2B82
:104F30000BD0202B11D0212B1BD0222B0BD13AB31D
:104F4000E27C012A24D06E601DE082B112E000BF35
:104F5000FBF7A3FD6E60BDE8F08142B1B5F9022018
:104F6000646B6B6862439342F5D901220CE0002226
:104F7000EEE70AB10122EBE7B5F90220646B6B683A
:104F800062439342E7D90022BDE8F041FBF785BDBB
:104F9000B5F902206B68656B6A43934204D2002224
:104FA000FBF77BFDE774D6E70122FBF776FDE6749D
:104FB000D1E72DE9F0410220FDF74BF800286FD032
:104FC0009B4C0025A34A6574606D617C32F91130F9
:104FD000491CC9B2184461741029F6D36065606F2A
:104FE000401C606732285BDD04219948FBF73DFDDA
:104FF0000126E0B3A07C401CA074608D401C07B269
:105000006785606DC11700EB1170001101F0DCFBCA
:105010000146A065206E01F033FB65652066B7F59B
:10502000805F18DB65856FF00B0101F0EAFCC4E9D5
:1050300017050746608B01F0DFFB394601F020FBC6
:1050400001F086FB81B2E0630020FDF782F80121C8
:105050000020FDF75CF8A07C0A21B0FBF1F201FB17
:10506000120111B908B1A670A574267402E0FFE719
:10507000A570A574FFF73DFFE07801280AD1A0785C
:1050800040B9606C7449401C60640968884201D36F
:10509000E6716564E179A079FDF7B7FFA078E0706B
:1050A000BDE8F0410220FCF7E2BF10B500231A462C
:1050B00005E000BF50F82240521C234492B28A42BD
:1050C000F8D3B3FBF2F010BD594AB2F92420904254
:1050D00001D301207047323A9042FBD8002070473C
:1050E00010B5534CE06D01F033FBA06310BD10B55B
:1050F00004464F48806D01F047FB206010BD7047AB
:10510000704770471020FDF73DB870B5484C207BC4
:10511000012817D0E0794E4E4FF4807520B101225E
:1051200029463046FBF7B9FCB4F92000502809DBCA
:105130000020E0712084024629463046BDE87040D8
:10514000FBF7ABBC70BD00EBC002002102EB00100E
:1051500000E0491CB1EB800FFBD370472DE9F0470D
:1051600034494FF46170324C08604FF47A71A18475
:105170003320364F60721F263E700A20374A7880EF
:1051800064201080608301202071A1834FF42F716F
:10519000E183DFF8CC900025DFF8A480657389F8FF
:1051A000000088F8000031462E48FFF7A6FA3220AA
:1051B000FFF7C9FFB7F902102B48FFF79EFA32201C
:1051C000FFF7C1FF244801682848FFF796FA32200C
:1051D000FFF7B9FFB4F924102548FFF78EFA322003
:1051E000FFF7B1FF2348E16BFFF787FA3220FFF7A3
:1051F000AAFF617A2048FFF780FA3220FFF7A3FF69
:1052000021791E48FFF779FA3220FFF79CFF618B66
:105210001B48FFF772FA3220FFF795FF1948016823
:105220001948FFF76AFA3220FFF78DFF17482FE081
:10523000A4000020540000204A000020D0010020DB
:105240003D00002030F8FFFF000C01405800002016
:105250000008014050020020500000204C000020B7
:105260003C0000200094000800980008009C000802
:1052700000A0000800A4000800A8000800AC000876
:1052800000B000087800002000B400087C00002076
:105290000168FA48FFF731FA3220FFF754FF617BCB
:1052A000F748FFF72AFA3220FFF74DFF99F900106F
:1052B000F448FFF722FA3220FFF745FFF248616E0B
:1052C000FFF71BFA3220FFF73EFF98F90010EF4876
:1052D000FFF713FAEE48067205614581ED48067244
:1052E0004581FDE52DE9F047E94C207A212842D19E
:1052F000E94EDFF8A8831F27F17998F80700DFF857
:10530000A093002529B998F80820212A01D1012865
:1053100006D0E04A4FF47A7A137A212B2CD02FE072
:1053200099F8090033280FD05FF0330089F809009D
:1053300065814FF0010A0120FCF7E4FF89F80BA01A
:10534000207A212802D00BE03420EFE7F07938B939
:1053500098F80810212903D198F807000128EAD00D
:1053600099F80910CF48FFF7C8F927726581A8F8A6
:105370000A5088F80870B3E5D279012A00D179B1D2
:105380000129F8D1317A2129F5D10028F3D1C9F8C2
:1053900044500320FCF7B6FF207A21282AD033E0BE
:1053A0000028E8D1FCF7D7FF10E000BFFFF779F93C
:1053B00002E00220FCF7A6FFB548FEF749F80128F5
:1053C00004D1B448FEF744F80128F2D0B048FEF703
:1053D0003FF8012804D1AF48FEF73AF80128E5D09C
:1053E000FFF7BCFE65812772A8F80A5088F808709C
:1053F00075810DE0F079012806D1307A212803D19A
:1054000098F807000028C4D027722561658175814E
:1054100037725046BDE8F04795E62DE9F047A04CBD
:105420000021608B00B2FDF790FC9B4894F817C0F8
:10543000618BB0F90A3000220A25052620274FF497
:10544000C8784FF4C779634504D090F808C0BCF120
:10545000200F03D0C379012B03D005E0E37542810F
:1054600019E0037A212B0DD007728C48E37DB0F947
:105470000A10994202D0017A20291AD0C179012953
:1054800019D01BE042810069404507D2B0FBF5F31B
:1054900005FB13000AE0491C6183E6E7A0F29113C3
:1054A0004B45F8D8B0FBF6F306FB13000028F2D00A
:1054B000DBE7428113E0017A212907D00772608B74
:1054C0004FF4FA71884219D3618309E5428100697A
:1054D000404508D2B0FBF5F105FB11000BE0608BF5
:1054E000401E6083EBE7A0F291114945F7D8B0FB6D
:1054F000F6F106FB11000028F1D0E0E70428E4D81B
:1055000004206083ECE488E7654810B5B0F84400F7
:1055100000B2FDF7B7F86149002048815E49488133
:1055200010BD2DE9F0415E4C2079FDF798F85A48FE
:10553000A27D0126B0F90A105B4F002591420BD0E5
:10554000027A202A08D1A17545812079B8B1257148
:1055500021793846FFF7D1F85048A27DB0F90A10FA
:10556000914210D0017A20290DD14581207940B196
:10557000257121793846BDE8F041FFF7BEB82671A4
:10558000E6E72671F5E7E6E42DE9F047444C208F85
:1055900001B2B4F92400FCF7F5FE3D48E17A4FF082
:1055A0000005C079084367D1607A332864D1B4F923
:1055B0002400394AA085277DB2F90A100A2605235E
:1055C0004FF4C8794FF02008B94202D0177A202F43
:1055D00003D0D179012904D006E021755581411C01
:1055E00038E0117A21290FD082F808802B4F94F8E7
:1055F00014C0B7F90A10614502D0397A20292BD09E
:10560000F97901292CD02EE05581116949450CD832
:10561000B1FBF6F706FB17110029E7D1A16F0129AD
:10562000E4D1411CA184A567E0E7A1F291174F45A1
:105630000BD2B1FBF3F703FB17110029D6D1A16FF1
:105640000129D3D1811CA56704E0A16F0129CDD127
:10565000411DA567A184C9E77D81A18C491E4FE04A
:10566000397A212922D087F8088000BFB4F92410A4
:1056700088424CD0F879E0B349E0000000B8000857
:1056800000BC000800C0000800C4000800C80008F2
:105690005001002030010020700100209001002006
:1056A000A400002000A8000800AC00087D81396932
:1056B00049450BD2B1FBF6F306FB13110029D5D1F6
:1056C000A16F0129D2D1A18C491E0FE0A1F2911640
:1056D000B6F5C77F0ED8B1FBF3F603FB1611002910
:1056E000C4D1A16F0129C1D1A18C891EA184A56754
:1056F000BCE707E0A16F0129B8D1A567A18C491FBC
:10570000A184B3E7D07910B9FA48FEF7F6FFB4F9EF
:10571000240042F20F71884201DBA184E1E50028F8
:10572000FCDCA584DDE52DE9F04FF348F24DDFF810
:10573000D0C3877BF148BCF90AE087B0C179E87A29
:1057400095F8099001430EF0FF000690288FDFF8CE
:10575000B4B302B29CF807000590DCF81030A86FD3
:105760001C46A3F291130493BBF90A3003939BF8F0
:1057700007300293DBF810304FF0000AA3F29116C5
:1057800001962E7800966E7D9CF808809BF8085054
:10579000E7B1012F72D1D84F00296FD13946B9F145
:1057A000330F6BD18946B1F91E10A9F830104F1C88
:1057B0003FB2B64502D0B8F1200F6FD0DDF814C06B
:1057C000DFF83CE3BCF1010F69D0CEE0CA4F0029FD
:1057D00054D13946B9F1330F50D18946B1F91C1073
:1057E000A9F82E104F1C3FB2B64504D0DFF810C305
:1057F000B8F1200F07D0DDF814C0DFF804E3BCF1E6
:10580000010F11D013E0069989F81510ACF80AA021
:1058100042F20F714846A9F81C708F424EDA00BF61
:10582000B9F91C1001205BE0B8F1210F12D0DFF8AC
:10583000C8C2DDF80C804C46BCF81CC0B045ACF1C9
:10584000010C0FFA8CFC01D0202D39D0029E012EC4
:1058500040D041E04FF4C8755346AEF80AA0AC42C0
:105860000DD80A21B4FBF1F501FB1541F9B9494600
:1058700001281CD18B67A9F81C7018E0FCE0049E7D
:10588000AE420DD20525B4FBF5F605FB164474B9FE
:105890004C4601280BD1891CA36706E051E061E06A
:1058A0004C46012803D1491DA367A9F81C10B9F97A
:1058B0001C3042F20F7148468B42B1DB8183AFE767
:1058C000ABF80AA05046A4F81CC0BCF1000FA7DC3E
:1058D000A083A5E7212D08D020208BF80800009890
:1058E00007B0BDE8F04FFCF7BFBD5546ABF80AA0C6
:1058F000B3F5C87F0BD20A21B3FBF1F601FB1631D9
:10590000C9B9012817D1A567A4F81CC013E0019EEE
:10591000B6F5C77F0AD80526B3FBF6F706FB1733A3
:105920004BB9012807D1891EA56703E0012802D1E0
:10593000491FA567A183B4F91C000028BFDCA5831B
:105940006EE7069989F81510ACF80AA042F20F71BB
:105950004846A9F81E708F424BDA00BFB9F91E10F5
:10596000012058E0B8F1210F12D0DFF88CC1DDF82A
:105970000C804C46BCF81EC0B045ACF1010C0FFACF
:105980008CFC01D0202D36D0029E012E3DD03EE071
:105990004FF4C8755346AEF80AA0AC420CD80A21A1
:1059A000B4FBF1F501FB1541E1B94946012819D1D4
:1059B0008B67A9F81E7015E0049EAE420BD2052538
:1059C000B4FBF5F605FB164464B94C46012809D131
:1059D000891CA36704E04C46012803D1491DA36735
:1059E000A9F81E10B9F91E3042F20F7148468B42D9
:1059F000B4DBC183B2E7ABF80AA05046A4F81EC0DE
:105A0000BCF1000FAADCE083A8E7212D08D02020FC
:105A10008BF80800009807B0BDE8F04FFCF7A2BD76
:105A20005546ABF80AA0B3F5C87F0BD20A21B3FBE9
:105A3000F1F601FB1631C9B9012817D1A567A4F801
:105A40001EC013E0019EB6F5C77F0AD80526B3FB3A
:105A5000F6F706FB17334BB9012807D1891EA56756
:105A600003E0012802D1491FA567E183B4F91E00B4
:105A70000028BFDCE58371E707B0BDE8F08F1E4961
:105A8000214800224B7B2BB190F900300BB10B76F3
:105A9000027048E60B7E13B10A760121017073E5AE
:105AA0002DE9F047154CDFF85C90DFF86080E17974
:105AB00099F80700124F012908D1012873D098F8EE
:105AC000071001296FD0F97901296CD00A4D002601
:105AD000697A332935D1B4F90A1009B90222AA73B7
